:020000040800F2
:1000000090140020E1000008910800088D08000805
:1000100000000000000000000000000000000000E0
:10002000000000000000000000000000950800082B
:100030000000000000000000930800089708000876
:10004000F3000008F3000008F3000008F3000008C4
:10005000F3000008F3000008F3000008F3000008B4
:1000600000000000F3000008F3000008F30000089F
:10007000F3000008F3000008F3000008000000008F
:10008000F3000008F300000800000000F30000087F
:10009000F3000008F3000008F3000008F300000874
:1000A000F3000008F3000008F30000084509000809
:1000B000F300000800000000000000000000000045
:1000C000F300000800000000F30000080348854624
:1000D00000F012FB00480047D121000890140020D6
:1000E0000448804704480047FEE7FEE7FEE7FEE7D6
:1000F000FEE7FEE799080008CD00000803460B4321
:100100009B0703D009E008C9121F08C0042AFAD2CD
:1001100003E00B780370401C491C521EF9D2704753
:10012000D2B201E00270401C491EFBD2704700228F
:10013000F6E710B513460A4604461946FFF7F0FFE6
:10014000204610BD30B504460020034600E05B1C8D
:10015000934203D2E05CCD5C401BF8D030BD024638
:1001600070B54A40D30FDB0740002DD04A002AD09B
:10017000010E140E000212020919400A520A8418D4
:10018000E50104465443000A120A2E045043A41900
:100190004219200CC543AA18120C0125AD03521CAC
:1001A000521912047F39240400D0521C104301D488
:1001B0004000491EC2B20C06C0092018401C40086D
:1001C000802A02D003E0002070BD400840000029D2
:1001D00000DA0020184370BD70B502464A40D50FC2
:1001E00040004A00ED0740085208002814D0002AB9
:1001F00012D0C40DD30D41020120C0055202490A9C
:10020000520AE41A091812187D34914201D3641C71
:1002100000E04900002C01DA002070BD002391426B
:1002200001D3891A0343400849000028F7D1002967
:100230000AD0914202D10121C90705E0914201D2C1
:10024000012101E00121C943E005C018401900F077
:100250004CF870BD10B500229623114600F04DF801
:1002600010BD410040020122400AD205090E80184B
:100270007F2901DA00207047962903DC9622511A63
:10028000C8407047963988407047F0B51FB406469D
:10029000002082B005464024019100901BE00199A6
:1002A00022460F46304600F06EFA049A059B801AEB
:1002B000994110D310461946224600F054FA361AD6
:1002C0008F410197224601200021009F00F04BFA48
:1002D00038184D4100902046641E0028DFDC019B49
:1002E00000982946324607B0F0BD002904DA401CC8
:1002F000490001D140084000704770B40024050C4B
:1003000005D11024000402D1002921D01124050EAA
:1003100001D100020834050F01D10001241D850F11
:1003200001D18000A41C002801DB4000641C0029CE
:1003300008D020252E1B0D46F540A14000D00121FC
:100340002943084301061B1B000ADB1D02D50020C0
:1003500070BC7047DB05181880180029F8DA401CBB
:100360004900F5D170BC400840007047F0B5074621
:100370000846584087B0C00F049048000E46590008
:1003800040084908BC1A884105D2384631461E4605
:1003900017460B4602465800400810434CD0300D1B
:1003A000039040055900400D490D0590401A0290F8
:1003B000402872DA18030121000B09050843019057
:1003C00004980092002805D00199524200208841EB
:1003D00000920190029840210A1A0199009800F0B9
:1003E000C2F905460C466B4607CB00F0DDF9C01993
:1003F0007141039A0E0D0023D71756401A467A40D2
:10040000164344D0049A002A2DD0029A012A039A56
:1004100015DC1205C01A914101263605001C7141F8
:10042000D20F059ED2070093019202962A462346D8
:1004300000F0DAF907B0F0BD38463146FAE71605A4
:10044000224A0F46B218C01AB74101210905001C03
:100450004F4100187F41114618187941E20F1043AF
:100460006D19644113E0E2076D0815436408C20783
:100470001443039A01261205C01A91413605001C47
:100480007141CE07400830434908C01851412A46FF
:10049000234600F09CF9CDE7FFE7049801224000D5
:1004A000C117121A00238B4104983146C417381A19
:1004B000A141EEE730B40124E407634030BC55E7C6
:1004C00030B40124E407614030BC4FE70000E0FF96
:1004D000F0B51FB488B00B990998002448400999D9
:1004E000C00F490049080991C0070B9900904900C5
:1004F00049080B9109990898A64608431CD00B9906
:100500000A98084318D0099801244000420D480079
:10051000410D099824050003000B204309900B9816
:100520000003000B20430B9050181C494018002278
:1005300001901446104605E0002001460DB0F0BDC4
:10054000032801DA034600E003239C46C11A0AAEE1
:100550000AE05F0008ADED5B4F00F75B7D430027CD
:10056000AA187C41491C5B1E6145F2DD410004ABC9
:100570005A522104120C0A43240C401C0828DFDBC9
:10058000019802900099704601910090059B049A91
:100590000799069800F028F9D0E700000DFCFFFF4E
:1005A000F0B50C465C4085B0E40FE40703944C00C2
:1005B00000266408590094464908024602962243E0
:1005C00021D062460A431ED06200570D4A000E0336
:1005D0002303550D012402462C492405781B1B0BCF
:1005E000360B401823432643614600901C46501AA0
:1005F000B44103D30098401C009002E09218009888
:100600005B41002803DA0020014605B0F0BD002060
:10061000012109050746864611E064461D46141B64
:10062000B54106D36546521BB341744607430C439C
:10063000A646CD0740084908284392185B41054665
:100640000D43EAD11046184313D060461946504076
:100650007140084306D06046101AB34106D2012209
:10066000002306E000220123DB0702E00122D2433F
:100670005310009874460105381C6141029C039D8B
:100680000019694100F0A3F8BFE70000FD03000076
:100690004A0009030123090B1B0519430A4B10B536
:1006A000520D9A4202DA0020014610BD064B343347
:1006B0009A4203DC9A1A00F066F810BD034BD21878
:1006C00000F051F810BD0000FF030000CDFBFFFF5C
:1006D00010B5002904DB0124E40740428C41214687
:1006E000002B04DB1C460123DB075242A341994245
:1006F00000D1904210BD00001CB509480090094887
:10070000019005460126009C05E0E36807CC3343D1
:100710000C3C98471034AC42F7D3FFF7DBFC0000E9
:100720009C440008BC44000870B50446002903D06E
:1007300000202022012310E0002801D00020C04327
:10074000C046C0460DE02546D5408D4205D30D4636
:100750009540641B1D46954040191546521E002DBC
:10076000F1DC214670BD10B5202A04DB0146203A99
:100770009140002010BD914020239C1A0346E34085
:100780001943904010BD10B5202A04DB0846203ADA
:10079000D040002110BD0B46D340D0402024A21AE7
:1007A00091400843194610BD10B5202A06DBCB172F
:1007B0000846203A1041C1170B4306E00B4613418F
:1007C000D0402024A21A91400843194610BD10B50C
:1007D000002B08DA0024401C614192185B411A4347
:1007E00001D14008400010BDF0B51FB482B00546ED
:1007F0000C0003D0084603F083F802E003F080F811
:1008000020300246009021462846FFF7ACFF049BAB
:10081000059A04460F4618431143084314D018465E
:1008200010431BD0009840210A1A18460599FFF77B
:10083000AAFF05460E46009A05990498FFF793FF14
:10084000084305D0012004E02046394607B0F0BD3A
:100850000020C11705430E432C43374300990E98DF
:100860006305401A7905E40A00220C43FD0A0A30A8
:1008700002D500200146E9E70105101969410C9CE9
:100880000D9D00196941FFF7A2FFDFE7FFE7FEE7D3
:10089000704770477047704780B582B0204908683C
:1008A000012210430860FFE71D4800688007002808
:1008B00001D4FFE7F8E71B4908681B4A10400860AD
:1008C00008681A4A1040086015490868184A10401C
:1008D0000860184908680F229043086016490868A4
:1008E00040F203129043086008680122009213044A
:1008F000984308600868D307984308600F49086860
:10090000904308600E4900200190086002F090FDBD
:1009100000980199C00601F0C5FC02B080BDC04638
:1009200000100240041002400C00FF08FFFFC277D5
:10093000FFFFF2FE2C100240301002403410024043
:100940000810024080B582B01548164902F004FF35
:1009500001280AD1FFE7124802F0FCFD124B1A8869
:10096000511C198011498854FFE70D48104902F0C5
:10097000F3FE012811D1FFE70948019002F0EAFDDA
:10098000019809490B88094A0021D154094A0121DB
:100990001170074902F0C0FEFFE702B080BDC046FB
:1009A0000038014005000507361000203400002003
:1009B000040004073410002081B00146684601702D
:1009C00000214056002811D4FFE700216846415617
:1009D0001F200A4602400120904049098900044A2C
:1009E0008850BFF34F8FBFF36F8FFFE701B07047A1
:1009F00080E100E081B00146684601700021405668
:100A000000280DD4FFE70021684641561F200A4602
:100A100002400120904049098900024A8850FFE7BE
:100A200001B0704700E100E070B582B0024601A855
:100A30000270009100214056002816D4FFE70024E0
:100A400001A908570322D3431840174A8058095771
:100A50008C07E50EFF24AC40A043009CA401E4B247
:100A6000AC402043194088501AE001A908780F24AF
:100A7000204008380322D34318400A4A80580025F2
:100A800049578D07EE0EFF25B540A843009DAD01E7
:100A9000EDB2B54028432140083919408850FFE79E
:100AA00002B070BD1CED00E000E400E080B502F093
:100AB000D9FCE120400202F0B1FD01F0A4FC0146A6
:100AC00006480170007820B1FFE7064802F008FFF1
:100AD00003E0034802F004FFFFE780BD8D10002013
:100AE000E1420008D442000880B50248202101F00C
:100AF000A7FC80BD0800002080B502F0B3FCE12017
:100B0000400202F08BFD01F021FC01462C480170EF
:100B1000007868B1FFE70A4802F0E2FE094802F0F7
:100B2000DFFE0920C00648F2000101F042FA03E0AE
:100B3000024802F0D5FEFFE780BDC0461B43000817
:100B40000E4300082B43000880B582B01C48007893
:100B500098B3FFE76D2000F0CFFEC00768B3FFE752
:100B600000F09BFD17480190202100F0B1FE019894
:100B7000C07844280BD1FFE71348007830B9FFE76D
:100B800011490120087001F01BFBFFE703E00E494B
:100B900000200870FFE700F097FC00F08BFC00F0ED
:100BA00070FD0A490868401C0860094802F098FE78
:100BB0000448202101F0A4FB00E0FFE702B080BD63
:100BC0008C100020651000202900002088100020D3
:100BD0003843000880B582B00920C00641F2000108
:100BE00001F0F7F920BBFFE7142001F023F80920FA
:100BF000C00641F2000101F0ECF990B9FFE70E48A0
:100C0000007868B9FFE70C4901200090087001F0F6
:100C1000D7FA0A4802F064FE009801A9087007E0BC
:100C200005E005490020087001A9087000E0FFE711
:100C300001A8007802B080BD28000020E64300082B
:100C400080B584B0024602A8027001AA1170017832
:100C5000602000F0F1FB694600200870FFE768465D
:100C60000078632825DCFFE7642000F093F800F0AB
:100C7000EFF801A90978884204D1FFE703A9012010
:100C800008701AE002A8007840280CD1FFE76A201B
:100C900000F0D2F90007002804D5FFE703A90120DE
:100CA00008700AE0FFE7FFE70098401C69460870FB
:100CB000D5E703A900200870FFE703A8007804B077
:100CC00080BD80B56A20072100F0B6FB6B203F2174
:100CD00000F0B2FB80BD80B56C20012100F0ACFBC0
:100CE00080BD80B584B065202021029100F0A4FB76
:100CF0006720019000F0A0F90246019803A90A704C
:100D00000A78E0231A400A70039A0A231A430A70E9
:100D1000097800F091FB0299682000F08DFB04B087
:100D200080BD80B584B003AB1870029101A8027039
:100D3000694600200870FFE76846007801A9097835
:100D400088420FDAFFE7039869460A78801802990B
:100D5000895CC0B200F070FBFFE70098401C694658
:100D60000870E9E704B080BD80B50920C0061021F5
:100D700001F01FF980BD80B50920C006102101F0E7
:100D800010F980BD80B582B00190019800F052FF4B
:100D900002B080BD80B582B00190019800F084FF60
:100DA00002B080BD80B584B003A9019108700D2008
:100DB00000F042F90146019802AA1170007870B162
:100DC000FFE702988021084302A908700298402298
:100DD0001043087002982022104308700DE002A909
:100DE00008787F22104008700878BF2210400870F1
:100DF0000878DF2210400870FFE702A801780D2074
:100E000000F01AFB04B080BD80B582B0692000906C
:100E100000F012F90246009801A90A70019A042311
:100E20001A430A70019A01231A430A70097800F0E4
:100E300003FB02B080BD000080B57E48012101F0B7
:100E4000B8F880BD80B57B48012101F0AAF880BDCB
:100E500080B5612000F0F0F80F21084080BD80B51A
:100E600010200121FFF7ECFE80BD80B5022108466D
:100E7000FFF7E6FE80BD80B540200621FFF7E0FECB
:100E800080BD000080B56B48022101F0A2F8411E30
:100E9000884180BD80B58AB000F0ACF900F093F9CC
:100EA0001420FFF76FFF3249002008900C220192B6
:100EB000FFF737FF019A2F491046FFF732FF2E49FF
:100EC000182002900822FFF72CFF029A2B492020BD
:100ED0000490FFF726FF2A4938201D22FFF721FF43
:100EE000284955200B22FFF71CFF6120039000F0DA
:100EF000A3F80246039809A906910A70099A1023DB
:100F00001A430A700A78DF231A400A70097800F041
:100F100093FA6220059000F08FF8049B0699024630
:100F200005980A70099A1A430A70097800F084FA41
:100F30000920079000F080F80699024607980A7089
:100F40000A78F8231A400A70099A02231A430A7091
:100F5000097800F071FA0898FFF724FFFFF7C1FE47
:100F6000FFF7AFFEFFF77BFF01200AB080BDC04650
:100F70001542000841420008394200082142000899
:100F8000F84100084D42000880B58AB02748029019
:100F900001F0C2FB2648019001F0BEFB019801F070
:100FA000BBFB019801F0B8FB029801F0B5FB0920EA
:100FB000C006059001210491002209921023039399
:100FC00001F01CF8039B059809990322069201F091
:100FD0005CF8049B099A17480890194601F00EF82E
:100FE000049B069A0898099901F04FF8049905980E
:100FF000099A2023079301F001F80598069A079BA8
:10100000099901F042F800F046F80898099A02237D
:10101000114600F0F3FFFFF7A7FEFFF70DFF00F00A
:101020001CF800F021F80AB080BDC046120500008F
:10103000110500000004004880B582B0014601A8F7
:101040000170007800F0E6F802B080BD80B509209C
:10105000C006202100F0ADFF80BD80B50920C0068C
:10106000202100F09EFF80BD80B50920C0068021B0
:1010700000F09FFF80BD80B50920C006002101223D
:10108000802300F0BBFF80BD80B50920C006802111
:1010900000F087FF80BD80B584B00920C0060190B4
:1010A0000121002202928023039300F0A7FF019800
:1010B0000299039B032200F0E8FF04B080BD80B5D5
:1010C0000920C006802100F084FF411E884180BDB8
:1010D00080B586B0049003A801700292049848B1CC
:1010E000FFE703A8007828B1FFE703A800784128AC
:1010F00004DBFFE705A9002008704AE0FFF7B5FE12
:10110000FFF7DFFDFFF780FEFFF7E5FD049803A979
:10111000097800F07DF96E20FFF78EFF014601A8E7
:10112000017000788007002806D4FFE7FFF797FEDC
:1011300005A9002008702CE0FFF79DFEFFE702984C
:10114000411E0291F8B1FFE7FFF79CFE40B1FFE7B7
:10115000FFF7B7FDFFF783FE05A90120087018E02F
:101160006A20FFF769FF0007002808D5FFE7FFF7AF
:10117000A8FDFFF774FE05A90120087009E0012011
:10118000FFF700FEDBE7FFF76AFE05A90020087005
:10119000FFE705A8007806B080BD80B582B00146A3
:1011A00001A801700178632000F046F902B080BD0B
:1011B00080B582B0014601A801700178642000F07A
:1011C0003BF902B080BD80B57F20FF2100F034F9EB
:1011D00080BD81B014200090FFE70098411E00916F
:1011E00008B1FFE7F9E701B0704780B50120FFF7CC
:1011F000D1FD80BD80B5FFF7C7FEFFF7B5FDFFF756
:101200001BFEFFF72AFFFFF746FFFFF72DFFFFF753
:10121000E0FF80BD80B584B003A900910870FFF79E
:101220003AFFFFF721FFFFF718FFFFF705FEFFF773
:10123000A2FDFFF7CEFFFFF7CCFF009800788021DA
:10124000084300F044F8FFF716FF00F013F802A976
:1012500001910870FFF701FFFFF7BBFFFFF7B9FF30
:10126000FFF782FDFFF707FFFFF7E6FD0198007823
:1012700004B080BD80B582B069460020087001A925
:101280000870FFE701A8007807281CDCFFE7FFF7DC
:10129000E4FEFFF79EFF0098400069460870FFF7E4
:1012A000D5FEFFF70CFF30B1FFE70098012108439E
:1012B00069460870FFE7FFF78CFFFFE70198401CC5
:1012C00001A90870DEE76846007802B080BD80B5ED
:1012D00082B001A90870694600200870FFE76846DF
:1012E000007807281EDCFFE7FFF7B7FE01A80078AB
:1012F0000006002803D5FFE7FFF7B6FE02E0FFF780
:10130000C3FEFFE7FFF765FF0198400001A90870E1
:10131000FFF79CFEFFF75DFFFFE70098401C694662
:101320000870DCE702B080BD80B584B0039002A8ED
:101330000180FFF719FDFFF77FFDFFF78EFEFFF736
:10134000AAFE01A900200880FFE701A8008802A9E1
:101350000988884226DAFFE7FFF774FDFFF739FFB7
:10136000FFF737FF039801A90988405CFFF7AFFF3B
:10137000FFF773FEFFF739FFFFF737FFFFF735FF82
:10138000FFF75AFDFFF731FFFFF72FFFFFF72DFFA4
:10139000FFF72BFFFFF729FFFFE70198401C01A98A
:1013A0000880D2E7FFF767FEFFF746FD04B080BD77
:1013B00080B584B003AA0092107002A80190017059
:1013C000FFF769FEFFF750FEFFF747FEFFF734FD1A
:1013D000FFF7D1FCFFF7FDFEFFF7FBFE009800785A
:1013E0007F210840FFF773FF01980078FFF76FFF38
:1013F000FFF733FEFFF7EDFEFFF7EBFEFFF7B4FC60
:10140000FFF732FEFFF737FEFFF716FD04B080BD91
:1014100080B582B00190684601700078412804DBF5
:10142000FFE7694640200870FFE7019869460978A0
:10143000FFF77AFF02B080BD80B582B00A46014650
:1014400001A8017069460A7000780978FFF7B0FFBB
:1014500002B080BD80B584B0024602A8027001AA25
:1014600011700178602000F0D6FB694600200870FA
:10147000FFE768460078632814DCFFE7642000F08B
:1014800095F800F0F7F801A90978884204D1FFE740
:1014900003A90120087009E0FFE70098401C694695
:1014A0000870E6E703A900200870FFE703A80078AA
:1014B00004B080BD80B56A20072100F0ACFB6B2032
:1014C0003F2100F0A8FB80BD80B56C20022100F018
:1014D000A2FB80BD80B5664844F2000100F069FDC2
:1014E00080BDC04680B5F94844F2000100F059FDC6
:1014F00080BDC04680B584B06520202100F08BFB04
:101500006720019000F0F8F90246019803A90A70DB
:101510000A78E0231A400A70039A192302931A43A7
:101520000A70097800F077FB0299682000F073FBDD
:1015300004B080BD80B584B003AB1870029101A8DF
:101540000270694600200870FFE76846007801A92C
:10155000097888420FDAFFE7039869460A7880180D
:101560000299895CC0B200F056FBFFE70098401C6E
:1015700069460870E9E704B080BD000080B5F04816
:1015800042F2000100F015FD80BDC04680B5F7486D
:1015900042F2000100F005FD80BDC04680B582B07A
:1015A0000190019800F046FB02B080BD80B582B08A
:1015B0000190019800F078FB02B080BD80B584B046
:1015C00003A9019108700D2000F096F901460198D9
:1015D00002AA1170007870B1FFE7029880210843D9
:1015E00002A9087002984022104308700298202235
:1015F000104308700DE002A908787F22104008709F
:101600000878BF22104008700878DF221040087068
:10161000FFE702A801780D2000F0FDFA04B080BDBC
:1016200080B582B06920009000F066F9024600980B
:1016300001A90A700A78FE231A400A700A78FB236F
:101640001A400A70097800F0E6FA02B080BD000086
:1016500080B5D24841F2000100F0ABFC80BDC0462D
:1016600080B5CE4841F2000100F09BFC80BDC04631
:101670000004004880B5612000F03EF90F210840C9
:1016800080BD80B508200521FFF7E4FE80BD80B550
:1016900010200121FFF7DEFE80BD80B50221084643
:1016A000FFF7D8FE80BD000080B58CB000F0A5F932
:1016B00000F08CF91420FFF771FFFFF7EEFF01280F
:1016C00004D0FFE70BA9002008706AE061200190B8
:1016D00000F012F9024601980AA907910A700A9AC5
:1016E00010231A430A700A78DF231A400A70097817
:1016F00000F091FA6220029000F0FEF8079902468D
:1017000002980A700A9A202305931A430A700978EE
:1017100000F081FA00200390FFF750FFFFF7CAFEA8
:10172000039822490C220492FFF704FF049A2049EF
:101730001046FFF7FFFE1F49182006900822FFF70A
:10174000F9FE0598069A1C49FFF7F4FE1B4938205C
:101750001D22FFF7EFFE1A4955200A22FFF7EAFE85
:1017600018495F2001220992FFF7E4FE0920089042
:1017700000F0C2F80799024608980A700A78F82320
:101780001A400A700A9A02231A430A70097800F074
:1017900042FAFFF7AFFEFFF77AFF09980BA908702E
:1017A000FFE70BA800780CB080BDC046754200086A
:1017B000A2420008994200088142000858420008ED
:1017C000AE420008A142000880B586B048200190D2
:1017D00000F092F80146019804AA00921170AA2123
:1017E00000F019FA019800F087F800990246019874
:1017F00003AB02931A70097800F00DFA0298007892
:10180000AA2804D1FFE705A90120087003E005A973
:1018100000200870FFE705A8007806B080BD000032
:1018200080B588B02848009000F076FF009800F05E
:1018300073FF009800F070FF009800F06DFF0098B3
:1018400000F06AFF5548069001210391002207929B
:1018500041F20003019300F0D1FB019B0698079928
:101860000322049200F011FC03990698079A42F2B1
:101870000003029300F0C2FB029B049A06980799AA
:1018800000F003FC03990698079A44F200030593BD
:1018900000F0B4FB049A059B0698079900F0F5FB4D
:1018A00000F050F80698079A40F20043114600F005
:1018B000A5FBFFF763FEFFF7CBFEFFF713FE00F07B
:1018C00025F808B080BDC04612050000000400489D
:1018D00080B582B00190684601700078412804DB31
:1018E000FFE7694640200870FFE7019869460978DC
:1018F00000F093F802B080BD80B582B0014601A827
:101900000170007800F0CDF802B080BD80B52348AA
:1019100048F2000100F04DFB80BDC04680B51F4875
:101920000021012248F2000300F068FB80BDC046A0
:1019300080B51A4848F2000100F033FB80BDC04674
:101940000004004880B584B01448019001210022B1
:10195000029248F20003039300F050FB01980299B1
:10196000039B032200F091FB04B080BD00040048FB
:1019700080B582B0094848F2000100F02AFB20B18E
:10198000FFE701A90120087003E001A90020087009
:10199000FFE701A8007802B080BDC04600040048FF
:1019A00080B582B0014601A801700178632000F083
:1019B00032F902B080BD80B582B0014601A8017045
:1019C0000178642000F027F902B080BD80B57F2047
:1019D000FF2100F020F980BD81B014200090FFE7C6
:1019E0000098411E009108B1FFE7F9E701B0704788
:1019F00080B50120FFF7DAFD80BD80B5FFF710FF4D
:101A0000FFF7BCFDFFF724FEFFF76CFDFFF79AFF21
:101A1000FFF77CFFFFF7E0FF80BD80B584B0039047
:101A200002A80180FFF714FEFFF7A8FDFFF75AFD9B
:101A3000FFF774FF01A900200880FFE701A80088D4
:101A400002A90988884226DAFFE7FFF709FEFFF7B7
:101A5000C3FFFFF7C1FF00F054F8039901AA1288F1
:101A60008854FFF73FFDFFF7C3FFFFF7C1FFFFF704
:101A7000BFFFFFF7EDFDFFF7BBFFFFF7B9FFFFF774
:101A8000B7FFFFF7B5FFFFF7B3FFFFE70198401C73
:101A900001A90880D2E7FFF741FFFFF7D9FD04B0A5
:101AA00080BD80B584B003A900910870FFF74AFF9C
:101AB000FFF72CFFFFF716FDFFF7CAFDFFF766FDE6
:101AC000FFF78AFFFFF788FF00980078802108431E
:101AD00000F044F8FFF722FF00F013F802A901918B
:101AE0000870FFF7FFFCFFF777FFFFF775FFFFF7C1
:101AF00045FDFFF713FFFFF7ABFD0198007804B039
:101B000080BD80B582B069460020087001A90870C8
:101B1000FFE701A8007807281CDCFFE7FFF7E2FCDD
:101B2000FFF75AFF0098400069460870FFF7D2FCA3
:101B3000FFF71EFF30B1FFE7009801210843694617
:101B40000870FFE7FFF748FFFFE70198401C01A975
:101B50000870DEE76846007802B080BD80B582B0CC
:101B600001A90870694600200870FFE76846007800
:101B700007281EDCFFE7FFF7B5FC01A80078000688
:101B8000002803D5FFE7FFF7C1FE02E0FFF7D0FE14
:101B9000FFE7FFF721FF0198400001A90870FFF758
:101BA00099FCFFF719FFFFE70098401C6946087091
:101BB000DCE702B080BD80B584B003AA009210704B
:101BC00002A801900170FFF7BDFEFFF79FFEFFF72F
:101BD00089FCFFF73DFDFFF7D9FCFFF7FDFEFFF79E
:101BE000FBFE009800787F210840FFF7B7FF0198BF
:101BF0000078FFF7B3FFFFF775FCFFF7EDFEFFF787
:101C0000EBFEFFF7BBFCFFF781FEFFF787FEFFF758
:101C10001FFD04B080BD80B582B00A46014601A810
:101C2000017069460A7000780978FFF7C4FF02B0B6
:101C300080BD000080B584B003900398FEF70AFBD6
:101C400018490968FEF78BFAFEF70BFB3349086069
:101C5000334900200860334901200860FFE731481C
:101C600000680290FFE7002002A90978C9070190E7
:101C700041B1FFE702A88078012108404142484174
:101C80000190FFE70198C0070028E8D1FFE7254948
:101C9000086801229043086021490020086004B0D0
:101CA00080BDC0462C00002080B584B0039003980E
:101CB000FEF7D0FA18490968FEF751FAFEF7D1FA93
:101CC000164908601649002008601649012008607E
:101CD000FFE7144800680290FFE7002002A9097896
:101CE000C907019041B1FFE702A8807801210840AF
:101CF000414248410190FFE70198C0070028E8D120
:101D0000FFE7084908680122904308600449002061
:101D1000086004B080BDC0463000002014E000E040
:101D200018E000E010E000E081B000900098474922
:101D3000086001B07047C0466349086880221043BC
:101D40000860704780B584B003900F20000400F055
:101D500027F8014602A801700078D0B9FFE75A4978
:101D600001910868022200921043086003980B4A10
:101D7000106008684022104308600F20000400F043
:101D80000FF8009A019902AB187008689043086038
:101D9000FFE702A8007804B080BDC04614200240CE
:101DA00080B584B0039002A901200870FFE700F01D
:101DB00025F802A908700398401E0390FFE702A8C7
:101DC000017800200129019005D1FFE70398411E09
:101DD00088410190FFE70198C0070028E7D1FFE79D
:101DE00002A80078012804D1FFE702A905200870A5
:101DF000FFE702A8007804B080BD000081B069460A
:101E00000020087011480068C00720B1FFE769464C
:101E10000120087015E00D480068C006002804D5B0
:101E2000FFE76946042008700AE008480068400798
:101E3000002804D5FFE7694602200870FFE7FFE7A6
:101E4000FFE76846007801B07047C0460C200240AA
:101E50001D4800680006002806D5FFE7034904482E
:101E6000086004480860FFE77047C046042002404D
:101E700023016745AB89EFCD80B586B0059004910D
:101E80000F200004FFF78CFF014603A801700078C3
:101E9000B0B9FFE70C490291086801220192104392
:101EA00008600498059908600F200004FFF778FF88
:101EB000019A029903AB1870086890430860FFE725
:101EC00003A8007806B080BD1020024080B582B023
:101ED0000190009101A8007801F094FC019802B0F3
:101EE00080BD86B00590049103920598006A019028
:101EF0000598406A009002A900200880FFE702A828
:101F0000008807281DD8FFE702A801880398C84069
:101F1000C00780B1FFE702A8018889000F228A402C
:101F200001999143019104990088800081400198B2
:101F300008430190FFE7FFE70298401C02A90880D0
:101F4000DDE702A908200880FFE702A800880F2823
:101F50001FD8FFE702A801880398C840C00790B1C6
:101F6000FFE702A80188890020390F228A400099E2
:101F700091430091049900888000203881400098A6
:101F800008430090FFE7FFE70298401C02A9088081
:101F9000DBE701980599086200980599486206B048
:101FA000704782B00190009100980199886202B058
:101FB000704782B00190009100980199886102B049
:101FC000704782B00190009100980199C86202B0F8
:101FD000704783B001900091019800690099084210
:101FE00004D0FFE702A90120087003E002A9002045
:101FF0000870FFE702A8007803B0704787B006902A
:102000000591049203930698006801900698C068B1
:10201000009002A900200880FFE702A800880F288E
:102020002BD8FFE702A801880398C840C007F0B189
:10203000FFE702A801884900032213468B4001995B
:1020400099430191059B018849008B4001991943EF
:102050000191018849008A400099914300910499B7
:10206000008840008140009808430090FFE7FFE7A8
:102070000298401C02A90880CFE7019806990860E1
:1020800000980699C86007B0704710B586B00590F3
:1020900004A80170039202930078012806D1FFE79B
:1020A000029A059948681043486005E0029A05992C
:1020B000486890434860FFE705988068009001A950
:1020C00000200880FFE701A800880F281DD8FFE73F
:1020D00001A801880298C840C00780B1FFE701A8A5
:1020E0000188490003228A40009991430091039995
:1020F000008840008140009808430090FFE7FFE718
:102100000198401C01A90880DDE7009805998860C6
:1021100006B010BD80B584B0784800F0FDFA092003
:10212000C006019000210291012303931A46FFF794
:1021300065FF01980299039A41F20003FFF75EFFE1
:1021400004B080BD80B582B00920C0060121FFF730
:1021500040FFC8B9FFE70F20FFF76CFD0920C0065C
:102160000121FFF736FF70B9FFE71348007848B93F
:10217000FFE712494420C8700F490120087001A9E7
:10218000087015E0FFE70FE00B48007801280AD13E
:10219000FFE70A494020C87007490020087001A9DC
:1021A0000220087004E0FFE701A900200870FFE7A3
:1021B00001A8007802B080BD641000200800002053
:1021C00080B50920C00648F20001FFF7FAFE80BD85
:1021D00080B584B00020039000F074F8FEF766FC30
:1021E00064200190FFF726FDFEF786FC0198FFF7BB
:1021F00021FDFFF78FFF01F07DF830B9FFE700F018
:102200009BFF6420FFF716FDFFE7FFE7FFF79AFF4C
:1022100002A90091087000F0D3FF0098007801280F
:1022200008D1FFE7FEF760FC0C4801F059FB00F015
:1022300063FF0BE002A80078022806D1FFE7FEF753
:1022400053FC054801F04CFBFFE7FFE7FEF7C2FC3B
:10225000FEF77AFCDAE7C046B8420008C742000839
:1022600080B582B0014601A8017000214056FEF7FA
:10227000A3FB02B080BD80B584B00A46014603A826
:102280000190017002A90A7000220092805609781C
:10229000FEF7CAFB009901984056FEF7ABFB04B06D
:1022A00080BD000082B00190009101980099034A1E
:1022B000114008430249086002B0704780FFFF1FC9
:1022C00008ED00E080B584B00C4800F025FA092044
:1022D000C006029001210022019248F200030393FC
:1022E000FFF78CFE01990298039B0322FFF7CDFEB6
:1022F00002980399FFF75DFE04B080BD1105000050
:1023000080B584B0039002A8017001A90020087074
:10231000FFE701A8007802A9097888420DDAFFE7F3
:10232000039801A90978415C074801F0D9FAFFE751
:102330000198401C01A90870EBE7024801F0D0FAAF
:1023400004B080BDE34300080843000880B582B0B4
:10235000FFF7AAF9012804D0FFE701A900200870BF
:1023600023E0FFF731FA012804D0FFE701A900209C
:1023700008701AE0FFF791F92820FFF71CFB0020F6
:10238000FFF70EFBFFF74CF9FFF794F8FFF79CF807
:10239000FFF777F9012804D0FFE701A900200870B2
:1023A00003E001A901200870FFE701A8007802B04E
:1023B00080BD80B582B001A900910870FFF76DF96A
:1023C00000980078FFF7ECFAFFF72AF9FFF772F8A8
:1023D000FFF77AF8FFF755F902B080BD80B582B0FB
:1023E00001A900910870FFF758F900980078FFF7ED
:1023F000E2FAFFF715F9FFF75DF8FFF765F8FFF769
:1024000040F902B080BD80B582B0FEF743FD0128DF
:1024100004D0FFE701A9002008700DE0FEF725FDBC
:102420002820FEF7C5FE0020FEF7B7FEFEF717FDD9
:1024300001A901200870FFE701A8007802B080BD63
:1024400080B584B0019101460198039102A90870FA
:102450000398097840F2E832FEF73AFE04B080BDF6
:1024600080B582B001A900910870FEF7FEFC0098CB
:102470000078FEF792FEFEF7F2FC02B080BD80B558
:1024800082B001A900910870FEF7EFFC0098007877
:10249000FEF78EFEFEF7E3FC02B080BD9CB01BA9E8
:1024A0000870002001901A901990189017901690BB
:1024B0001590149013901290119010900F900E9010
:1024C0000D900C900B908B490A918B4909910890C3
:1024D00007900691059004910390884800680C21AC
:1024E000084080081A901A98029040B1FFE70298BD
:1024F000012807D0FFE70298022806D044E082486E
:10250000169044E08048169041E07C4801680F2214
:1025100092041140890C109100680121C9060840FD
:10252000C00E0F900F98012804D1FFE710981130CA
:1025300010900BE010980F2803D1FFE710201090A7
:1025400003E01098801C1090FFE7FFE76B480068DD
:10255000012109040840000C0E900E9870B1FFE7AD
:10256000684800680F210840401C0D900D9966488E
:10257000B0FBF1F110984843169004E010996048C0
:1025800048431690FFE702E05F481690FFE75B487C
:102590000168C9B209090C910C9A07A9895C0B91D1
:1025A00016990B9AD1401591016840F200721140C2
:1025B000090A0C910C9A05A9895C0B9115990B9A43
:1025C000D1401491006843F600010840C00A0C9005
:1025D0000C9903A8405C0B9015980B99C840139078
:1025E0001BA800780090052800D97FE000998A0098
:1025F00001A080188746C04600F00AB800F00BB86A
:1026000000F00CB800F00DB800F00EB800F040B8C3
:10261000169817906BE01598179068E0149817902B
:1026200065E01398179062E03848006840F20011A6
:10263000084088420FD0FFE73448006801210904B0
:102640000840884203D0FFE73248129002E0304849
:102650001290FFE719E02948006880B2800B1990BA
:102660002A480068C00F1890189838B1FFE71598ED
:102670001999491CB0FBF1F0129005E013981999D3
:10268000B0FBF1F01290FFE7FFE7129817902EE0F1
:102690001E480068800718B9FFE71398119022E0E0
:1026A0001A48006803210840012803D1FFE7169863
:1026B000119017E01548006803210840022804D152
:1026C000FFE748F2000011900BE01048006803217A
:1026D0000840032803D1FFE70B48119000E0FFE713
:1026E000FFE7FFE7FFE71198179000E0FFE7179873
:1026F0001CB07047060708090102030404100240D9
:1027000000093D002C10024000127A0030100240F7
:10271000003FAB01809FD50081B001466846018033
:1027200000881F220146114001238B408109154A70
:1027300088581843885001B07047C04681B00146A0
:102740006846018000881F220146114001238B400A
:1027500081090C4A88589843885001B07047C04698
:1027600081B001466846018000881F220146114061
:1027700001238B408109034A88581843885001B0CF
:102780007047C0460010024080B586B0059005989D
:102790002C210491FDF7CBFC0498059A1249116095
:1027A000059A01219180059AD0800598083064220D
:1027B00001920092282202921023039300F016F84F
:1027C0000199029A039B059818300091022100F0AC
:1027D0000DF80499059A00201085059800F004F979
:1027E0000599088506B080BD43464652B0B586B00F
:1027F00004460A98059404AC217003A90A7002A942
:102800000B7001A9087005990020C86088604860B5
:102810000860059A71491160059A01219180059A15
:102820001121D1800499059A11720399059A517268
:102830000299059A91720199059AD1720599888138
:102840000598102100F0D0F80599888106B0B0BD38
:1028500082B00A46014601A8017069460A700078F4
:1028600009784143024848430249401802B0704782
:10287000C40900000018DD1980B582B000900098EE
:1028800000F040F8012807D0FFE71D4801F028F8C4
:1028900001A9002008702BE00098007A01280FD1D0
:1028A000FFE70098407AFFF7EAFD0098807AFFF78B
:1028B000D7FD124801F014F801A90120087017E0B3
:1028C0000098007A02280FD1FFE70098407AFFF7BE
:1028D00085FD0098807AFFF76CFD074801F000F84D
:1028E00001A90120087003E001A900200870FFE79A
:1028F00001A8007802B080BDF34300082C44000812
:102900008044000883B00190019820B9FFE702A934
:10291000002008705DE0019800683049884204D0CA
:10292000FFE702A90020087053E001988088012881
:1029300004D0FFE702A9002008704AE00198007A5D
:10294000012809D0FFE70198007A022804D0FFE7A8
:1029500002A9002008703CE00198407A20B9FFE706
:1029600002A90020087034E00198C07A20B9FFE77E
:1029700002A9002008702CE00198C07A652804DBC9
:10298000FFE702A90020087023E00199887AC97A3C
:10299000884204DBFFE702A90020087019E00199D2
:1029A000487AC97A491E4143192048430A21B0FB9D
:1029B000F1F00B494018009000980A49884204D36E
:1029C000FFE702A90020087003E002A901200870B7
:1029D000FFE702A8007803B07047C046474346525D
:1029E000009F0600ADC5060086B0049003A80180D4
:1029F00002A925480880049820B9FFE705A900200E
:102A000008803CE001A900200880FFE701A80088B9
:102A100003A9098888422EDAFFE7049801A90988EA
:102A2000415C0298484002A908806946002008706D
:102A3000FFE768460078072817DCFFE702A8008850
:102A4000C00738B1FFE702A9088840080F4A504084
:102A5000088004E002A9088840080880FFE7FFE733
:102A60000098401C69460870E3E7FFE70198401CA6
:102A700001A90880CAE7029805A90880FFE705A810
:102A8000008806B07047C046FFFF000001A00000AC
:102A900070B594B0044612A8047011AC217010A94E
:102AA0000A700FA90B70484A04A938CA38C178CAFD
:102AB00078C178CA78C10078012805D0FFE712A84C
:102AC0000078032818D1FFE704A80830039011A963
:102AD0000A7810A90B780FA9097800910121FFF756
:102AE00085FE0398FFF70EFF012804D0FFE713A926
:102AF0000020087063E0FFE712A80078022805D0E4
:102B0000FFE712A80078032818D1FFE704A81830BF
:102B1000029011A90A7810A90B780FA909780091E1
:102B20000221FFF763FE0298FFF7ECFE012804D0B4
:102B3000FFE713A90020087041E0FFE704A800F0B8
:102B40008BF820B9FFE713A90020087037E012A81E
:102B50000078012805D0FFE712A8007803280CD1DF
:102B6000FFE704A80830FFF787FE012804D0FFE73D
:102B700013A90020087022E0FFE712A800780228BD
:102B800005D0FFE712A8007803280CD1FFE704A8BE
:102B90001830FFF771FE012804D0FFE713A90020C9
:102BA00008700CE0FFE7084804A91CC91CC03CC918
:102BB0003CC03CC93CC013A901200870FFE713A822
:102BC000007814B070BDC0463810002083B001906A
:102BD00068460170019820B1FFE70198006820B9AC
:102BE000FFE702A90020087013E001980068007850
:102BF00069460978884204D0FFE702A900200870DE
:102C000007E001990868401C086002A901200870CB
:102C1000FFE702A8007803B070470000B0B584B0A9
:102C20000290029820B9FFE703A9002008700FE086
:102C300048480190029801991CC91CC03CC93CC07D
:102C40003CC93CC0029800F087F803A90870FFE770
:102C500003A8007804B0B0BD80B594B0129012986B
:102C600020B9FFE713A9002008706EE012996C48A4
:102C7000086012990120888012982C21C180129A34
:102C800000205085129A10851298FFF7ADFE129918
:102C90000885FFF7DDF83C20FFF746F82D48FFF7E1
:102CA00051F801460EA80170007830B1FFE7FFF738
:102CB00043F813A90020087047E02648119000202F
:102CC0001090FFE710982B2825D8FFE71299109A4B
:102CD00088188A5C41780902891882781204C078C1
:102CE0000006801840180F901198109940180F99FD
:102CF000FFF7C2F801460EA80170007830B1FFE777
:102D0000FFF71AF813A9002008701EE0FFE71098DB
:102D1000001D1090D6E7FFF70FF803A802900D49A9
:102D20002C220192FDF7EAF9019A02981299FDF717
:102D300009FA20B1FFE713A90020087005E003A8F5
:102D400000F00AF813A90870FFE713A8007814B080
:102D500080BDC04600FC000870B590B00E900E9883
:102D600020B9FFE70FA90020087054E00E98006812
:102D70002B49884204D0FFE70FA9002008704AE0E1
:102D80000E988088012804D0FFE70FA90020087062
:102D900041E00E98C0882C2804D0FFE70FA900203E
:102DA000087038E00E9A03A8014638CA38C178CABC
:102DB00078C178CA78C10D9902AA009211800021C9
:102DC00001852C21FFF710FE0246009801A90A8018
:102DD00000880988884204D0FFE70FA90020087006
:102DE00019E003A80830FFF78DFD012804D0FFE7A4
:102DF0000FA9002008700EE003A81830FFF782FD2D
:102E0000012804D0FFE70FA90020087003E00FA9F4
:102E100001200870FFE70FA8007810B070BDC04611
:102E20004346465280B58CB00B900B9808B9FFE72B
:102E30003AE063200190FEF7FFF80AA903910870B9
:102E400064200290FEF7F8F80146019809AA04925E
:102E50001170FEF751FD0146029808AA0592117003
:102E6000FEF74AFD03990246049807AB06931A70D1
:102E70000A9A0B9B5A70099A0B9B1A700078097872
:102E8000FFF7E6FC0599024606980B9B5A60089AE4
:102E90000B9B5A72079A0B9B1A7200780978FFF7FE
:102EA000D7FC0B99C860FFE70CB080BD10B586B0A9
:102EB000089C0490039102920193049860B1FFE78B
:102EC000039848B1FFE7029830B1FFE7019818B1C5
:102ED000FFE7089820B9FFE705A900200870A7E0E0
:102EE000049800900098007853280FD1FFE70098CD
:102EF000407845280AD1FFE700988078542805D10A
:102F0000FFE70098C0782C2804D0FFE705A900202F
:102F100008708DE00098001D0090009800785428FB
:102F200011D1FFE70098407858280CD1FFE70098AE
:102F300080782C2807D1FFE70399012008700098BA
:102F4000C01C00903BE000980078522811D1FFE7A8
:102F50000098407858280CD1FFE7009880782C28FA
:102F600007D1FFE70399022008700098C01C009069
:102F700024E00098007842281BD1FFE700984078B1
:102F80004F2816D1FFE700988078542811D1FFE729
:102F90000098C07848280CD1FFE7009800792C28C9
:102FA00007D1FFE70399032008700098401D0090A7
:102FB00003E005A9002008703AE0FFE7FFE7029967
:102FC000684600F039F820B9FFE705A9002008702D
:102FD0002EE068462C21FFF7F9FD20B9FFE705A98F
:102FE0000020087024E00199684600F025F820B917
:102FF000FFE705A9002008701AE068462C21FFF7BA
:10300000E5FD20B9FFE705A90020087010E0089948
:10301000684600F011F820B9FFE705A90020087004
:1030200006E0009800784142484105A90870FFE792
:1030300005A8007806B010BD89B00790069104A9D4
:103040000020088003A90870079838B1FFE70798A7
:10305000006818B1FFE7069820B9FFE708A900202B
:10306000087045E0079800680590FFE7059801782B
:103070000020302902900DDBFFE705980178012040
:10308000002200923A29019001DB009801900198FA
:103090000290FFE70298C007C0B1FFE704980A2139
:1030A0004143059800784118303904A801800399FC
:1030B000491C03AA1170407820B1FFE708A900203D
:1030C000087015E00598401C0590CFE703A800782C
:1030D00020B9FFE708A90020087009E004980699C4
:1030E000087005980799086008A901200870FFE793
:1030F00008A8007809B0704780B588B004A803908C
:10310000FFF790FE039802784378059801900093AA
:103110000748114600F0E4FB0398027A437A0798C7
:10312000019000930348114600F0DAFB08B080BD1F
:10313000994300084C43000880B586B01C480290B3
:1031400002A80190012282801121C18028214172B0
:10315000102181726423C372027200228281FFF700
:1031600043FC014601988181FFF786FB012804D0CA
:10317000FFE7124800F0B4FB18E002A8009002211B
:103180000172002181811021FFF72EFC0146009879
:103190008181FFF771FB012804D0FFE7064800F0AA
:1031A0009FFB03E0034800F09BFBFFE706B080BDF8
:1031B00047434652124400085F4400084B4400084D
:1031C00080B59AB04648007808B9FFE785E01B2033
:1031D000FFF746F84348018809A8018000883F2886
:1031E00007D8FFE709A802883F490AA8FCF786FF2D
:1031F000FFE73C4900200880394908703A490870C7
:103200001B200221FFF737F809A8008828B1FFE743
:1032100009A80088402804D3FFE7344800F00AFBDF
:103220005BE009A802880AA900208854099808A927
:103230000880FFE708A8018800200290C9B1FFE7D5
:1032400008A800880AA94018401E017801200D290D
:1032500001900BD0FFE708A800880AA94018401E7B
:1032600000780A38414248410190FFE701980290F6
:10327000FFE70298C00728B1FFE70898401E08A999
:103280000880D7E708A802880AA80021815404A969
:10329000009107A906AA05ABFFF708FE014603A89F
:1032A0000170007868B1FFE707A8007806A90978DF
:1032B00005AA127804AB1B78FFF7EAFB03A9087094
:1032C000FFE703A8007820B1FFE7094800F0B2FA51
:1032D00003E0064800F0AEFAFFE71AB080BDC04632
:1032E000341000203610002034000020E94200088D
:1032F000DC42000880B582B01448FFF78FFC38B973
:10330000FFE71248FFF740FA01A90020087019E012
:103310000E480830FFF7B0FA012804D0FFE701A9F2
:10332000002008700EE009481830FFF7A5FA0128C0
:1033300004D0FFE701A90020087003E001A90120E3
:103340000870FFE701A8007802B080BD38100020A7
:1033500084B00020039002903149086801221204D1
:1033600010430860FFE70398401C03902C48006856
:103370000121490408400290FFE7029900200190D2
:1033800041B9FFE7039840F60001401A411E884109
:103390000190FFE70198C0070028E4D1FFE720482B
:1033A00000688003002802D4FFE7FFE7FEE71D491D
:1033B0000868022210430522904308601A490091D0
:1033C0000868086008680860086808600868174AA4
:1033D0001040086008681D2212041043086010495C
:1033E00008680122120610430860FFE70C480068D5
:1033F0008001002801D4FFE7F8E70B4908680322A1
:10340000904308600868022210430860FFE70648FE
:1034100000680007002801D4FFE7F8E704B0704710
:10342000001002400020024004100240FFFFC2775B
:1034300080B5FFF78DFF80BD81B000900098042813
:1034400006D1FFE70649086804221043086005E03A
:1034500003490868042290430860FFE701B0704701
:1034600010E000E080B50420C043FFF7E5FF084806
:103470000068FCF7EFFE0749FCF7AEFE0146064880
:10348000016000680549FCF76AFE0549086080BDD7
:10349000040000200024F44A3000002000007A4498
:1034A0002C00002080B588B0079006910020059080
:1034B00004900390029007980190414988420AD0F5
:1034C000FFE70198D94988420AD1FFE70520FEF7B6
:1034D000E5FF059005E00220FEF7E0FF059000E023
:1034E000FFE7079800680004002818D5FFE7059853
:1034F000400006994A088018B0FBF1F0029002984B
:1035000013490840049002980007400F039004A854
:10351000008803A9098808430799C86016E0059840
:1035200006994A088018B0FBF1F002900298084909
:103530000840049002980F210840039004A80088D6
:1035400003A9098808430799C860FFE708B080BD50
:10355000F0FF000081B000900098406A06490840E2
:1035600001B0704782B00190009100980249084074
:103570000199886202B07047FF01000080B584B0F5
:103580000390039802900E4988420DD0FFE70298FD
:10359000A649884210D1FFE70B480190FFF7E0F8F9
:1035A0000198FFF7CBF808E006480090FFF7D8F83D
:1035B0000098FFF7C3F800E0FFE704B080BDC04605
:1035C00000440040110400000E03000081B0009090
:1035D0000099086801221043086001B0704784B068
:1035E000009101460098029101A9088002980A887A
:1035F0009209805809881F221140C840C00720B195
:10360000FFE703A90120087003E003A90020087068
:10361000FFE703A8007804B07047000080B58CB0C5
:103620000B9032480190FFF777F80198FFF774F894
:103630002F48FFF771F80920C0060490012102917C
:1036400040F200220392FEF74CFC0299049840F2EB
:1036500000420692FEF745FC029A039B0498022161
:103660000891FEF7CBFC029A0498069B0899FEF796
:10367000C5FC039B04980021079103220592FEF7E5
:1036800004FD0498059A069B0799FEF7FEFC67481F
:103690000990FFF773FF09980B99FFF703FF07994C
:1036A000099800F08AF80799099800F003F907993A
:1036B000099800F0DBF80998FFF788FF09980821BE
:1036C00000F0E9F8099804210A9100F08BF80899B4
:1036D0001B20FEF7D0FD0998052100F00BF8099892
:1036E0000A9900F007F80CB080BDC0461105000033
:1036F0000E06000082B001906846018000881F22FB
:103700000146114001238B400199820988581843D2
:10371000885002B07047000082B00190009100987C
:103720000C49884208D1FFE70199D022885848F215
:103730000003984388500BE000981F2109040840BB
:10374000000C012282400199086A10430862FFE7D9
:1037500002B0704709340F3410B585B00390029160
:10376000002001900090039802A909888909405817
:10377000029C1F231C4001210A46A24010400190D8
:103780000398029A920D8058029A1B041A40120C58
:10379000914008400090009838B1FFE7019820B1AF
:1037A000FFE704A90120087003E004A900200870C5
:1037B000FFE704A8007805B010BD82B00190009129
:1037C000019908680122904308600199086840F255
:1037D000006290430860009A0199086810430860ED
:1037E00002B0704782B001900091019908680422EC
:1037F00090430860009A019908681043086002B07D
:103800007047000080B582B0014601A801700178C0
:103810000648FFF7A7FEFFE704480549FFF7DFFE6C
:1038200008B9FFE7F8E702B080BDC04600380140A4
:103830000707000080B582B00190FFE701990020E2
:10384000009031B1FFE701980078411E8841009057
:10385000FFE70098C00738B1FFE70198411C0191CC
:103860000078FFF7CFFFE9E702B080BD82B001909A
:103870000091019908680122904308600199486805
:1038800043F2000290434860009A0199486810434F
:10389000486002B0704782B00190009101990868B9
:1038A000082290430860009A019908681043086054
:1038B00002B0704782B0019000910199086801221E
:1038C000904308600199086841F200029043086043
:1038D000009A019908681043086002B07047000020
:1038E0000FB410B503A9044B044A029800F0E8F89D
:1038F00010BC08BC04B01847CD1E00080000002012
:103900002021020C01D010211046020A01D01046DD
:103910000839020901D01046091F820801D010465B
:10392000891E420801D0881E7047081A704702E0BD
:1039300008C8121F08C1002AFAD17047704700203A
:1039400001E001C1121F002AFBD17047F0B51FB47E
:1039500086B00998089A030D0021024314D05148FB
:10396000514A1818504305141198012810981AD07C
:10397000281A401C00264D4F4D4900960191049095
:10398000002812DA444211E01198012449A30128C9
:1039900001D11098C1430698119A84600360C260F7
:1039A00041600BB0F0BD4042E4E704462105002031
:1039B0003F4A001C51410391029012E0E00707D0FA
:1039C00032463B4601990098FCF782FD0191009038
:1039D00032463B4610461946FCF77AFD06460F462E
:1039E0006410002CEAD10498039B0028029A0999DC
:1039F000089806DAFCF76CFD019B009AFCF768FD5D
:103A000005E0FCF7CDFD019B009AFCF7C9FD0446DB
:103A10000E460022284BFCF75BFE03D80020C04373
:103A2000014607E00022254B20463146FCF79EFC6C
:103A3000FCF72EFE102409E0002C0ADB0A220023EA
:103A4000FCF723FC079B30321A55641E02460A43DA
:103A5000F2D11122641C079B121B1C19119B012B14
:103A600003D0012308430ED10AE0084304D01120FB
:103A700010900020119077E71098151A6D1E0BE03A
:103A80001098824202DD00236D1C03E0824201DABD
:103A900000236D1E002BEED0069811998260C16044
:103AA00030C07EE701FCFFFF104D00000000144015
:103AB0000000F03F300000000000F0430000E03F55
:103AC000FFB597B00646002518E2252877D10024D7
:103AD0002746FD49049400E00443761C3278012017
:103AE000203A90400842F7D130782A280ED002229E
:103AF000307801463039092916D804990A235943E8
:103B0000303940181443761C0490F1E7189802C825
:103B100004911890002904DA01204003044348422C
:103B2000049002200443761C30782E2814D10420FF
:103B300004437078761C2A2809D11898761C80C80E
:103B4000189009E00A214F43303FC719761C30789E
:103B5000014630390929F5D930786C2810D006DCB7
:103B60004C281AD068280ED06A2817D104E074288F
:103B700013D07A2812D110E00120400504430CE054
:103B80000121090501E0032109050C4371788142F7
:103B900003D1012000052418761C761C3078119082
:103BA00066280BD013DC58287DD009DC00287BD098
:103BB0004528F6D04628F4D047281AD1A5E118E0C8
:103BC000632835D0642870D0652812D19DE1702813
:103BD0006CD008DC6728F1D069287BD06E280DD026
:103BE0006F2806D1BAE073282ED0752871D07828B6
:103BF00059D01A9A199990476D1C7EE16002400FC6
:103C0000022809D003280DD00428189801680DD087
:103C10000D60001D189070E11898EA1701680D609A
:103C20004A60F6E7189801680D80F2E70D70F0E73A
:103C300018986A4601781172001D18900020507281
:103C400002A80090012005E0189802C818900020F2
:103C50000091C04361070DD5002101E00199491C85
:103C60000191B94212DA8142F8DB009A515C0029D5
:103C7000F4D10BE0002101E00199491C019181423E
:103C8000FADB019A0099895C0029F5D10199049821
:103C90001A9B471A21463846199A00F097FA01995B
:103CA000401945180BE04FE02CE113E04EE000987E
:103CB00000990078491C00911A9A19999047019827
:103CC000401E0190401CF2D1214638461A9B199A99
:103CD00010E137E00A200021009001916002410FBD
:103CE000022907D0189A01CA1892C21794460329CC
:103CF00008D00AE01898C01DC108C90005C918916C
:103D0000944607E000B2C2179446042902D140B29B
:103D1000C1178C4600226146944506DA0A46002106
:103D2000404291418C462D2102E0210504D52B21F2
:103D30006A461173012103E0E10701D02021F7E772
:103D4000029155E00A200AE0102008E010200090BF
:103D50000021042004430191082703E008200021EA
:103D6000019100906002410F022907D0189A01CA00
:103D7000189200229446032908D008E01898C01D24
:103D8000C108C90005C91891944603E080B204290E
:103D900000D1C0B200210291210729D511997029C3
:103DA00006D0009A1021019B4A401A4305D00EE02C
:103DB00040216A461173012108E06146014306D0A3
:103DC00030216A4611731199517302210291009AB0
:103DD0000821019B4A401A430AD16146014301D19F
:103DE000610705D530216A46117301217F1E0291BA
:103DF0001199582904D035A10E910DA90D910DE00E
:103E000037A1F9E76146019B009AFCF73EFA0E9B49
:103E10008C469B5C0D9A521E0D92137061460143B5
:103E2000F0D10D9805A9081A20300190600703D53C
:103E300001200004844300E001270198874201DD4E
:103E4000381A00E0002001990090411802980918E2
:103E50000498401A0490E00306D421461A9B199A4C
:103E6000049800F0B3F94519002706E003A81A9A50
:103E7000C05D199990476D1C7F1C02988742F5DB45
:103E8000E0030CD521461A9B199A049800F09EF97C
:103E9000451904E01A9A3020199990476D1C009931
:103EA000481E00900029F5DC08E00D980D99007877
:103EB000491C0D911A9A199990476D1C0199481E39
:103EC00001900029F1DC63E109280100303132332F
:103ED0003435363738396162636465660000000046
:103EE0003031323334353637383941424344454630
:103EF0000000000000F05AF94519761C30780028BF
:103F000000D0E2E528461BB0F0BD600700D40627CC
:103F10001898C01DC108C90048680A680831C30F55
:103F2000DB071891190001D09CA108E0210501D5FB
:103F30009BA104E0E10701D09AA100E09AA143000F
:103F400011985B08109165280CD006DC452809D033
:103F500046281DD0472841D141E0662818D067285F
:103F60003CD13CE00021112F01DB112000E0781C46
:103F70000191009008A911A8FFF7E8FC1399059199
:103F80000021119A15927F1C12980197009150E020
:103F90000120C00703900120019008A9009711A8F3
:103FA000FFF7D4FC139A149905920022119B0092FA
:103FB00012981593059A0192002901D0104602E04B
:103FC000791C40180190381A01D5019804E040424C
:103FD000401E0090781C0190C01B029043E0012F0E
:103FE00000DA01270021112F01DD112000E0384601
:103FF0000191009008A911A8FFF7A8FC1399059159
:10400000119A0021129815920091019721070CD462
:104010000599B94201DB019900E00191012904DD14
:10402000159A491E515C302906D0B84201DA011DAB
:1040300005DA0121029115E00199491EEDE70028FA
:1040400005DC0099411800910199091A03E0019AD1
:10405000411C914200DD01910099401A401C0290E0
:104060000120C0070390200706D4029901988142DD
:1040700002DB0020C043029000206946C87707AFEA
:10408000012103980337C907884224D002201190E8
:104090002B201290039800280CDA404203902D2028
:1040A000129007E00A210398FCF73EFB30317F1E97
:1040B000039039701199481E11900029F2DC039881
:1040C0000028EFD1791E129808703078202108401E
:1040D0004530BF1E387006A8C01BC01D0390109845
:1040E0000078002800D00120019941180298C017DB
:1040F0000918039809180498401A401E0490E00318
:1041000006D421461A9B199A049800F05FF84519C5
:1041100010980078002803D01A9A199990476D1CBE
:10412000E00324D521461A9B199A049800F04EF812
:1041300045191CE00098002807DB00990598884283
:1041400003DD1598405C199901E0199930201A9AFD
:10415000904700986D1C401C00900298401E0290F1
:10416000002804D11A9A2E20199990476D1C0199A4
:10417000481E01900029DDDC05E038781A9A7F1C82
:10418000199990476D1C0399481E03900029F4DC8F
:1041900021461A9B199A0498ACE600002D000000F5
:1041A0002B0000002000000000000000F8B50446CD
:1041B00000251E461746880404D405E03946202011
:1041C000B0476D1C641EF9D52846F8BDFFB50446FE
:1041D000002581B01E46C80301D5302700E0202706
:1041E000880404D505E038460399B0476D1C641E69
:1041F000F9D5284605B0F0BD120800AA0400000059
:104200000000D42DAA001F00000000000000006084
:10421000FF00001F104066EC1CF0801408910202A1
:10422000D0CA601033E136190A9F382929C0940A90
:10423000530800B400000100004271CE1C425B1C18
:104240001CAEE0710000F410E242200081709A0C74
:10425000000F90001F063F7F120800AA0400000014
:104260000000D42DAA001F00000000000000006024
:10427000FF01001F100266EC1CF08014089102027E
:10428000D0CA601033E136190A9F382929C0940A30
:10429000530800B400000100004271CE1C425B1CB8
:1042A0001C7FAEE0710000F410E242200081709AA1
:1042B0000C000F90001F043F4B6579312072656C34
:1042C000656173650D0A004B657931207072657305
:1042D000730D0A00545820696E6974204F4B0D0A03
:1042E00000545820696E6974204552524F520D0A8D
:1042F000000D0A5458204552524F522C20636F75BE
:104300006E743D25750D0A00253032582000525834
:1043100020696E6974204F4B0D0A00525820696E57
:104320006974204552524F520D0A005041313520D8
:1043300068696768740D0A005258206368697020C4
:104340004649464F20646174613A200052582072F9
:1043500065616C2072656720646174613A20206633
:10436000685F6F66667365743D2575283078253003
:104370003258292C66685F6368616E6E656C3D25F6
:104380007528307825303258292C20667265713DA9
:10439000256C7520487A0D0A005458207265616CAE
:1043A0002072656720646174613A202066685F6FDF
:1043B00066667365743D2575283078253032582936
:1043C0002C66685F6368616E6E656C3D257528308C
:1043D0007825303258292C20667265713D256C7520
:1043E00020487A0D0A004B6579313220446F776E90
:1043F0000D0A00436865636B20616E6420436F6E35
:10440000666967205258204150504C59204F4B0D3F
:104410000A0055534152542052462054582F5258A6
:10442000204150504C59204F4B0D0A0043686563A2
:104430006B20616E6420436F6E666967205458205C
:104440004150504C59204F4B0D0A005246205458B1
:10445000204150504C59204552524F520D0A0055A0
:104460005341525420524620747820616E64207269
:1044700078204150504C59204552524F520D0A005D
:10448000436865636B20616E6420436F6E66696785
:10449000204552524F520D0A00000000C04400084F
:1044A00000000020280000002E390008E844000821
:1044B00028000020681400003E39000800000000B9
:1044C0000000000000A24A04112233445566778898
:1044D00099AABBCCDDEEFF00010203040506070824
:0844E000090A0B0C0D0E0F1070
:04000005080000CD22
:00000001FF
