:020000040800F2
:1000000028170020E100000865090008050900081C
:1000100000000000000000000000000000000000E0
:100020000000000000000000000000006909000856
:100030000000000000000000670900086B090008CC
:10004000F3000008F3000008F3000008F3000008C4
:10005000F3000008F3000008F3000008F3000008B4
:1000600000000000F30000088D080008F3000008FD
:10007000F3000008F3000008F3000008000000008F
:10008000F3000008F300000800000000F30000087F
:10009000F3000008F3000008F3000008F300000874
:1000A000F3000008F3000008F3000008190A000834
:1000B000F300000800000000000000000000000045
:1000C000F300000800000000F30000080348854624
:1000D00000F012FB004800478D2B00082817002075
:1000E0000448804704480047FEE7FEE7FEE7FEE7D6
:1000F000FEE7FEE76D090008CD00000803460B434C
:100100009B0703D009E008C9121F08C0042AFAD2CD
:1001100003E00B780370401C491C521EF9D2704753
:10012000D2B201E00270401C491EFBD2704700228F
:10013000F6E710B513460A4604461946FFF7F0FFE6
:10014000204610BD30B504460020034600E05B1C8D
:10015000934203D2E05CCD5C401BF8D030BD024638
:1001600070B54A40D30FDB0740002DD04A002AD09B
:10017000010E140E000212020919400A520A8418D4
:10018000E50104465443000A120A2E045043A41900
:100190004219200CC543AA18120C0125AD03521CAC
:1001A000521912047F39240400D0521C104301D488
:1001B0004000491EC2B20C06C0092018401C40086D
:1001C000802A02D003E0002070BD400840000029D2
:1001D00000DA0020184370BD70B502464A40D50FC2
:1001E00040004A00ED0740085208002814D0002AB9
:1001F00012D0C40DD30D41020120C0055202490A9C
:10020000520AE41A091812187D34914201D3641C71
:1002100000E04900002C01DA002070BD002391426B
:1002200001D3891A0343400849000028F7D1002967
:100230000AD0914202D10121C90705E0914201D2C1
:10024000012101E00121C943E005C018401900F077
:100250004CF870BD10B500229623114600F04DF801
:1002600010BD410040020122400AD205090E80184B
:100270007F2901DA00207047962903DC9622511A63
:10028000C8407047963988407047F0B51FB406469D
:10029000002082B005464024019100901BE00199A6
:1002A00022460F46304600F06EFA049A059B801AEB
:1002B000994110D310461946224600F054FA361AD6
:1002C0008F410197224601200021009F00F04BFA48
:1002D00038184D4100902046641E0028DFDC019B49
:1002E00000982946324607B0F0BD002904DA401CC8
:1002F000490001D140084000704770B40024050C4B
:1003000005D11024000402D1002921D01124050EAA
:1003100001D100020834050F01D10001241D850F11
:1003200001D18000A41C002801DB4000641C0029CE
:1003300008D020252E1B0D46F540A14000D00121FC
:100340002943084301061B1B000ADB1D02D50020C0
:1003500070BC7047DB05181880180029F8DA401CBB
:100360004900F5D170BC400840007047F0B5074621
:100370000846584087B0C00F049048000E46590008
:1003800040084908BC1A884105D2384631461E4605
:1003900017460B4602465800400810434CD0300D1B
:1003A000039040055900400D490D0590401A0290F8
:1003B000402872DA18030121000B09050843019057
:1003C00004980092002805D00199524200208841EB
:1003D00000920190029840210A1A0199009800F0B9
:1003E000C2F905460C466B4607CB00F0DDF9C01993
:1003F0007141039A0E0D0023D71756401A467A40D2
:10040000164344D0049A002A2DD0029A012A039A56
:1004100015DC1205C01A914101263605001C7141F8
:10042000D20F059ED2070093019202962A462346D8
:1004300000F0DAF907B0F0BD38463146FAE71605A4
:10044000224A0F46B218C01AB74101210905001C03
:100450004F4100187F41114618187941E20F1043AF
:100460006D19644113E0E2076D0815436408C20783
:100470001443039A01261205C01A91413605001C47
:100480007141CE07400830434908C01851412A46FF
:10049000234600F09CF9CDE7FFE7049801224000D5
:1004A000C117121A00238B4104983146C417381A19
:1004B000A141EEE730B40124E407634030BC55E7C6
:1004C00030B40124E407614030BC4FE70000E0FF96
:1004D000F0B51FB488B00B990998002448400999D9
:1004E000C00F490049080991C0070B9900904900C5
:1004F00049080B9109990898A64608431CD00B9906
:100500000A98084318D0099801244000420D480079
:10051000410D099824050003000B204309900B9816
:100520000003000B20430B9050181C494018002278
:1005300001901446104605E0002001460DB0F0BDC4
:10054000032801DA034600E003239C46C11A0AAEE1
:100550000AE05F0008ADED5B4F00F75B7D430027CD
:10056000AA187C41491C5B1E6145F2DD410004ABC9
:100570005A522104120C0A43240C401C0828DFDBC9
:10058000019802900099704601910090059B049A91
:100590000799069800F028F9D0E700000DFCFFFF4E
:1005A000F0B50C465C4085B0E40FE40703944C00C2
:1005B00000266408590094464908024602962243E0
:1005C00021D062460A431ED06200570D4A000E0336
:1005D0002303550D012402462C492405781B1B0BCF
:1005E000360B401823432643614600901C46501AA0
:1005F000B44103D30098401C009002E09218009888
:100600005B41002803DA0020014605B0F0BD002060
:10061000012109050746864611E064461D46141B64
:10062000B54106D36546521BB341744607430C439C
:10063000A646CD0740084908284392185B41054665
:100640000D43EAD11046184313D060461946504076
:100650007140084306D06046101AB34106D2012209
:10066000002306E000220123DB0702E00122D2433F
:100670005310009874460105381C6141029C039D8B
:100680000019694100F0A3F8BFE70000FD03000076
:100690004A0009030123090B1B0519430A4B10B536
:1006A000520D9A4202DA0020014610BD064B343347
:1006B0009A4203DC9A1A00F066F810BD034BD21878
:1006C00000F051F810BD0000FF030000CDFBFFFF5C
:1006D00010B5002904DB0124E40740428C41214687
:1006E000002B04DB1C460123DB075242A341994245
:1006F00000D1904210BD00001CB509480090094887
:10070000019005460126009C05E0E36807CC3343D1
:100710000C3C98471034AC42F7D3FFF7DBFC0000E9
:1007200084550008A455000870B50446002903D07C
:1007300000202022012310E0002801D00020C04327
:10074000C046C0460DE02546D5408D4205D30D4636
:100750009540641B1D46954040191546521E002DBC
:10076000F1DC214670BD10B5202A04DB0146203A99
:100770009140002010BD914020239C1A0346E34085
:100780001943904010BD10B5202A04DB0846203ADA
:10079000D040002110BD0B46D340D0402024A21AE7
:1007A00091400843194610BD10B5202A06DBCB172F
:1007B0000846203A1041C1170B4306E00B4613418F
:1007C000D0402024A21A91400843194610BD10B50C
:1007D000002B08DA0024401C614192185B411A4347
:1007E00001D14008400010BDF0B51FB482B00546ED
:1007F0000C0003D0084604F06DF802E004F06AF83B
:1008000020300246009021462846FFF7ACFF049BAB
:10081000059A04460F4618431143084314D018465E
:1008200010431BD0009840210A1A18460599FFF77B
:10083000AAFF05460E46009A05990498FFF793FF14
:10084000084305D0012004E02046394607B0F0BD3A
:100850000020C11705430E432C43374300990E98DF
:100860006305401A7905E40A00220C43FD0A0A30A8
:1008700002D500200146E9E70105101969410C9CE9
:100880000D9D00196941FFF7A2FFDFE780B582B037
:100890000120022101F088FD012807D1FFE7012096
:1008A000022101F06FFD03F05FFFFFE70120082147
:1008B00001F07AFD01281BD1FFE7012000900821FB
:1008C00001F060FD009801F05FFC96480021019165
:1008D00003F011FD019807490988074A118007496B
:1008E0000880074908709C490868401C0860FFE7B9
:1008F00002B080BDF2120020F0120020EA100020A9
:10090000E810002080B584B0134802F041FC134881
:10091000009001210022019240F20023029302F094
:1009200004F800980199029B032202F045F8FFE7C2
:100930000A4840F2002101F0DBFF00200390FFE7AE
:1009400003980749884205D8FFE7FFE70398401C52
:100950000390F5E7ECE7C0461205000000040048EC
:100960001FA10700704770477047704780B582B07D
:1009700020490868012210430860FFE71D4800680D
:100980008007002801D4FFE7F8E71B4908681B4AE5
:100990001040086008681A4A104008601549086845
:1009A000184A10400860184908680F2290430860F0
:1009B0001649086840F20312904308600868012253
:1009C00000921304984308600868D30798430860AE
:1009D0000F490868904308600E49002001900860A4
:1009E00003F0C0FB00980199C00602F077F902B04D
:1009F00080BDC04600100240041002400C00FF08F9
:100A0000FFFFC277FFFFF2FE2C10024030100240C1
:100A1000341002400810024080B586B004A90020BE
:100A200008704048404903F07EFC012808D1FFE7E8
:100A30003C483E4903F032FD04A901200870FFE75D
:100A400038483B4903F06FFC012808D1FFE73548DF
:100A5000384903F023FD04A901200870FFE731485D
:100A6000354903F060FC012808D1FFE72D483349E0
:100A700003F014FD04A901200870FFE704A8007822
:100A800038B1FFE734490868401C086003F0B0FD46
:100A900046E024482A4903F021FD012840D1FFE720
:100AA0000220029001F070FB029801F019FD01464E
:100AB0008020401A05A9039108801A48204903F0B4
:100AC000EDFC0398008848B1FFE705A800887F285F
:100AD00004D8FFE71B48007858B1FFE705A8008855
:100AE000802805D3FFE71B490868401C0860FFE722
:100AF00013E005A801900288134800901349FFF7FE
:100B0000FDFA009901980288002088540598104940
:100B100008800C4901200870FFE703F069FDFFE73A
:100B200006B080BD00380140030700000002030743
:100B3000020700000002020701070000000201078F
:100B40000400040730100020300000206410002052
:100B500032100020E41000206010002081B0014617
:100B60006846017000214056002811D4FFE700219B
:100B7000684641561F200A4602400120904049091C
:100B80008900044A8850BFF34F8FBFF36F8FFFE790
:100B900001B0704780E100E081B001466846017015
:100BA0000021405600280DD4FFE700216846415639
:100BB0001F200A4602400120904049098900024A4C
:100BC0008850FFE701B0704700E100E070B582B0E7
:100BD000024601A80270009100214056002816D458
:100BE000FFE7002401A908570322D3431840174AFE
:100BF000805809578C07E50EFF24AC40A043009CA9
:100C0000A401E4B2AC402043194088501AE001A985
:100C100008780F24204008380322D34318400A4A9A
:100C20008058002549578D07EE0EFF25B540A84393
:100C3000009DAD01EDB2B54028432140083919406F
:100C40008850FFE702B070BD1CED00E000E400E05A
:100C500080B503F0A1FAE120400203F083FB02F02B
:100C60000EF901461E480170007820B1FFE70548E3
:100C700003F020FE03E0024803F01CFEFFE780BD06
:100C8000825300087553000880B5134803F012FE24
:100C90001248202102F070F811480078D8B1FFE71F
:100CA0000E48202102F008F901460E4801700E4A54
:100CB0001168491C1160007830B1FFE70A480168EB
:100CC0000B4803F0F7FD05E007480168074803F00B
:100CD000F1FDFFE7FFE780BDBD53000808000020DD
:100CE00020130020191300201C130020A653000815
:100CF0009253000880B502F065F801462B48017058
:100D0000007868B1FFE70A4803F0D4FD094803F012
:100D1000D1FD0920C00648F2000101F0E1FD03E029
:100D2000024803F0C7FDFFE780BDC046EC53000852
:100D3000D25300082154000880B582B01B480078C7
:100D400028B3FFE700F00BFF08B3FFE700F0E9FD71
:100D50001848202100F094FF01F0B2FE00F0FAFCE8
:100D600000F0EEFC00F0D1FD012804D0FFE71248AE
:100D700003F0A0FDFFE711490868401C0860104817
:100D800003F098FD0B48202101F0F6FF0CE06D20E8
:100D900000F08AFF0190612000F086FF0199024671
:100DA000034803F087FDFFE702B080BD1813002061
:100DB000FC530008F4120020DF5300081413002035
:100DC0002E54000880B584B0024602A8027001AA21
:100DD00011700178602000F075FC694600200870F1
:100DE000FFE768460078632825DCFFE7642000F011
:100DF00093F800F0EFF801A90978884204D1FFE7E1
:100E000003A9012008701AE002A8007840280CD13C
:100E1000FFE76A2000F042FA0007002804D5FFE748
:100E200003A9012008700AE0FFE7FFE70098401CD3
:100E300069460870D5E703A900200870FFE703A8FA
:100E4000007804B080BD80B56A20072100F03AFC2C
:100E50006B203F2100F036FC80BD80B56C20012165
:100E600000F030FC80BD80B584B065202021029167
:100E700000F028FC6720019000F010FA024601986B
:100E800003A90A700A78E0231A400A70039A0A2319
:100E90001A430A70097800F015FC0299682000F0E6
:100EA00011FC04B080BD80B584B003AB1870029112
:100EB00001A80270694600200870FFE768460078C4
:100EC00001A9097888420FDAFFE7039869460A7892
:100ED00080180299895CC0B200F0F4FBFFE700982B
:100EE000401C69460870E9E704B080BD80B5092060
:100EF000C006102101F0F4FC80BD80B50920C006B9
:100F0000102101F0E5FC80BD80B582B00190019810
:100F100001F0C0F802B080BD80B582B001900198A8
:100F200001F0F2F802B080BD80B584B003A9019150
:100F300008700D2000F0B2F90146019802AA117064
:100F4000007870B1FFE702988021084302A9087079
:100F50000298402210430870029820221043087023
:100F60000DE002A908787F22104008700878BF229F
:100F7000104008700878DF2210400870FFE702A8D0
:100F800001780D2000F09EFB04B080BD80B582B0DA
:100F90006920009000F082F90246009801A90A70C9
:100FA000019A04231A430A70019A01231A430A7012
:100FB000097800F087FB02B080BD000080B5B6481C
:100FC000012101F08DFC80BD80B5B348012101F005
:100FD0007FFC80BD80B5612000F060F90F210840E2
:100FE00080BD80B510200121FFF7ECFE80BD80B5EB
:100FF00002210846FFF7E6FE80BD80B540200621AD
:10100000FFF7E0FE80BD80B584B002A90020087023
:1010100003A90870FFE703A8007807281FD8FFE797
:1010200000F04DF901200190FFF776FF00F040F944
:101030000198FFF771FF0298400002A9087000F0C4
:1010400070F930B1FFE702980121084302A9087046
:10105000FFE7FFE70398401C03A90870DBE700F0F7
:101060002EF902A8007804B080BD80B584B003A931
:10107000087002A900200870FFE702A8007807287E
:1010800021D8FFE700F01BF903A80078000600282C
:1010900003D5FFE700F01AF902E000F027F9FFE7B7
:1010A00001200190FFF738FF00F002F90198FFF7E7
:1010B00033FF0398400003A90870FFE70298401C23
:1010C00002A90870D9E704B080BD000080B58AB0DD
:1010D00000F0A6F900F09DF91420FFF715FF324942
:1010E000002008900C220192FFF7DDFE019A2F49A3
:1010F0001046FFF7D8FE2E49182002900822FFF76D
:10110000D2FE029A2B4920200490FFF7CCFE2A49F8
:1011100038201D22FFF7C7FE284955200B22FFF774
:10112000C2FE6120039000F0B9F80246039809A9B5
:1011300006910A70099A10231A430A700A78DF236D
:101140001A400A70097800F0BDFA6220059000F09C
:10115000A5F8049B0699024605980A70099A1A4355
:101160000A70097800F0AEFA0920079000F096F8AE
:101170000699024607980A700A78F8231A400A70FE
:10118000099A02231A430A70097800F09BFA08981A
:10119000FFF7CAFEFFF767FEFFF755FEFFF721FFD7
:1011A00001200AB080BDC046E95100081552000870
:1011B0000D520008F5510008CC51000821520008DA
:1011C00080B58CB03148029001F0E2FF30480190C8
:1011D00001F0DEFF019801F0DBFF019801F0D8FF7C
:1011E000029801F0D5FF2B4801F0D2FF0920C0067C
:1011F00006900121049100220A921023039301F02A
:1012000094FB039B06980A990322099201F0D4FBF0
:10121000049B0A9A20480890194601F086FB049B1B
:101220000898099A0A9901F0C7FB06980A992022A2
:10123000059201F0EDFA059B06980A9A02210B919E
:1012400001F073FB059B0698099A0A9901F0B4FB1B
:1012500006980A998022079201F0DAFA0698079B0D
:101260000A9A0B9901F061FB0698079B099A0A9963
:1012700001F0A2FB089809990A9A0B9B01F055FB13
:10128000FFF734FEFFF79AFE0CB080BD1205000098
:10129000110500000C0600000004004880B582B073
:1012A000014601A80170007800F040F902B080BD4D
:1012B00080B50920C006202101F012FB80BD80B559
:1012C0000920C006202101F003FB80BD80B5092064
:1012D000C006802101F004FB80BD80B50920C00656
:1012E00000228023114601F020FB80BD80B509203B
:1012F000C006802101F0ECFA80BD80B584B00920E1
:10130000C00601900121002202928023039301F084
:101310000CFB01980299039B032201F04DFB04B0E2
:1013200080BD80B50920C006802101F0E9FA411E88
:10133000884180BD80B586B0049003A801700292F8
:10134000049848B1FFE703A8007828B1FFE703A895
:101350000078412804DBFFE705A9002008703EE083
:10136000FFF745FEFFF76FFDFFF710FEFFF775FD76
:10137000049803A9097800F091F96E20FFF78EFF19
:10138000014601A8017000788007002806D4FFE715
:10139000FFF727FE05A90020087020E0FFF72DFECB
:1013A000FFE70298411E029198B1FFE76A20FFF71C
:1013B00075FF0007002808D5FFE7FFF744FDFFF79A
:1013C00010FE05A90120087009E00120FFF79CFD2F
:1013D000E7E7FFF706FE05A900200870FFE705A86C
:1013E000007806B080BD80B582B0014601A80170CA
:1013F0000178632000F066F902B080BD80B582B04C
:10140000014601A801700178642000F05BF902B088
:1014100080BD80B57F20FF2100F054F980BD000021
:1014200080B58AB0FFF7CCFE7448029002F018FD38
:1014300003A8019002F012FE0199029840F20412F2
:1014400003924CF20002049240F20072059240F2C4
:10145000002206920022079208921822099202F0B6
:1014600063FD029802F0BBFCFFF740FDFFF7A6FD0D
:101470000AB080BD80B586B00920C0060290202148
:10148000009101F025FA02988021059101F028FAD7
:10149000009B0298012101910022039201F045FA7C
:1014A000009B029803990322049201F085FA0199A6
:1014B0000298039A059B01F038FA02980399049A5E
:1014C000059B01F079FA06B080BD80B586B0092091
:1014D000C00602902021059101F0FAF9029800213E
:1014E00003918022009201F093F9009B0298039AE5
:1014F0000221019101F019FA009B0298039903223D
:10150000049201F059FA02980399059A01F080F9C2
:1015100001990298039A059B01F007FA0298039932
:10152000049A059B01F048FA06B080BD80B588B0EA
:1015300005A90870EFF3108006900698039072B624
:10154000FFE72E48802102F0AFFC08B1FFE7F8E783
:101550002A48019002F03AFCFFF78CFFFFF72EFDBE
:10156000FFF7CBFC01200090FFF7D6FCFFF7C5FE8C
:10157000FFF7A5FE05A8007880210843FFF775FD59
:10158000FFF7ABFE0098FFF7C7FCFFF798FEFFF7E9
:101590003AFD0146009804AA02921170FFF7BCFCC4
:1015A000FFF7A4FCFFF70AFDFFF78FFF019802F099
:1015B00016FC029803990791079981F31088007827
:1015C00008B080BD80B582B001A90870FFE70B4864
:1015D000022102F069FC08B9FFE7F8E701A80178E9
:1015E000064802F017FCFFE70448802102F05CFC8B
:1015F00008B1FFE7F8E702B080BDC0460030014007
:1016000080B584B0039002A80180FFF76FFC01A9A8
:1016100000200880FFE701A8008802A90988884205
:1016200019DAFFE7FFF7D0FC0120FFF775FC0398FC
:1016300001A90988405CFFF7C5FF0220FFF76CFC99
:10164000FFF7BCFC0420FFF767FCFFE70198401C94
:1016500001A90880DFE704B080BD80B586B005AA87
:101660000192107004A802900170FFF7A7FCFFF729
:1016700044FC01200390FFF74FFC019800787F2184
:101680000840FFF79FFF02980078FFF79BFF039841
:10169000FFF742FCFFF72AFC06B080BD80B582B0A0
:1016A0000190684601700078412804DBFFE7694635
:1016B00040200870FFE7019869460978FFF7A0FF0E
:1016C00002B080BD80B582B00A46014601A8017013
:1016D00069460A7000780978FFF7BFFF02B080BD45
:1016E00080B584B0024602A8027001AA1170017888
:1016F000602000F0C0FC694600200870FFE76846E3
:101700000078632814DCFFE7642000F093F800F011
:10171000F5F801A90978884204D1FFE703A901205F
:10172000087009E0FFE70098401C69460870E6E78A
:1017300003A900200870FFE703A8007804B080BD6B
:1017400080B56A20072100F096FC6B203F2100F055
:1017500092FC80BD80B56C20022100F08CFC80BD25
:1017600080B5654842F2000101F0BAF880BDC0467C
:1017700080B5614842F2000101F0AAF880BDC04680
:1017800080B582B06520202100F075FC67200090B4
:1017900000F08AFA0246009801A90A700A78E0234C
:1017A0001A400A70019A19231A430A70097800F046
:1017B00062FC68201B2100F05EFC02B080BD80B599
:1017C00084B003AB1870029101A802706946002032
:1017D0000870FFE76846007801A9097888420FDAA7
:1017E000FFE7039869460A7880180299895CC0B2BD
:1017F00000F041FCFFE70098401C69460870E9E7EB
:1018000004B080BD80B53C4844F2000101F068F8A6
:1018100080BDC04680B5384844F2000101F058F858
:1018200080BDC04680B582B00190019800F032FCC6
:1018300002B080BD80B582B00190019800F064FCD8
:1018400002B080BD80B584B003A9019108700D205D
:1018500000F02AFA0146019802AA1170007870B1CE
:10186000FFE702988021084302A9087002984022ED
:101870001043087002982022104308700DE002A95E
:1018800008787F22104008700878BF221040087046
:101890000878DF2210400870FFE702A801780D20C9
:1018A00000F0E9FB04B080BD80B582B069200090F3
:1018B00000F0FAF90246009801A90A700A78FE239E
:1018C0001A400A700A78FB231A400A70097800F05F
:1018D000D2FB02B080BD000080B5FC4841F200019F
:1018E00000F0FEFF80BDC04680B5FE4841F2000119
:1018F00000F0EEFF80BDC0460004004880B56120C6
:1019000000F0D2F90F21084080BD80B508200521E4
:10191000FFF7E6FE80BD80B510200121FFF7E0FE55
:1019200080BD80B502210846FFF7DAFE80BD80B594
:1019300082B069460020087001A90870FFE701A87D
:10194000007807281CD8FFE7FFF712FF00F00EFA17
:10195000FFF706FF009840006946087000F0E0F9C4
:1019600030B1FFE700980121084369460870FFE79E
:1019700000F0FCF9FFE70198401C01A90870DEE7C0
:10198000FFF7F6FE6846007802B080BD80B582B0F1
:1019900001A90870694600200870FFE768460078D2
:1019A00007281ED8FFE7FFF7E3FE01A8007800062E
:1019B000002803D5FFE700F081F902E000F094F978
:1019C000FFE700F0D3F9FFF7CBFE00F0CFF9019865
:1019D000400001A90870FFE70098401C69460870A4
:1019E000DCE702B080BD000080B58CB000F0CAF921
:1019F00000F0B6F91420FFF715FFFFF792FF01285A
:101A000004D0FFE70BA9002008706AE06120019074
:101A100000F04AF9024601980AA907910A700A9A49
:101A200010231A430A700A78DF231A400A700978D3
:101A300000F021FB6220029000F036F9079902467F
:101A400002980A700A9A202305931A430A700978AB
:101A500000F011FB00200390FFF7F4FEFFF770FE8B
:101A6000039822490C220492FFF7A9FE049A204908
:101A70001046FFF7A4FE1F49182006900822FFF722
:101A80009EFE0598069A1C49FFF799FE1B493820CF
:101A90001D22FFF794FE1A4955200A22FFF78FFEF8
:101AA00018495F2001220992FFF789FE092008905A
:101AB00000F0FAF80799024608980A700A78F823A5
:101AC0001A400A700A9A02231A430A70097800F031
:101AD000D2FAFFF755FEFFF71EFF09980BA9087011
:101AE000FFE70BA800780CB080BDC0464952000843
:101AF000765200086D520008555200082C5200081A
:101B0000825200087552000880B586B048200190C6
:101B100000F0CAF80146019804AA00921170AA21A7
:101B200000F0A9FA019800F0BFF800990246019868
:101B300003AB02931A70097800F09DFA02980078BE
:101B4000AA2804D1FFE705A90120087003E005A930
:101B500000200870FFE705A8007806B080BD80B5BA
:101B600082B06D2000F0A0F8014668460170007850
:101B700003210840032804D1FFE701A901200870D0
:101B800003E001A900200870FFE701A8007802B077
:101B900080BD000080B58AB03748009001F0F8FAA7
:101BA000009801F0F5FA009801F0F2FA009801F0BF
:101BB000EFFA009801F0ECFA304801F0E9FABA487F
:101BC0000890012102910022069241F20003019344
:101BD00000F0ABFE019B069908980322059200F0E5
:101BE000EBFE0299069A089844F20003039300F072
:101BF0009CFE039B059A0699089800F0DDFE069965
:101C0000089842F20002079200F002FE069A079B33
:101C100008980221049100F088FE059A0699079B16
:101C2000089800F0C9FE0699089848F20002099247
:101C300000F0EEFD0499069A0898099B00F075FEE5
:101C4000059A06990898099B00F0B6FE069A08982E
:101C500040F20043114600F068FEFFF7D3FDFFF7A6
:101C60003BFE0799089800F033FE0898099900F0A8
:101C700037FE0AB080BDC046120500000E07000006
:101C800080B582B00190684601700078412804DB7D
:101C9000FFE7694640200870FFE701986946097828
:101CA00000F004F902B080BD80B582B0014601A801
:101CB0000170007800F058F902B080BD80B57A4814
:101CC00048F2000100F00CFE80BDC0460004004850
:101CD00080B575480021012248F2000300F025FE7E
:101CE00080BDC0460004004880B56F4848F200013E
:101CF00000F0EEFD80BDC04680B584B06A4801901A
:101D000001210022029248F20003039300F00DFE2D
:101D100001980299039B032200F04EFE04B080BD9F
:101D200080B5614848F2000100F0EAFD411E88419B
:101D300080BDC04680B582B0014601A8017001781F
:101D4000632000F098F902B080BD80B582B00146F2
:101D500001A801700178642000F08DF902B080BD07
:101D600080B57F20FF2100F086F980BD81B014206E
:101D70000090FFE70098411E009108B1FFE7F9E7E6
:101D800001B0704780B58AB0FFF704FFA848029001
:101D900002F066F803A8019002F060F90199029838
:101DA00040F2041203924CF20002049240F20072DC
:101DB000059240F200220692002207920892182211
:101DC000099202F0B1F8029841F2000102F010F815
:101DD000029802F004F8FFF715FDFFF77DFD0AB049
:101DE00080BDC04680B586B02F48029042F2000107
:101DF000009100F06DFD029848F20001059100F09D
:101E00006FFD009B0298012101910022039200F0D6
:101E10008CFD009B029803990322049200F0CCFDF4
:101E200001990298039A059B00F07FFD029803999F
:101E3000049A059B00F0C0FD06B080BD80B586B059
:101E40001948029042F20001059100F041FD02980C
:101E500048F20001009100F043FD009A0298002131
:101E6000039100F0D5FC009B0298039A0221019196
:101E700000F05BFD009B029803990322049200F09E
:101E80009BFD02980399059A00F0C2FC0199029803
:101E9000039A059B00F049FD02980399049A059B5B
:101EA00000F08AFD06B080BD0004004880B586B011
:101EB000039002A80180039820B1FFE702A80088E0
:101EC00008B9FFE74DE0EFF310800490049800900C
:101ED00072B6FFE75648802101F0E6FF08B1FFE740
:101EE000F8E7534801F072FFFFF77CFFFFF78AFC29
:101EF000FFF7F2FCFFF73CFCFFF7EAFE01A9002028
:101F00000880FFE701A8008802A90988884219DA39
:101F1000FFE7FFF7E9FC0120FFF78CFCFFF707FD67
:101F2000039901AA128888540220FFF783FCFFF767
:101F3000D3FC0420FFF77EFCFFE70198401C01A9B9
:101F40000880DFE7FFF7C8FCFFF75CFCFFF776FFD0
:101F5000374801F044FF00980590059880F31088F9
:101F6000FFE706B080BDC04680B588B005A90870FF
:101F7000EFF3108006900698039072B6FFE72C48A6
:101F8000802101F091FF08B1FFE7F8E728480190B0
:101F900001F01CFFFFF726FFFFF79EFCFFF73AFC5E
:101FA00001200090FFF746FCFFF7A6FEFFF7E0FBDD
:101FB00005A8007880210843FFF7E8FCFFF788FEBA
:101FC000FFF7B5FC0146009804AA02921170FFF7D2
:101FD00031FCFFF717FCFFF77FFCFFF72FFF01989D
:101FE00001F0FDFE029803990791079981F310888B
:101FF000007808B080BDC04680B582B001A90870E5
:10200000FFE70B48022101F04FFF08B9FFE7F8E7AF
:1020100001A80178064801F0FDFEFFE70448802191
:1020200001F042FF08B1FFE7F8E702B080BDC0460B
:102030000038004080B586B005AA0192107004A84F
:1020400002900170FFF748FCFFF7E4FB01200390CA
:10205000FFF7F0FB019800787F210840FFF7CCFFE5
:1020600002980078FFF7C8FF0398FFF7E3FBFFF73C
:10207000C9FB06B080BD80B582B00A46014601A802
:10208000017069460A7000780978FFF7D3FF02B043
:1020900080BD000080B584B003900398FEF7DAF8A5
:1020A00018490968FEF75BF8FEF7DBF8334908606A
:1020B000334900200860334901200860FFE73148B8
:1020C00000680290FFE7002002A90978C907019083
:1020D00041B1FFE702A88078012108404142484110
:1020E0000190FFE70198C0070028E8D1FFE72549E4
:1020F000086801229043086021490020086004B06C
:1021000080BDC0462800002080B584B003900398AD
:10211000FEF7A0F818490968FEF721F8FEF7A1F8C4
:102120001649086016490020086016490120086019
:10213000FFE7144800680290FFE7002002A9097831
:10214000C907019041B1FFE702A88078012108404A
:10215000414248410190FFE70198C0070028E8D1BB
:10216000FFE70849086801229043086004490020FD
:10217000086004B080BDC0462C00002014E000E0E0
:1021800018E000E010E000E081B001466846017010
:10219000007814214143B44A885801239843885059
:1021A00001B0704781B00146684601700078142183
:1021B0004143AD4A885801231843885001B0704705
:1021C00081B0014668460170007814214143A64A57
:1021D000885820239843885001B07047B0B581B02B
:1021E0000146684601700178142213464B439E4C09
:1021F00019590125A9431951017813464B43002170
:102200001951047813466343BB4C195104781346A3
:102210006343534C195103785A439C4BD150007877
:1022200080000F2282405F4908681043086001B0B7
:10223000B0BDC04682B0024601A802700091009A6B
:10224000007880008240574908681043086002B057
:102250007047C046B0B584B0024603A80090027033
:1022600002910078FFF790FF009B029800681C78AD
:1022700014210A4662433A4C1051029880681C7837
:102280000A466243814C10510298008A1C780A4623
:102290006243994C10511A7808465043724A80584C
:1022A0000190019843F60074A0430190029844689D
:1022B000C5682C434069044301982043019001986C
:1022C0001B78594388500298007E01280AD1FFE705
:1022D00003A8007814214143634A885840231843D7
:1022E000885009E003A80078142141435E4A8858C9
:1022F000402398438850FFE70298407E01280AD186
:10230000FFE703A8007814214143574A88588023E7
:102310001843885009E003A8007814214143524A29
:102320008858802398438850FFE70298807E50B9F0
:10233000FFE703A80078142141434B4A8858102333
:102340009843885009E003A8007814214143464A85
:102350008858102318438850FFE704B0B0BDC0462A
:102360001000024082B0024601A802700091009B5A
:102370000078142141433C4A88581843885002B0E1
:102380007047C04682B0024601A802700091009AD0
:10239000007880008240034908681043086002B05A
:1023A0007047C0460400024086B004AA1070039132
:1023B00000200290019003980090022808D0FFE7C7
:1023C0000098042816D0FFE70098082824D035E0AC
:1023D00024480168039A04A803789B009A4011409E
:1023E00001910178142048431F49405802210840B8
:1023F000029024E01B480168039A04A803789B001C
:102400009A401140019101781420484316494058E0
:1024100004210840029012E012480168039A04A8BF
:1024200003789B009A4011400191017814204843A1
:102430000D49405808210840029000E0FFE701984C
:1024400038B1FFE7029820B1FFE705A90120087025
:1024500003E005A900200870FFE705A8007806B092
:102460007047C046000002400800024083B000915F
:102470000246009802A90A70019001980A78142176
:102480005143024A885003B07047C04614000240CE
:1024900081B0009000990020086000994860009980
:1024A0000876009988600099C8600099487600997C
:1024B0000861009988760099486101B07047000072
:1024C00083B000910246009802A90A70019001A809
:1024D00000880A7814215143074A885003B0704796
:1024E00081B00146684601700178142048430249D2
:1024F000405801B07047C0460C00024081B00090C7
:1025000000984749086001B07047C04663490868B1
:10251000802210430860704780B584B003900F207C
:10252000000400F027F8014602A801700078D0B935
:10253000FFE75A490191086802220092104308609F
:1025400003980B4A106008684022104308600F206F
:10255000000400F00FF8009A019902AB18700868A7
:1025600090430860FFE702A8007804B080BDC04631
:102570001420024080B584B0039002A901200870A5
:10258000FFE700F025F802A908700398401E0390A9
:10259000FFE702A8017800200129019005D1FFE79B
:1025A0000398411E88410190FFE70198C007002869
:1025B000E7D1FFE702A80078012804D1FFE702A9CC
:1025C00005200870FFE702A8007804B080BD000075
:1025D00081B069460020087011480068C00720B12A
:1025E000FFE769460120087015E00D480068C00645
:1025F000002804D5FFE76946042008700AE008486F
:1026000000684007002804D5FFE7694602200870EB
:10261000FFE7FFE7FFE76846007801B07047C04674
:102620000C2002401D4800680006002806D5FFE780
:1026300003490448086004480860FFE77047C04643
:102640000420024023016745AB89EFCD80B586B0F9
:10265000059004910F200004FFF78CFF014603A8AA
:1026600001700078B0B9FFE70C49029108680122B7
:102670000192104308600498059908600F20000437
:10268000FFF778FF019A029903AB1870086890432E
:102690000860FFE703A8007806B080BD1020024064
:1026A00080B582B00190009101A8007802F010F886
:1026B000019802B080BD000080B582B00920C0063C
:1026C00040F6000100F01CF910BBFFE70F20FFF7F8
:1026D000E1FC0920C00640F6000100F011F9B0B994
:1026E000FFE70920C00641F2000100F009F938B9FE
:1026F000FFE746491120C87001A90B20087080E04F
:1027000042491020C87001A90A20087079E074E0DD
:102710000920C00640F2002100F0F2F810BBFFE7EC
:102720000F20FFF7B7FC0920C00640F2002100F09F
:10273000E7F8B0B9FFE70920C00640F2004100F019
:10274000DFF838B9FFE731492120087101A91520C8
:10275000087056E02D492020087101A91420087046
:102760004FE049E0D548202100F0CAF8F0B9FFE772
:102770000F20FFF78FFCD148202100F0C1F8A0B94D
:10278000FFE7CE48402100F0BBF838B9FFE71F490A
:102790003120487101A91F20087032E01B49302008
:1027A000487101A91E2008702BE024E0C3480821CD
:1027B00000F0A6F8F0B9FFE70F20FFF76BFCBF4869
:1027C000082100F09DF8A0B9FFE7BC48102100F0F7
:1027D00097F838B9FFE70D494120887101A92920F0
:1027E00008700EE009494020887101A9282008706E
:1027F00007E0FFE7FFE7FFE7FFE701A90020087018
:10280000FFE701A8007802B080BDC04608000020A4
:1028100086B00590049103920598006A019005988E
:10282000406A009002A900200880FFE702A8008803
:1028300007281DD8FFE702A801880398C840C007F1
:1028400080B1FFE702A8018889000F228A40019920
:1028500091430191049900888000814001980843C8
:102860000190FFE7FFE70298401C02A90880DDE71E
:1028700002A908200880FFE702A800880F281FD8B7
:10288000FFE702A801880398C840C00790B1FFE79E
:1028900002A80188890020390F228A4000999143BB
:1028A00000910499008880002038814000980843F6
:1028B0000090FFE7FFE70298401C02A90880DBE7D1
:1028C00001980599086200980599486206B070471A
:1028D00082B00190009100980199886202B070471F
:1028E00082B00190009100980199886102B0704710
:1028F00082B00190009100980199C86202B07047BF
:1029000083B001900091019800690099084204D0B9
:10291000FFE702A90120087003E002A90020087067
:10292000FFE702A8007803B0704787B006900591D2
:10293000049203930698006801900698C06800907E
:1029400002A900200880FFE702A800880F282BD8E2
:10295000FFE702A801880398C840C007F0B1FFE76D
:1029600002A801884900032213468B40019999432C
:102970000191059B018849008B4001991943019100
:10298000018849008A400099914300910499008888
:1029900040008140009808430090FFE7FFE702985D
:1029A000401C02A90880CFE70198069908600098AA
:1029B0000699C86007B0704710B586B0059004A8A6
:1029C0000170039202930078012806D1FFE7029A72
:1029D000059948681043486005E0029A05994868DF
:1029E00090434860FFE705988068009001A90020A7
:1029F0000880FFE701A800880F281DD8FFE701A87D
:102A000001880298C840C00780B1FFE701A801888B
:102A1000490003228A40009991430091039900885C
:102A200040008140009808430090FFE7FFE70198CD
:102A3000401C01A90880DDE700980599886006B070
:102A400010BD000080B584B0BA4800F0A1FBC848B2
:102A500000F09EFB0920C006009000210291012396
:102A600003931A46FFF761FF00980299039A41F217
:102A70000003FFF75AFF00980299039A40F60003FB
:102A8000FFF753FF0299039ABA4801902023FFF7FA
:102A90004CFF01980299039A4023FFF746FF0198E3
:102AA0000299039A0823FFF740FF01980299039ABD
:102AB0001023FFF73AFF04B080BDC0460004004871
:102AC00080B584B03048C0780390102804D0FFE768
:102AD0000398112807D00DE00920C00648F2000134
:102AE000FFF7FEFE06E00920C00648F20001FFF7EE
:102AF000EFFEFFE7244800790290202804D0FFE78A
:102B00000298212807D00DE00920C00648F20001F4
:102B1000FFF7E6FE06E00920C00648F20001FFF7D5
:102B2000D7FEFFE7184840790190302804D0FFE72E
:102B30000198312807D00DE00920C00648F20001B5
:102B4000FFF7CEFE06E00920C00648F20001FFF7BD
:102B5000BFFEFFE70C4880790090402804D0FFE7D3
:102B60000098412807D00DE00920C00648F2000176
:102B7000FFF7B6FE06E00920C00648F20001FFF7A5
:102B8000A7FEFFE704B080BDF412002080B584B03A
:102B90000020039000F0B2F800F0CEF8FEF758F8ED
:102BA0000A200190FFF776FAFEF7A4F80198FFF7E4
:102BB00071FA314941200860FFE73048304901F09F
:102BC000B2FB08B9FFE7F8E72B4942200860FFE7AE
:102BD0002A482B4901F0A7FB08B9FFE7F8E7264987
:102BE0000D200860FFE72548254901F09CFB08B946
:102BF000FFE7F8E720490A200860FFE71F4820495F
:102C000001F091FB08B9FFE7F8E7FFF71BFF1D484C
:102C100001F050FE01F0ACF888B9FFE71A4801F066
:102C200049FE00F0C5FF194801F044FE00F0A0FF86
:102C3000174801F03FFE0A20FFF72CFAFFE715487E
:102C400001F038FEFFE700F0F7FFFFF735FDFEF774
:102C50001BF8FEF771F800200290FFE702980328A6
:102C600009DCFFE740F2E830FFF714FAFFE70298CB
:102C7000401C0290F2E7E6E72838014000380140A6
:102C800006070000E4520008485300088C52000870
:102C9000B65200081253000880B582B0014601A860
:102CA000017000214056FDF759FF02B080BD80B58C
:102CB00084B00A46014603A80190017002A90A7077
:102CC0000022009280560978FDF780FF0099019854
:102CD0004056FDF761FF04B080BD000082B0019056
:102CE000009101980099034A114008430249086085
:102CF00002B0704780FFFF1F08ED00E080B584B090
:102D00000C4800F045FA0920C0060290012100227B
:102D1000019248F200030393FFF707FE019902981E
:102D2000039B0322FFF748FE02980399FFF7D8FDA3
:102D300004B080BD1105000080B584B00C4800F0DF
:102D400027FA0C48029001210022019240F2002350
:102D50000393FFF7EAFD01990298039B0322FFF713
:102D60002BFE02980399FFF7B3FD04B080BDC04667
:102D7000120500000004004880B584B0039002A84A
:102D8000017001A900200870FFE701A8007802A9DE
:102D9000097888420DDAFFE7039801A90978415CB8
:102DA000074801F087FDFFE70198401C01A9087062
:102DB000EBE7024801F07EFD04B080BDD954000865
:102DC000CC53000880B582B0FEF70EFE012804D077
:102DD000FFE701A90020087023E0FEF795FE012817
:102DE00004D0FFE701A9002008701AE0FEF799FD62
:102DF0002820FEF7AAFF0020FEF79CFFFEF754FDF7
:102E0000FEF79EFCFEF7A6FCFEF77FFD012804D02E
:102E1000FFE701A90020087003E001A90120087064
:102E2000FFE701A8007802B080BD80B582B001A99B
:102E300000910870FEF775FD00980078FEF77AFFA4
:102E4000FEF732FDFEF77CFCFEF784FCFEF75DFD2D
:102E500002B080BD80B582B001A900910870FEF774
:102E600060FD00980078FEF770FFFEF71DFDFEF78D
:102E700067FCFEF76FFCFEF748FD02B080BD80B531
:102E800082B0FEF723F9012804D0FFE701A9002052
:102E900008700DE0FEF7ABF82820FEF7AFFA00202F
:102EA000FEF7A1FAFEF79DF801A901200870FFE7DF
:102EB00001A8007802B080BD80B584B001910146C0
:102EC0000198039102A908700398097840F2E8324A
:102ED000FEF730FA04B080BD80B582B001A9009140
:102EE0000870FEF784F800980078FEF77CFAFEF789
:102EF00078F802B080BD80B582B001A90091087059
:102F0000FEF775F800980078FEF778FAFEF769F892
:102F100002B080BD9CB01BA90870002001901A90DF
:102F20001990189017901690159014901390129075
:102F3000119010900F900E900D900C900B908B496B
:102F40000A918B4909910890079006910590049188
:102F50000390884800680C21084080081A901A984D
:102F6000029040B1FFE70298012807D0FFE70298DE
:102F7000022806D044E08248169044E0804816902B
:102F800041E07C4801680F2292041140890C1091A5
:102F900000680121C9060840C00E0F900F98012853
:102FA00004D1FFE71098113010900BE010980F2813
:102FB00003D1FFE71020109003E01098801C1090C0
:102FC000FFE7FFE76B480068012109040840000C97
:102FD0000E900E9870B1FFE7684800680F21084016
:102FE000401C0D900D996648B0FBF1F110984843D4
:102FF000169004E01099604848431690FFE702E0FD
:103000005F481690FFE75B480168C9B209090C9157
:103010000C9A07A9895C0B9116990B9AD1401591CE
:10302000016840F200721140090A0C910C9A05A93E
:10303000895C0B9115990B9AD1401491006843F665
:1030400000010840C00A0C900C9903A8405C0B904A
:1030500015980B99C84013901BA80078009005287C
:1030600000D97FE000998A0001A080188746C046F9
:1030700000F00AB800F00BB800F00CB800F00DB882
:1030800000F00EB800F040B8169817906BE0159855
:10309000179068E01498179065E01398179062E015
:1030A0003848006840F20011084088420FD0FFE71E
:1030B00034480068012109040840884203D0FFE732
:1030C0003248129002E030481290FFE719E0294898
:1030D000006880B2800B19902A480068C00F1890D1
:1030E000189838B1FFE715981999491CB0FBF1F011
:1030F000129005E013981999B0FBF1F01290FFE7D8
:10310000FFE7129817902EE01E480068800718B954
:10311000FFE71398119022E01A4800680321084045
:10312000012803D1FFE71698119017E015480068B1
:1031300003210840022804D1FFE748F20000119063
:103140000BE01048006803210840032803D1FFE783
:103150000B48119000E0FFE7FFE7FFE7FFE711985A
:10316000179000E0FFE717981CB0704706070809A2
:10317000010203040410024000093D002C1002402B
:1031800000127A0030100240003FAB01809FD50052
:1031900081B001466846018000881F220146114027
:1031A00001238B408109154A88581843885001B083
:1031B0007047C04681B001466846018000881F22E2
:1031C0000146114001238B4081090C4A88589843DD
:1031D000885001B07047C04681B001466846018002
:1031E00000881F220146114001238B408109034AB8
:1031F00088581843885001B07047C04600100240FC
:1032000080B586B0059005982C210491FCF78FFFBE
:103210000498059A12491160059A01219180059A36
:10322000D0800598083064220192009228220292F0
:103230001023039300F016F80199029A039B059856
:1032400018300091022100F00DF80499059A002031
:103250001085059800F004F90599088506B080BD31
:1032600043464652B0B586B004460A98059404AC6D
:10327000217003A90A7002A90B7001A908700599B1
:103280000020C860886048600860059A7149116034
:10329000059A01219180059A1121D1800499059AFE
:1032A00011720399059A51720299059A91720199C6
:1032B000059AD172059988810598102100F0D0F8FF
:1032C0000599888106B0B0BD82B00A46014601A8C2
:1032D000017069460A700078097841430248484302
:1032E0000249401802B07047C40900000018DD19F7
:1032F00080B582B00090009800F040F8012807D017
:10330000FFE71D4801F0D6FA01A9002008702BE064
:103310000098007A01280FD1FFE70098407AFFF764
:10332000EAFD0098807AFFF7D7FD124801F0C2FA53
:1033300001A90120087017E00098007A02280FD137
:10334000FFE70098407AFFF785FD0098807AFFF745
:103350006CFD074801F0AEFA01A90120087003E0F6
:1033600001A900200870FFE701A8007802B080BD25
:10337000DC540008155500086955000883B0019019
:10338000019820B9FFE702A9002008705DE00198CC
:1033900000683049884204D0FFE702A90020087085
:1033A00053E001988088012804D0FFE702A900209B
:1033B00008704AE00198007A012809D0FFE70198D7
:1033C000007A022804D0FFE702A9002008703CE040
:1033D0000198407A20B9FFE702A90020087034E084
:1033E0000198C07A20B9FFE702A9002008702CE0FC
:1033F0000198C07A652804DBFFE702A90020087065
:1034000023E00199887AC97A884204DBFFE702A9A0
:103410000020087019E00199487AC97A491E414391
:10342000192048430A21B0FBF1F00B4940180090E5
:1034300000980A49884204D3FFE702A900200870D7
:1034400003E002A901200870FFE702A8007803B09A
:103450007047C04647434652009F0600ADC5060070
:1034600086B0049003A8018002A92548088004982A
:1034700020B9FFE705A9002008803CE001A9002051
:103480000880FFE701A8008803A9098888422EDA8E
:10349000FFE7049801A90988415C0298484002A905
:1034A0000880694600200870FFE768460078072812
:1034B00017DCFFE702A80088C00738B1FFE702A9C0
:1034C000088840080F4A5040088004E002A9088894
:1034D00040080880FFE7FFE70098401C6946087035
:1034E000E3E7FFE70198401C01A90880CAE70298BA
:1034F00005A90880FFE705A8008806B07047C04608
:10350000FFFF000001A0000070B594B0044612A8AF
:10351000047011AC217010A90A700FA90B70484AF1
:1035200004A938CA38C178CA78C178CA78C1007885
:10353000012805D0FFE712A80078032818D1FFE77B
:1035400004A80830039011A90A7810A90B780FA9D4
:10355000097800910121FFF785FE0398FFF70EFF20
:10356000012804D0FFE713A90020087063E0FFE7FB
:1035700012A80078022805D0FFE712A800780328D7
:1035800018D1FFE704A81830029011A90A7810A9F1
:103590000B780FA9097800910221FFF763FE0298CA
:1035A000FFF7ECFE012804D0FFE713A90020087004
:1035B00041E0FFE704A800F08BF820B9FFE713A96A
:1035C0000020087037E012A80078012805D0FFE736
:1035D00012A8007803280CD1FFE704A80830FFF7F1
:1035E00087FE012804D0FFE713A90020087022E01D
:1035F000FFE712A80078022805D0FFE712A800789C
:1036000003280CD1FFE704A81830FFF771FE01284A
:1036100004D0FFE713A9002008700CE0FFE708487A
:1036200004A91CC91CC03CC93CC03CC93CC013A96E
:1036300001200870FFE713A8007814B070BDC046E1
:103640003410002083B0019068460170019820B1C9
:10365000FFE70198006820B9FFE702A90020087081
:1036600013E001980068007869460978884204D020
:10367000FFE702A90020087007E001990868401CD4
:10368000086002A901200870FFE702A8007803B0D3
:1036900070470000B0B584B00290029820B9FFE7EF
:1036A00003A9002008700FE0484801900298019992
:1036B0001CC91CC03CC93CC03CC93CC0029800F0BD
:1036C00087F803A90870FFE703A8007804B0B0BD2D
:1036D00080B594B01290129820B9FFE713A900208A
:1036E00008706EE012996C48086012990120888079
:1036F00012982C21C180129A00205085129A1085B0
:103700001298FFF7ADFE12990885FEF78BFF3C205B
:10371000FEF7F4FE2D48FEF7FFFE01460EA80170ED
:10372000007830B1FFE7FEF7F1FE13A90020087022
:1037300047E02648119000201090FFE710982B28B2
:1037400025D8FFE71299109A88188A5C41780902F7
:10375000891882781204C0780006801840180F90EB
:103760001198109940180F99FEF770FF01460EA8A6
:103770000170007830B1FFE7FEF7C8FE13A9002002
:1037800008701EE0FFE71098001D1090D6E7FEF7C6
:10379000BDFE03A802900D492C220192FCF7AEFC5D
:1037A000019A02981299FCF7CDFC20B1FFE713A90A
:1037B0000020087005E003A800F00AF813A90870BB
:1037C000FFE713A8007814B080BDC04600FC0008D5
:1037D00070B590B00E900E9820B9FFE70FA90020A9
:1037E000087054E00E9800682B49884204D0FFE727
:1037F0000FA9002008704AE00E988088012804D0A4
:10380000FFE70FA90020087041E00E98C0882C281F
:1038100004D0FFE70FA90020087038E00E9A03A833
:10382000014638CA38C178CA78C178CA78C10D99BA
:1038300002AA00921180002101852C21FFF710FEC1
:103840000246009801A90A8000880988884204D0AD
:10385000FFE70FA90020087019E003A80830FFF760
:103860008DFD012804D0FFE70FA9002008700EE0AD
:1038700003A81830FFF782FD012804D0FFE70FA945
:103880000020087003E00FA901200870FFE70FA8CF
:10389000007810B070BDC0464346465280B58CB02B
:1038A0000B900B9808B9FFE73AE063200190FDF711
:1038B000F5FC0AA90391087064200290FDF7EEFC64
:1038C0000146019809AA04921170FEF7EDF901462C
:1038D000029808AA05921170FEF7E6F903990246CC
:1038E000049807AB06931A700A9A0B9B5A70099AB0
:1038F0000B9B1A7000780978FFF7E6FC05990246E1
:1039000006980B9B5A60089A0B9B5A72079A0B9B5E
:103910001A7200780978FFF7D7FC0B99C860FFE7A7
:103920000CB080BD10B586B0089C04900391029243
:103930000193049860B1FFE7039848B1FFE702984C
:1039400030B1FFE7019818B1FFE7089820B9FFE709
:1039500005A900200870A7E004980090009800785E
:1039600053280FD1FFE70098407845280AD1FFE798
:1039700000988078542805D1FFE70098C0782C285B
:1039800004D0FFE705A9002008708DE00098001D15
:10399000009000980078542811D1FFE700984078F3
:1039A00058280CD1FFE7009880782C2807D1FFE732
:1039B0000399012008700098C01C00903BE000981B
:1039C0000078522811D1FFE70098407858280CD190
:1039D000FFE7009880782C2807D1FFE703990220A1
:1039E00008700098C01C009024E0009800784228DD
:1039F0001BD1FFE7009840784F2816D1FFE70098C9
:103A00008078542811D1FFE70098C07848280CD15D
:103A1000FFE7009800792C2807D1FFE703990320DE
:103A200008700098401D009003E005A90020087070
:103A30003AE0FFE7FFE70299684600F039F820B95D
:103A4000FFE705A9002008702EE068462C21FFF74B
:103A5000F9FD20B9FFE705A90020087024E00199CD
:103A6000684600F025F820B9FFE705A90020087096
:103A70001AE068462C21FFF7E5FD20B9FFE705A90C
:103A80000020087010E00899684600F011F820B98D
:103A9000FFE705A90020087006E000980078414281
:103AA000484105A90870FFE705A8007806B010BDD9
:103AB00089B00790069104A90020088003A9087026
:103AC000079838B1FFE70798006818B1FFE7069834
:103AD00020B9FFE708A90020087045E007980068B2
:103AE0000590FFE7059801780020302902900DDB52
:103AF000FFE7059801780120002200923A29019001
:103B000001DB0098019001980290FFE70298C0073E
:103B1000C0B1FFE704980A21414305980078411895
:103B2000303904A801800399491C03AA1170407818
:103B300020B1FFE708A90020087015E00598401C97
:103B40000590CFE703A8007820B9FFE708A9002077
:103B5000087009E0049806990870059807990860AC
:103B600008A901200870FFE708A8007809B070478D
:103B700080B588B004A80390FFF790FE0398027800
:103B800043780598019000930748114600F092FE93
:103B90000398027A437A07980190009303481146EC
:103BA00000F088FE08B080BD8F5400084254000821
:103BB00080B586B01C48029002A801900122828044
:103BC0001121C18028214172102181726423C372A6
:103BD000027200228281FFF743FC01460198818135
:103BE000FFF786FB012804D0FFE7124800F062FED1
:103BF00018E002A8009002210172002181811021A9
:103C0000FFF72EFC014600988181FFF771FB012828
:103C100004D0FFE7064800F04DFE03E0034800F043
:103C200049FEFFE706B080BD47434652FB540008FB
:103C3000485500083455000880B59AB047480078C8
:103C400008B9FFE787E01B20FFF726F84448018802
:103C500009A8018000883F2807D8FFE709A8028843
:103C600040490AA8FCF74AFAFFE73D4900200880CE
:103C70003A4908703B4908701B200221FFF717F8EA
:103C800009A8008828B1FFE709A80088402804D3C4
:103C9000FFE7354800F026FD5DE009A802880AA983
:103CA00000208854099808A90880FFE708A801881F
:103CB00000200290C9B1FFE708A800880AA94018AF
:103CC000401E017801200D2901900BD0FFE708A8C4
:103CD00000880AA94018401E00780A38414248412D
:103CE0000190FFE701980290FFE70298C00728B112
:103CF000FFE70898401E08A90880D7E708A80288AF
:103D00000AA80021815404A9009107A906AA05ABBD
:103D1000FFF708FE014603A80170007868B1FFE7CD
:103D200007A8007806A9097805AA127804AB1B78C1
:103D3000FFF7EAFB03A90870FFE703A8007830B19A
:103D4000FFE70A4800F0CEFCFFF712FF03E0064849
:103D500000F0C8FCFFE71AB080BDC046301000205C
:103D600032100020300000208A5300087D530008E4
:103D700080B582B01448FFF78DFC38B9FFE71248D0
:103D8000FFF73EFA01A90020087019E00E4808303C
:103D9000FFF7AEFA012804D0FFE701A90020087060
:103DA0000EE009481830FFF7A3FA012804D0FFE716
:103DB00001A90020087003E001A901200870FFE7B5
:103DC00001A8007802B080BD3410002081B00090BE
:103DD0000099086840229043086001B0704781B0A4
:103DE00000900099086840221043086001B07047B5
:103DF00082B0019068460180019A516841F2000347
:103E0000994351600288019948681043486002B0A4
:103E10007047000084B0039002A8018003988E4987
:103E2000884205D1FFE702A800880399C86015E021
:103E30000398406841F2000108400090009838B1B2
:103E4000FFE703980C30019002980199087004E094
:103E500002A800880399C860FFE7FFE704B0704735
:103E600080B584B00390039802902E4988420ED00A
:103E7000FFE702987849884211D1FFE740F20C3001
:103E80000190FFF7A9F90198FFF794F908E00548B8
:103E90000090FFF7A1F90098FFF78CF900E0FFE729
:103EA00004B080BD0E04000083B001900091019821
:103EB00080680099084204D0FFE702A90120087039
:103EC0002BE001981749884223D1FFE7009870B989
:103ED000FFE701988068C004800F20B1FFE702A9C6
:103EE0000020087019E002A90120087015E0009870
:103EF00070B9FFE7019880684005800F20B1FFE7A7
:103F000002A90020087008E002A90120087004E05E
:103F1000FFE702A900200870FFE702A8007803B0BD
:103F20007047C0460038004086B0049003910020DE
:103F30000090049800680290029843F24001084003
:103F40000290049800680190019843F640010840EF
:103F5000019004984068009000983E490840009005
:103F600004983D4988423DD1FFE7039801680298D3
:103F7000084302900398416802980843029003980E
:103F8000C1680298084302900398016902980843A7
:103F9000029003984169029808430290039881694E
:103FA0000298084302900398806840F200718842AA
:103FB0000BD0FFE70398806840F60071884204D078
:103FC000FFE705A90020087040E00398816840F6EB
:103FD00000000140029808430290FFE7029804990C
:103FE000086029E00398016801980843019003984C
:103FF00041680198084301900398C16801980843FB
:104000000190039801690198084301900398416960
:104010000198084301900398816901980843019031
:1040200001980499086003988168009808430090FB
:10403000009804994860FFE70499C86940F60002B7
:104040009043C86105A901200870FFE705A8007822
:1040500006B07047FFF000000030014081B00090D2
:1040600000990020086000994860009A40F20071B1
:1040700091600099C860009948610099886101B019
:104080007047000084B00020039002903049086817
:10409000012210430860FFE70398401C03902C485E
:1040A0000068022108400290FFE702990020019079
:1040B00041B9FFE7039840F20051401A411E884180
:1040C0000190FFE70198C0070028E5D1FFE72048ED
:1040D00000688007002802D4FFE7FFE7FEE71D49DC
:1040E0000868022210430522904308601A49009193
:1040F0000868086008680860086808600868174A67
:10410000104008600868164A1043086010490868A3
:104110000122120610430860FFE70D480068800185
:10412000002801D4FFE7F8E70B4908680322904311
:1041300008600868022210430860FFE7064800682C
:104140000007002801D4FFE7F8E704B07047C04635
:10415000001002400020024004100240FFFFC2F79E
:104160000000040880B5FFF78DFF80BD81B000908E
:104170000098042806D1FFE7064908680422104386
:10418000086005E003490868042290430860FFE7DF
:1041900001B0704710E000E080B50420C043FFF795
:1041A000E5FF08480068FCF755F80749FCF714F8E4
:1041B00001460648016000680549FBF7D0FF054944
:1041C000086080BD040000200024F44A2C00002078
:1041D00000007A442800002080B588B0079006913E
:1041E00000200590049003900290079801903749B1
:1041F00088420AD0FFE70198964988420AD1FFE732
:104200000520FEF787FE059005E00220FEF782FEFE
:10421000059000E0FFE7079800680004002818D523
:10422000FFE70598400006994A088018B0FBF1F0B6
:104230000290029813490840049002980007400F2A
:10424000039004A8008803A9098808430799C86057
:1042500016E0059806994A088018B0FBF1F0029024
:10426000029808490840049002980F2108400390E2
:1042700004A8008803A9098808430799C860FFE7D4
:1042800008B080BDF0FF000080B584B003900398B3
:1042900002900E4988420DD0FFE70298D349884228
:1042A00010D1FFE70B480190FEF796FF0198FEF74B
:1042B00081FF08E006480090FEF78EFF0098FEF7A9
:1042C00079FF00E0FFE704B080BDC0460044004035
:1042D000110400000E03000082B0019000910199CA
:1042E0008868402290438860009A0199886810434A
:1042F000886002B0704782B001900091019988688F
:10430000802290438860009A0199886810438860F1
:1043100002B0704781B000900099086801221043F4
:10432000086001B0704784B0009101460098029186
:1043300001A9088002980A889209805809881F22DA
:104340001140C840C00720B1FFE703A90120087051
:1043500003E003A900200870FFE703A8007804B079
:104360007047000080B58AB0099038480090FEF789
:104370000FFF0098FEF70CFF3548FEF709FF40F2EB
:104380000050FEF705FF0920C006019001210791AA
:1043900004220592FEF73CFA01980799082204923C
:1043A000FEF736FA0198059B079A02210891FEF75D
:1043B000BCFA0198049B079A0899FEF7B6FA01988F
:1043C000059B0021039103220292FEF7F5FA019862
:1043D000029A0399049BFEF7EFFA84480690FFF7D0
:1043E00053FF06980999FFF7F7FE0399069800F026
:1043F000A6F80399069800F047FA0399069800F08A
:104400008FF90698FFF786FF0499069800F09DF94A
:104410000599069800F0A8F80698052100F01CF808
:104420000599069800F029F8069840F2002100F05E
:1044300024F807990A20FEF73AFC08991B20FEF79A
:1044400036FC00F0A1F80AB080BDC046110500009E
:104450000E0600000038014082B0019068460180DD
:1044600000881F220146114001238B4001998209D7
:1044700088589843885002B0704782B001906846CF
:10448000018000881F220146114001238B400199C1
:10449000820988581843885002B0704782B0019052
:1044A000009100980C49884208D1FFE70199D02279
:1044B000885848F20003984388500BE000981F2169
:1044C00009040840000C012282400199086A104347
:1044D0000862FFE702B0704709340F3410B585B0A9
:1044E00003900291002001900090039802A909888E
:1044F00089094058029C1F231C4001210A46A24002
:10450000104001900398029A920D8058029A1B0461
:104510001A40120C914008400090009838B1FFE713
:10452000019820B1FFE704A90120087003E004A965
:1045300000200870FFE704A8007805B010BD82B025
:104540000190009101990868012290430860019947
:10455000086840F2006290430860009A0199086878
:104560001043086002B0704782B001900091019939
:104570000868042290430860009A01990868104373
:10458000086002B07047000080B58AB00220029037
:10459000FDF724FE03A80090FDF77AFF009902982A
:1045A000114A03921E4A0592002204920692802329
:1045B00007930A76012301934B768A7642F2000232
:1045C0000892FDF747FE0298FDF7FAFD019902985F
:1045D000FDF730FEAB484021FFF77EFE0298FDF765
:1045E000E1FD0AB080BDC0462438014000380140DA
:1045F00080B582B002200190FDF7C6FD0198084900
:10460000FDF734FF01988021FDF75AFF0198012141
:10461000FDF710FE0198FDF7C5FD02B080BDC04654
:104620006410002010B586B0049003A8018002A990
:1046300000200880049820B1FFE703A8008820B973
:10464000FFE705A9002008803BE00A20FEF724FBD5
:10465000FFE702A8008803A90988884227DAFFE754
:1046600084480088411C01A801800088400A20B1CC
:10467000FFE701A900200880FFE701A800887C4926
:104680000988884205D1FFE710490868401C086086
:104690000DE0049802A90A88805C764A1488784B59
:1046A0001855019810800298401C0880D1E700F04E
:1046B00075F80A200121FEF7FAFA029805A9088088
:1046C000FFE705A8008806B010BDC046EC1000202A
:1046D00080B582B0014601A801700121FFF7A2FF59
:1046E00002B080BD80B582B001906946002008808C
:1046F000019808B9FFE711E0FFE7019869460988CA
:10470000405C28B1FFE70098401C69460880F4E748
:10471000019869460988FFF785FFFFE702B080BD71
:1047200082B00190009101990868012290430860CD
:104730000199486843F2000290434860009A019949
:1047400048681043486002B0704782B00190009101
:1047500001990868082290430860009A0199086846
:104760001043086002B0704780B50120FDF70CFDD2
:10477000414802883E480188891801800088400A23
:1047800020B1FFE73A4900200880FFE73A490020BE
:1047900008803649087000F001F880BD80B58AB005
:1047A0003248007808B1FFE75DE0314800883149C0
:1047B0000988884205D1FFE732480021FFF79BFDB9
:1047C00051E02C4800882A490988884208DDFFE723
:1047D0002848008826490988401A02A9088007E06D
:1047E0002348018840F20020401A02A90880FFE710
:1047F0001E4901200190087002991F4A1180FDF79F
:10480000C3FC0198FDF7EAFC03A80090FDF740FE09
:1048100000990198194A0392154A1388184AD21828
:10482000059200220492069202AB1B8807930A7637
:104830004876887641F200020892FDF70BFD019957
:104840000846FDF7F7FC01980221FDF78BFD019862
:104850000821FDF787FD0B488021FFF74CFD0198EB
:10486000FDF7A0FCFFE70AB080BDC046E8100020BD
:10487000F0120020F2120020EA1000202838014037
:10488000F01000200038014082B0019000910199A1
:1048900008680122904308600199086841F200020B
:1048A00090430860009A019908681043086002B0BC
:1048B000704700000FB410B503A9044B044A0298D6
:1048C00000F0E8F810BC08BC04B01847A1260008A6
:1048D000000000202021020C01D010211046020A05
:1048E00001D010460839020901D01046091F82087C
:1048F00001D01046891E420801D0881E7047081A50
:10490000704702E008C8121F08C1002AFAD1704798
:104910007047002001E001C1121F002AFBD170473F
:10492000F0B51FB486B00998089A030D0021024320
:1049300014D05148514A18185043051411980128B1
:1049400010981AD0281A401C00264D4F4D49009649
:1049500001910490002812DA444211E011980124D8
:1049600049A3012801D11098C1430698119A846087
:104970000360C26041600BB0F0BD4042E4E7044612
:10498000210500203F4A001C51410391029012E092
:10499000E00707D032463B4601990098FBF798FDA7
:1049A0000191009032463B4610461946FBF790FDB8
:1049B00006460F466410002CEAD10498039B002899
:1049C000029A0999089806DAFBF782FD019B009A82
:1049D000FBF77EFD05E0FBF7E3FD019B009AFBF78B
:1049E000DFFD04460E460022284BFBF771FE03D87C
:1049F0000020C043014607E00022254B20463146F7
:104A0000FBF7B4FCFBF744FE102409E0002C0ADBA2
:104A10000A220023FBF739FC079B30321A55641E2B
:104A200002460A43F2D11122641C079B121B1C1977
:104A3000119B012B03D0012308430ED10AE0084348
:104A400004D0112010900020119077E71098151ACB
:104A50006D1E0BE01098824202DD00236D1C03E006
:104A6000824201DA00236D1E002BEED006981199C8
:104A70008260C16030C07EE701FCFFFF104D000086
:104A8000000014400000F03F300000000000F04340
:104A90000000E03FFFB597B00646002518E2252844
:104AA00077D100242746FD49049400E00443761C96
:104AB00032780120203A90400842F7D130782A28F5
:104AC0000ED00222307801463039092916D80499CF
:104AD0000A235943303940181443761C0490F1E7F7
:104AE000189802C804911890002904DA01204003A4
:104AF00004434842049002200443761C30782E2858
:104B000014D1042004437078761C2A2809D11898FF
:104B1000761C80C8189009E00A214F43303FC7191E
:104B2000761C3078014630390929F5D930786C285F
:104B300010D006DC4C281AD068280ED06A2817D16D
:104B400004E0742813D07A2812D110E00120400527
:104B500004430CE00121090501E0032109050C4390
:104B60007178814203D1012000052418761C761C3F
:104B70003078119066280BD013DC58287DD009DCE2
:104B800000287BD04528F6D04628F4D047281AD1F3
:104B9000A5E118E0632835D0642870D0652812D1CB
:104BA0009DE170286CD008DC6728F1D069287BD0A3
:104BB0006E280DD06F2806D1BAE073282ED0752844
:104BC00071D0782859D01A9A199990476D1C7EE1B6
:104BD0006002400F022809D003280DD0042818983D
:104BE00001680DD00D60001D189070E11898EA174B
:104BF00001680D604A60F6E7189801680D80F2E7D9
:104C00000D70F0E718986A4601781172001D18902F
:104C10000020507202A80090012005E0189802C8F8
:104C2000189000200091C04361070DD5002101E0DC
:104C30000199491C0191B94212DA8142F8DB009ACC
:104C4000515C0029F4D10BE0002101E00199491CDD
:104C500001918142FADB019A0099895C0029F5D122
:104C6000019904981A9B471A21463846199A00F070
:104C700097FA0199401945180BE04FE02CE113E039
:104C80004EE0009800990078491C00911A9A1999F1
:104C900090470198401E0190401CF2D121463846B1
:104CA0001A9B199A10E137E00A2000210090019127
:104CB0006002410F022907D0189A01CA1892C21740
:104CC0009446032908D00AE01898C01DC108C900FD
:104CD00005C91891944607E000B2C217944604290A
:104CE00002D140B2C1178C4600226146944506DAD3
:104CF0000A460021404291418C462D2102E02105C7
:104D000004D52B216A461173012103E0E10701D08C
:104D10002021F7E7029155E00A200AE0102008E080
:104D2000102000900021042004430191082703E093
:104D300008200021019100906002410F022907D054
:104D4000189A01CA189200229446032908D008E054
:104D50001898C01DC108C90005C91891944603E000
:104D600080B2042900D1C0B200210291210729D5C7
:104D70001199702906D0009A1021019B4A401A43CC
:104D800005D00EE040216A461173012108E061461A
:104D9000014306D030216A461173119951730221E3
:104DA0000291009A0821019B4A401A430AD16146A8
:104DB000014301D1610705D530216A4611730121F4
:104DC0007F1E02911199582904D035A10E910DA989
:104DD0000D910DE037A1F9E76146019B009AFBF7C1
:104DE00054FA0E9B8C469B5C0D9A521E0D921370CA
:104DF00061460143F0D10D9805A9081A20300190B1
:104E0000600703D501200004844300E001270198D6
:104E1000874201DD381A00E0002001990090411816
:104E2000029809180498401A0490E00306D4214619
:104E30001A9B199A049800F0B3F94519002706E067
:104E400003A81A9AC05D199990476D1C7F1C02989F
:104E50008742F5DBE0030CD521461A9B199A04988A
:104E600000F09EF9451904E01A9A302019999047EC
:104E70006D1C0099481E00900029F5DC08E00D9893
:104E80000D990078491C0D911A9A199990476D1C3B
:104E90000199481E01900029F1DC63E10928010015
:104EA00030313233343536373839616263646566A0
:104EB0000000000030313233343536373839414262
:104EC000434445460000000000F05AF94519761C9D
:104ED0003078002800D0E2E528461BB0F0BD60071E
:104EE00000D406271898C01DC108C90048680A6880
:104EF0000831C30FDB071891190001D09CA108E00D
:104F0000210501D59BA104E0E10701D09AA100E0B1
:104F10009AA1430011985B08109165280CD006DC1B
:104F2000452809D046281DD0472841D141E06628B0
:104F300018D067283CD13CE00021112F01DB112063
:104F400000E0781C0191009008A911A8FFF7E8FC87
:104F5000139905910021119A15927F1C12980197BF
:104F6000009150E00120C00703900120019008A9A2
:104F7000009711A8FFF7D4FC139A14990592002208
:104F8000119B009212981593059A0192002901D065
:104F9000104602E0791C40180190381A01D501989A
:104FA00004E04042401E0090781C0190C01B02901B
:104FB00043E0012F00DA01270021112F01DD11202C
:104FC00000E038460191009008A911A8FFF7A8FC5D
:104FD00013990591119A0021129815920091019749
:104FE00021070CD40599B94201DB019900E0019138
:104FF000012904DD159A491E515C302906D0B842BA
:1050000001DA011D05DA0121029115E00199491E1D
:10501000EDE7002805DC0099411800910199091A73
:1050200003E0019A411C914200DD01910099401A70
:10503000401C02900120C0070390200706D402996B
:105040000198814202DB0020C043029000206946A3
:10505000C87707AF012103980337C907884224D0D6
:10506000022011902B201290039800280CDA404265
:1050700003902D20129007E00A210398FBF754FBC0
:1050800030317F1E039039701199481E119000290C
:10509000F2DC03980028EFD1791E1298087030785E
:1050A000202108404530BF1E387006A8C01BC01D17
:1050B000039010980078002800D001200199411831
:1050C0000298C0170918039809180498401A401E3E
:1050D0000490E00306D421461A9B199A049800F024
:1050E0005FF8451910980078002803D01A9A19998A
:1050F00090476D1CE00324D521461A9B199A049809
:1051000000F04EF845191CE00098002807DB0099D4
:105110000598884203DD1598405C199901E01999BA
:1051200030201A9A904700986D1C401C00900298FD
:10513000401E0290002804D11A9A2E2019999047F7
:105140006D1C0199481E01900029DDDC05E03878CE
:105150001A9A7F1C199990476D1C0399481E039059
:105160000029F4DC21461A9B199A0498ACE6000049
:105170002D0000002B0000002000000000000000B7
:10518000F8B5044600251E461746880404D405E0F9
:1051900039462020B0476D1C641EF9D52846F8BD5D
:1051A000FFB50446002581B01E46C80301D530274F
:1051B00000E02027880404D505E038460399B0476D
:1051C0006D1C641EF9D5284605B0F0BD120800AA72
:1051D000040000000000D42DAA001F000000000001
:1051E00001000060FF00001F104066EC1CF08014FE
:1051F00008910202D0CA601033E136190A9F38299B
:1052000029C0940A530800B400000100004271CE86
:105210001C425B1C1CAEE0710000F410E242200056
:1052200081709A0C000F90001F063F7F120800AAA1
:10523000040000000000D42DAA001F0000000000A0
:1052400001000060FF01001F100266EC1CF08014DA
:1052500008910202D0CA601033E136190A9F38293A
:1052600029C0940A530800B400000100004271CE26
:105270001C425B1C1C7FAEE0710000F410E2422077
:105280000081709A0C000F90001F043F3D3D3D20AF
:105290005B4442475D2072665F746573745F617042
:1052A000706C795F636F6E66696720646F6E6520EE
:1052B0003D3D3D0D0A003D3D3D205B4442475D20A4
:1052C00072665F7072696E745F74785F72785F7215
:1052D00065616C5F6672657120646F6E65203D3D2F
:1052E0003D0D0A003D3D3D205B4442475D20626527
:1052F000666F72652072665F756172745F636F6E50
:105300006669675F726573746F7265203D3D3D0D20
:105310000A003D3D3D205B4442475D20636F6E6661
:10532000696720706861736520646F6E652C206505
:105330006E746572696E67206D61696E206C6F6F47
:1053400070203D3D3D0D0A003D3D3D205B44424700
:105350005D20666C61736820696E76616C69642C8F
:10536000206170706C792064656661756C74203D95
:105370003D3D0D0A00545820696E6974204F4B0D55
:105380000A00545820696E6974204552524F520DDC
:105390000A000D0A5458204F4B2C20636F756E7411
:1053A0003D25750D0A000D0A5458204552524F52A2
:1053B0002C20636F756E743D25750D0A00545820BE
:1053C0005573657220646174613A2000253032584B
:1053D0002000525820696E6974204F4B0D0A0067F7
:1053E0006F5F7278204641494C0D0A00525820697F
:1053F0006E6974204552524F520D0A005258206E69
:105400006F20706B742C20464C41473D307825301E
:1054100032582C205354413D3078253032580D0AF3
:1054200000504131352068696768740D0A00525890
:105430002063686970204649464F20646174613A70
:1054400020005258207265616C207265672064618B
:1054500074613A202066685F6F66667365743D25E7
:105460007528307825303258292C66685F6368616A
:105470006E6E656C3D257528307825303258292CA4
:1054800020667265713D256C7520487A0D0A0054BE
:1054900058207265616C2072656720646174613A9E
:1054A000202066685F6F66667365743D25752830D9
:1054B0007825303258292C66685F6368616E6E65A6
:1054C0006C3D257528307825303258292C2066729D
:1054D00065713D256C7520487A0D0A004368656347
:1054E0006B20616E6420436F6E666967205258209E
:1054F0004150504C59204F4B0D0A005553415254C6
:105500002052462054582F5258204150504C592078
:105510004F4B0D0A00436865636B20616E64204346
:105520006F6E666967205458204150504C59204F87
:105530004B0D0A005246205458204150504C5920DF
:105540004552524F520D0A00555341525420524673
:1055500020747820616E64207278204150504C593C
:10556000204552524F520D0A00436865636B20611B
:105570006E6420436F6E666967204552524F520D2C
:105580000A000000A85500080000002028000000C4
:1055900002490008D055000828000020001700002C
:1055A00012490008000000000000000000A24A04A8
:1055B000112233445566778899AABBCCDDEEFF00F3
:1055C0000102030405060708090A0B0C0D0E0F1053
:04000005080000CD22
:00000001FF
