:020000040800F2
:1000000060140020E1000008E1020008DD020008A1
:1000100000000000000000000000000000000000E0
:10002000000000000000000000000000E5020008E1
:100030000000000000000000E3020008E7020008E2
:10004000F3000008F3000008F3000008F3000008C4
:10005000F3000008F3000008F3000008F3000008B4
:1000600000000000F3000008F3000008F30000089F
:10007000F3000008F3000008F3000008000000008F
:10008000F3000008F300000800000000F30000087F
:10009000F3000008F3000008F3000008F300000874
:1000A000F3000008F3000008F300000895030008BF
:1000B000F300000800000000000000000000000045
:1000C000F300000800000000F30000080348854624
:1000D00000F0ECF80048004701130008601400200D
:1000E0000448804704480047FEE7FEE7FEE7FEE7D6
:1000F000FEE7FEE7E9020008CD000008024670B501
:100100004A40D30FDB0740002DD04A002AD0010E11
:10011000140E000212020919400A520A8418E5015D
:1001200004465443000A120A2E045043A4194219EB
:10013000200CC543AA18120C0125AD03521C5219FC
:1001400012047F39240400D0521C104301D4400013
:10015000491EC2B20C06C0092018401C4008802A63
:1001600002D003E0002070BD40084000002900DA02
:100170000020184370BD70B502464A40D50F4000BC
:100180004A00ED0740085208002814D0002A12D077
:10019000C40DD30D41020120C0055202490A520A82
:1001A000E41A091812187D34914201D3641C00E04E
:1001B0004900002C01DA002070BD0023914201D3D8
:1001C000891A0343400849000028F7D100290AD0C2
:1001D000914202D10121C90705E0914201D20121DA
:1001E00001E00121C943E005C018401900F01CF8E6
:1001F00070BD10B500229623114600F01DF810BD09
:10020000410040020122400AD205090E80187F29D0
:1002100001DA00207047962903DC9622511AC84063
:100220007047963988407047002904DA401C49001D
:1002300001D140084000704770B40024050C05D17E
:100240001024000402D1002921D01124050E01D16F
:1002500000020834050F01D10001241D850F01D1D2
:100260008000A41C002801DB4000641C002908D089
:1002700020252E1B0D46F540A14000D00121294329
:10028000084301061B1B000ADB1D02D5002070BCC1
:100290007047DB05181880180029F8DA401C49005F
:1002A000F5D170BC40084000704700001CB50948FB
:1002B00000900948019005460126009C05E0E3688E
:1002C00007CC33430C3C98471034AC42F7D3FFF7CC
:1002D00001FF00005417000874170008FFE7FEE74D
:1002E000704770477047704780B582B020490868F2
:1002F000012210430860FFE71D48006880070028BE
:1003000001D4FFE7F8E71B4908681B4A1040086062
:1003100008681A4A1040086015490868184A1040D1
:100320000860184908680F22904308601649086859
:1003300040F20312904308600868012200921304FF
:10034000984308600868D307984308600F49086815
:10035000904308600E4900200190086001F00CF9FC
:1003600000980199C00600F0F9FF02B080BDC046B8
:1003700000100240041002400C00FF08FFFFC2778B
:10038000FFFFF2FE2C1002403010024034100240F9
:100390000810024080B582B01548164901F06AF98C
:1003A00001280AD1FFE7124801F03AF9124B1A88E6
:1003B000511C198011498854FFE70D48104901F07C
:1003C00059F9012811D1FFE70948019001F028F9F6
:1003D000019809490B88094A0021D154094A012191
:1003E0001170074901F026F9FFE702B080BDC04651
:1003F0000038014005000507121000201000002001
:10040000040004071010002080B582B06620FF2190
:10041000019100F051FA0199672000F04DFA02B005
:1004200080BD80B56320012100F046FA80BD80B513
:1004300084B003AB1870029101A8027069460020D5
:100440000870FFE76846007801A9097888420FDA4A
:10045000FFE7039869460A7880180299895CC0B260
:1004600000F02AFAFFE70098401C69460870E9E7A7
:1004700004B080BD80B50920C006102100F096FEB2
:1004800080BD80B50920C006102100F087FE80BD28
:1004900080B582B00190019800F006FE02B080BDE8
:1004A00080B582B00190019800F038FE02B080BDA6
:1004B00080B55748012100F079FE80BD80B55448D1
:1004C000012100F06BFE80BD80B56020012100F0AD
:1004D000F3F980BD80B56020022100F0EDF980BD08
:1004E00080B56020042100F0E7F980BD80B5484860
:1004F000022100F063FE411E884180BD80B582B0BC
:1005000000F015F91149002201921046FFF78FFF04
:10051000019A0F490C20FFF78AFF019A0D49182014
:10052000FFF785FF019A0C492020FFF780FF019A11
:100530000A493820FFF77BFF019A09495520FFF748
:1005400076FFFFF7C1FF012002B080BDF41600085E
:10055000F4160008F4160008F4160008F416000853
:10056000F416000880B58AB02748029000F082FF98
:100570002648019000F07EFF019800F07BFF019873
:1005800000F078FF029800F075FF0920C006059082
:1005900001210491002209921023039300F023FE0D
:1005A000039B059809990322069200F063FE049BC1
:1005B000099AF0480890194600F015FE049B069A27
:1005C0000898099900F056FE04990598099A202385
:1005D000079300F008FE0598069A079B099900F01A
:1005E00049FE00F03CF80898099A0223114600F0F1
:1005F000FAFDFFF73FFFFFF75BFF00F012F800F096
:1006000017F80AB080BDC0461205000011050000B1
:100610000004004880B50920C006202100F0C6FD76
:1006200080BD80B50920C006202100F0B7FD80BD47
:1006300080B50920C006802100F0B8FD80BD80B5DE
:100640000920C00600210122802300F0CCFD80BDDE
:1006500080B50920C006802100F0A0FD80BD80B5D6
:1006600084B00920C006019001210022029280235B
:10067000039300F0B8FD01980299039B032200F058
:10068000F9FD04B080BD80B584B0029001A801706E
:100690000092029848B1FFE701A8007828B1FFE76F
:1006A00001A80078412804DBFFE703A900200870B7
:1006B00028E0FFF70FFFFFF7A7FEFFF7B2FE029853
:1006C00001A9097800F0E4F8FFF70AFFFFE70098B6
:1006D000411E009180B1FFE7FFF708FF40B1FFE73F
:1006E000FFF792FEFFF7F0FE03A90120087009E072
:1006F0000120FFF7CDFEEAE7FFF7E6FE03A90020A1
:100700000870FFE703A8007804B080BD81B0142012
:100710000090FFE70098411E009108B1FFE7F9E75C
:1007200001B0704780B50120FFF7BAFE80BD80B5EB
:10073000FFF718FFFFF79EFEFFF7BAFEFFF771FF06
:10074000FFF78DFFFFF774FFFFF7E0FF80BD80B577
:1007500082B001A90870694600200870FFE768466A
:10076000007807281EDCFFE7FFF75BFF01A8007891
:100770000006002803D5FFE7FFF75AFF02E0FFF766
:1007800067FFFFE7FFF7C2FF0198400001A908706B
:10079000FFF740FFFFF7BAFFFFE70098401C6946EC
:1007A0000870DCE702B080BD80B584B0039002A879
:1007B0000180FFF75FFEFFF77BFEFFF732FFFFF7D9
:1007C0004EFF01A900200880FFE701A8008802A9C8
:1007D0000988884226DAFFE7FFF770FEFFF796FFE9
:1007E000FFF794FF039801A90988405CFFF7AFFF6A
:1007F000FFF717FFFFF796FFFFF794FFFFF792FF52
:10080000FFF756FEFFF78EFFFFF78CFFFFF78AFF1B
:10081000FFF788FFFFF786FFFFE70198401C01A95B
:100820000880D2E7FFF70BFFFFF742FE04B080BD60
:1008300080B584B003AA0092107002A801900170E4
:10084000FFF70DFFFFF7F4FEFFF7EBFEFFF730FEBB
:10085000FFF717FEFFF75AFFFFF758FF00980078E1
:100860007F210840FFF773FF01980078FFF76FFFC3
:10087000FFF7D7FEFFF74AFFFFF748FFFFF7FAFD44
:10088000FFF7D6FEFFF7DBFEFFF712FE04B080BDD8
:1008900080B582B00190684601700078412804DB81
:1008A000FFE7694640200870FFE70198694609782C
:1008B000FFF77AFF02B080BD80B582B00A460146DC
:1008C00001A8017069460A7000780978FFF7B0FF47
:1008D00002B080BD80B584B0024602A8027001AAB1
:1008E00011700178602000F0D0FB6946002008708C
:1008F000FFE768460078632814DCFFE7642000F017
:1009000097F800F0F7F801A90978884204D1FFE7C9
:1009100003A90120087009E0FFE70098401C694620
:100920000870E6E703A900200870FFE703A8007835
:1009300004B080BD80B56A20072100F0A6FB6B20C3
:100940003F2100F0A2FB80BD80B56C20022100F0A9
:100950009CFB80BD80B57F4844F2000100F026FC7E
:1009600080BDC04680B57B4844F2000100F016FC13
:1009700080BDC0460004004880B584B065202021B9
:1009800000F083FB6720019000F008FA024601980E
:1009900003A90A700A78E0231A400A70039A1923FF
:1009A00002931A430A70097800F06FFB02996820DD
:1009B00000F06BFB04B080BD80B584B003AB187051
:1009C000029101A80270694600200870FFE768469E
:1009D000007801A9097888420FDAFFE70398694691
:1009E0000A7880180299895CC0B200F04EFBFFE7DC
:1009F0000098401C69460870E9E704B080BD00001B
:100A000080B5F84842F2000100F0D0FB80BDC0463E
:100A100080B5F44842F2000100F0C0FB80BDC04642
:100A200080B582B00190019800F03EFB02B080BD1D
:100A300080B582B00190019800F070FB02B080BDDB
:100A400080B584B003A9019108700D2000F0A6F9CB
:100A50000146019802AA1170007870B1FFE7029870
:100A60008021084302A908700298402210430870B0
:100A700002982022104308700DE002A908787F2216
:100A8000104008700878BF22104008700878DF22F4
:100A900010400870FFE702A801780D2000F0F5FA79
:100AA00004B080BD80B582B06920009000F076F976
:100AB0000246009801A90A700A78FE231A400A70BB
:100AC0000A78FB231A400A70097800F0DEFA02B0B7
:100AD00080BD000080B5D94841F2000100F066FBFE
:100AE00080BDC04680B5D54841F2000100F056FBFC
:100AF00080BDC04680B5612000F050F90F2108404C
:100B000080BD80B508200521FFF7E4FE80BD80B5DB
:100B100010200121FFF7DEFE80BD80B502210846CE
:100B2000FFF7D8FE80BD000080B582B0C34840F218
:100B3000004100F043FB20B1FFE701A9012008704C
:100B400003E001A900200870FFE701A8007802B0C7
:100B500080BDC0460004004880B58AB000F087F927
:100B600000F06EF91420FFF75BFFFFF7D6FF0128B6
:100B700004D0FFE709A90020087064E0612000901C
:100B800000F00CF90246009808A906910A70089A2C
:100B900010231A430A700A78DF231A400A70097872
:100BA00000F073FA6220019000F0F8F8069902460E
:100BB00001980A70089A202304931A430A7009784E
:100BC00000F063FA00200290FFF73AFFFFF7B2FE51
:100BD00002981F490C220392FFF7EEFE039A1D496B
:100BE0001046FFF7E9FE1C49182005900822FFF780
:100BF000E3FE0498059A1949FFF7DEFE18493820EC
:100C00001D22FFF7D9FE174955200B22FFF7D4FE0E
:100C10000920079000F0C2F80699024607980A706A
:100C20000A78F8231A400A70089A02231A430A70B5
:100C3000097800F02AFAFFF79FFEFFF768FF09A97D
:100C400001200870FFE709A800780AB080BDC046FF
:100C5000111700083D170008351700081D17000878
:100C6000F41600084917000880B586B048200190A6
:100C700000F094F80146019804AA00921170AA218C
:100C800000F003FA019800F089F8009902460198F3
:100C900003AB02931A70097800F0F7F90298007814
:100CA000AA2804D1FFE705A90120087003E005A9DF
:100CB00000200870FFE705A8007806B080BD80B569
:100CC000FFF732FF80BD000080B588B02848009053
:100CD00000F0D0FB009800F0CDFB009800F0CAFBBC
:100CE000009800F0C7FB009800F0C4FB5348069042
:100CF000012103910022079241F20003019300F0C9
:100D000072FA019B069807990322049200F0B2FA46
:100D100003990698079A42F20003029300F063FADF
:100D2000029B049A0698079900F0A4FA0399069882
:100D3000079A44F20003059300F055FA049A059BC4
:100D40000698079900F096FA00F04EF80698079A70
:100D500040F20043114600F046FAFFF751FEFFF75C
:100D6000B9FEFFF7FFFD00F023F808B080BDC046D4
:100D70001205000080B582B00190684601700078CD
:100D8000412804DBFFE7694640200870FFE701982F
:100D90006946097800F07BF802B080BD80B582B06A
:100DA000014601A80170007800F0B5F802B080BDDE
:100DB00080B5224848F2000100F0F8F980BDC04635
:100DC00080B51E480021012248F2000300F00BFA12
:100DD00080BDC04680B5194848F2000100F0DEF938
:100DE00080BDC0460004004880B584B0134801901F
:100DF00001210022029248F20003039300F0F3F96C
:100E000001980299039B032200F034FA04B080BDDC
:100E100080B582B0094848F2000100F0CFF920B156
:100E2000FFE701A90120087003E001A90020087074
:100E3000FFE701A8007802B080BDC046000400486A
:100E400080B57F20FF2100F020F980BD81B0142003
:100E50000090FFE70098411E009108B1FFE7F9E715
:100E600001B0704780B50120FFF7E2FD80BD80B57D
:100E7000FFF72AFFFFF7C4FDFFF72CFEFFF772FD17
:100E8000FFF7B2FFFFF794FFFFF7E0FF80BD80B5EB
:100E900084B0039002A80180FFF71CFEFFF7B0FDAD
:100EA000FFF760FDFFF78CFF01A900200880FFE736
:100EB00001A8008802A90988884226DAFFE7FFF71F
:100EC00011FEFFF7C3FFFFF7C1FF00F054F80399CD
:100ED00001AA12888854FFF745FDFFF7C3FFFFF70B
:100EE000C1FFFFF7BFFFFFF7F5FDFFF7BBFFFFF700
:100EF000B9FFFFF7B7FFFFF7B5FFFFF7B3FFFFE756
:100F00000198401C01A90880D2E7FFF759FFFFF7BD
:100F1000E1FD04B080BD80B584B003A900910870E4
:100F2000FFF762FFFFF744FFFFF71CFDFFF7D2FD5D
:100F3000FFF76EFDFFF78AFFFFF788FF0098007844
:100F40008021084300F044F8FFF73AFF00F013F85F
:100F500002A901910870FFF705FDFFF777FFFFF782
:100F600075FFFFF74DFDFFF72BFFFFF7B3FD01986E
:100F7000007804B080BD80B582B06946002008705A
:100F800001A90870FFE701A8007807281CDCFFE72B
:100F9000FFF7E8FCFFF75AFF009840006946087029
:100FA000FFF7D8FCFFF734FF30B1FFE700980121CD
:100FB000084369460870FFE7FFF748FFFFE701981D
:100FC000401C01A90870DEE76846007802B080BDC9
:100FD00080B582B001A90870694600200870FFE75B
:100FE0006846007807281EDCFFE7FFF7BBFC01A876
:100FF00000780006002803D5FFE7FFF7D9FE02E0DE
:10100000FFF7E8FEFFE7FFF721FF0198400001A985
:101010000870FFF79FFCFFF719FFFFE70098401CDF
:1010200069460870DCE702B080BD80B584B003AAD1
:101030000092107002A801900170FFF7D5FEFFF733
:10104000B7FEFFF78FFCFFF745FDFFF7E1FCFFF769
:10105000FDFEFFF7FBFE009800787F210840FFF7B8
:10106000B7FF01980078FFF7B3FFFFF77BFCFFF7AE
:10107000EDFEFFF7EBFEFFF7C3FCFFF799FEFFF76E
:101080009FFEFFF727FD04B080BD80B582B00A4601
:10109000014601A8017069460A7000780978FFF7D7
:1010A000C4FF02B080BD000080B584B003900398F7
:1010B000FFF79FF818490968FFF720F8FFF7A0F835
:1010C0003349086033490020086033490120086033
:1010D000FFE7314800680290FFE7002002A9097885
:1010E000C907019041B1FFE702A8807801210840BB
:1010F000414248410190FFE70198C0070028E8D12C
:10110000FFE7254908680122904308602149002033
:10111000086004B080BDC0460800002080B584B0DF
:1011200003900398FFF765F818490968FEF7E6FF92
:10113000FFF766F81649086016490020086016494E
:1011400001200860FFE7144800680290FFE70020D4
:1011500002A90978C907019041B1FFE702A8807888
:1011600001210840414248410190FFE70198C00732
:101170000028E8D1FFE70849086801229043086089
:1011800004490020086004B080BDC0460C00002067
:1011900014E000E018E000E010E000E082B0019010
:1011A000009100980199886202B0704782B0019066
:1011B000009100980199886102B0704783B0019056
:1011C0000091019800690099084204D0FFE702A944
:1011D0000120087003E002A900200870FFE702A8C0
:1011E000007803B0704787B006900591049203938E
:1011F0000698006801900698C068009002A9002037
:101200000880FFE702A800880F282BD8FFE702A874
:1012100001880398C840C007F0B1FFE702A8018821
:101220004900032213468B40019999430191059B84
:10123000018849008B4001991943019101884900B7
:101240008A400099914300910499008840008140B0
:10125000009808430090FFE7FFE70298401C02A9AE
:101260000880CFE701980699086000980699C86041
:1012700007B0704710B586B0059004A801700392BE
:1012800002930078012806D1FFE7029A0599486881
:101290001043486005E0029A059948689043486009
:1012A000FFE705988068009001A900200880FFE70B
:1012B00001A800880F281DD8FFE701A8018802981F
:1012C000C840C00780B1FFE701A801884900032298
:1012D0008A40009991430091039900884000814021
:1012E000009808430090FFE7FFE70198401C01A920
:1012F0000880DDE700980599886006B010BD000001
:1013000080B582B00020019000F050F900F06EF935
:1013100000F09BF800F032F80D490870FFE70C4828
:10132000007860B1FFE70B48202100F054F828B1A5
:10133000FFE709490868401C0860FFE7FFE7B74876
:10134000202100F086F840F2E830FFF7ADFEE6E736
:1013500014100020151000203810002082B00190D9
:10136000009101980099034A11400843024908601E
:1013700002B0704780FFFF1F08ED00E080B582B02B
:10138000FFF7EAFB012804D0FFE701A9002008705D
:101390001DE0FFF769FC012804D0FFE701A9002048
:1013A000087014E0FFF7B9FBFFF77CFBFFF7C2FA08
:1013B000FFF7CAFAFFF7A5FB012804D0FFE701A950
:1013C0000020087003E001A901200870FFE701A8D0
:1013D000007802B080BD80B584B0029001A8017091
:1013E000029820B9FFE703A90020087029E001A8AE
:1013F000007820B9FFE703A90020087021E001A8C8
:101400000078412804DBFFE703A90020087018E0FA
:10141000FFF755FC20B9FFE703A90020087010E092
:10142000FFF77BFB029801A90978FFF7A3FCFFF700
:101430008BFAFFF77FFAFFF764FB03A9012008701E
:10144000FFE703A8007804B080BD80B5FFF756F829
:1014500080BD80B584B0019101460198039102A935
:1014600008700398097840F2E832FFF70CF904B0ED
:1014700080BD000081B001466846018000881F22BF
:101480000146114001238B408109374A885818438F
:10149000885001B07047C04684B00020039002908D
:1014A000314908680122120410430860FFE70398DD
:1014B000401C03902C480068012149040840029018
:1014C000FFE702990020019041B9FFE7039840F639
:1014D0000001401A411E88410190FFE70198C007B2
:1014E0000028E4D1FFE7204800688003002802D4E8
:1014F000FFE7FFE7FEE71D490868022210430522C7
:10150000904308601A4900910868086008680860FC
:10151000086808600868174A1040086008681D22BB
:101520001204104308601049086801221206104393
:101530000860FFE70C4800688001002801D4FFE73D
:10154000F8E70B4908680322904308600868022204
:1015500010430860FFE7064800680007002801D430
:10156000FFE7F8E704B07047001002400020024097
:1015700004100240FFFFC27780B5FFF78DFF80BDEA
:1015800081B000900098042806D1FFE7064908685A
:1015900004221043086005E00349086804229043D0
:1015A0000860FFE701B0704710E000E080B504205C
:1015B000C043FFF7E5FF08480068FEF71AFE074939
:1015C000FEF7D9FD01460648016000680549FEF7AF
:1015D00095FD0549086080BD000000200024F44A04
:1015E0000C00002000007A440800002081B0694609
:1015F00000200870FFE7684600781F280BD8FFE737
:1016000068460278501C05498854FFE70098401C42
:1016100069460870EFE701B07047C0463C100020F3
:1016200081B000900098406A0149084001B07047BD
:10163000FF01000082B00190009100980C4988429F
:1016400008D1FFE70199D022885848F20003984357
:1016500088500BE000981F2109040840000C01226B
:1016600082400199086A10430862FFE702B07047A0
:1016700009340F3410B585B0039002910020019019
:101680000090039802A9098889094058029C1F23E9
:101690001C4001210A46A240104001900398029A82
:1016A000920D8058029A1B041A40120C9140084077
:1016B0000090009838B1FFE7019820B1FFE704A936
:1016C0000120087003E004A900200870FFE704A8C7
:1016D000007805B010BD02E008C8121F08C1002A3A
:1016E000FAD170477047002001E001C1121F002AA3
:1016F000FBD17047120800AA040000000000D42D9E
:10170000AA001F000000000000000060FF00001F92
:10171000100066EC1DF0801408910202D0CA60101F
:1017200033E136190A9F382929C0940A530800B4B6
:1017300000000100004271CE1C425B1C1CAEE03573
:101740000000F410E242200081709A0C000F90001B
:101750008A183F7F7817000800000020080000006A
:10176000D616000880170008080000205814000052
:10177000E61600080000000000A24A040000000075
:04000005080000CD22
:00000001FF
