:020000040800F2
:1000000028170020E1000008F1080008ED080008AA
:1000100000000000000000000000000000000000E0
:10002000000000000000000000000000F5080008CB
:100030000000000000000000F3080008F7080008B6
:10004000F3000008F3000008F3000008F3000008C4
:10005000F3000008F3000008F3000008F3000008B4
:1000600000000000F300000875080008F300000815
:10007000F3000008F3000008F3000008000000008F
:10008000F3000008F300000800000000F30000087F
:10009000F3000008F3000008F3000008F300000874
:1000A000F3000008F3000008F3000008A5090008A9
:1000B000F300000800000000000000000000000045
:1000C000F300000800000000F30000080348854624
:1000D00000F006FB004800472126000828170020F2
:1000E0000448804704480047FEE7FEE7FEE7FEE7D6
:1000F000FEE7FEE7F9080008CD00000803460B43C1
:100100009B0703D009E008C9121F08C0042AFAD2CD
:1001100003E00B780370401C491C521EF9D2704753
:10012000D2B201E00270401C491EFBD2704700228F
:10013000F6E710B513460A4604461946FFF7F0FFE6
:10014000204610BD024670B54A40D30FDB07400081
:100150002DD04A002AD0010E140E000212020919F5
:10016000400A520A8418E50104465443000A120A60
:100170002E045043A4194219200CC543AA18120C8E
:100180000125AD03521C521912047F39240400D0FA
:10019000521C104301D44000491EC2B20C06C009D3
:1001A0002018401C4008802A02D003E0002070BDC7
:1001B00040084000002900DA0020184370BD70B5E7
:1001C00002464A40D50F40004A00ED074008520859
:1001D000002814D0002A12D0C40DD30D41020120F2
:1001E000C0055202490A520AE41A091812187D344D
:1001F000914201D3641C00E04900002C01DA002088
:1002000070BD0023914201D3891A0343400849007D
:100210000028F7D100290AD0914202D10121C90753
:1002200005E0914201D2012101E00121C943E0052D
:10023000C018401900F04CF870BD10B5002296238C
:10024000114600F04DF810BD410040020122400A65
:10025000D205090E80187F2901DA002070479629FF
:1002600003DC9622511AC84070479639884070477F
:10027000F0B51FB40646002082B005464024019127
:1002800000901BE0019922460F46304600F06FFABD
:10029000049A059B801A994110D3104619462246AC
:1002A00000F055FA361A8F410197224601200021AD
:1002B000009F00F04CFA38184D4100902046641E13
:1002C0000028DFDC019B00982946324607B0F0BDCC
:1002D000002904DA401C490001D140084000704761
:1002E00070B40024050C05D11024000402D10029AB
:1002F00021D01124050E01D100020834050F01D1CF
:100300000001241D850F01D18000A41C002801DB01
:100310004000641C002908D020252E1B0D46F54006
:10032000A14000D001212943084301061B1B000AFC
:10033000DB1D02D5002070BC7047DB051818801843
:100340000029F8DA401C4900F5D170BC4008400093
:1003500070470000F0B507460846584087B0C00F08
:10036000049048000E46590040084908BC1A8841CC
:1003700005D2384631461E4617460B4602465800FF
:10038000400810434CD0300D039040055900400DFB
:10039000490D0590401A0290402872DA1803012195
:1003A000000B09050843019004980092002805D02D
:1003B0000199524200208841009201900298402108
:1003C0000A1A0199009800F0C2F905460C466B46DE
:1003D00007CB00F0DDF9C0197141039A0E0D00231F
:1003E000D71756401A467A40164344D0049A002A3A
:1003F0002DD0029A012A039A15DC1205C01A9141E8
:1004000001263605001C7141D20F059ED2070093CC
:10041000019202962A46234600F0DAF907B0F0BDB1
:1004200038463146FAE71605224A0F46B218C01A76
:10043000B74101210905001C4F4100187F411146B9
:1004400018187941E20F10436D19644113E0E20777
:100450006D0815436408C2071443039A0126120568
:10046000C01A91413605001C7141CE074008304347
:100470004908C01851412A46234600F09CF9CDE7AF
:10048000FFE7049801224000C117121A00238B4194
:1004900004983146C417381AA141EEE730B401245C
:1004A000E407634030BC55E730B40124E407614001
:1004B00030BC4FE70000E0FFF0B51FB488B00B99E7
:1004C0000998002448400999C00F4900490809913A
:1004D000C0070B990090490049080B9109990898A9
:1004E000A64608431CD00B990A98084318D00998CF
:1004F00001244000420D4800410D099824050003E5
:10050000000B204309900B980003000B20430B9035
:1005100050181C494018002201901446104605E06E
:10052000002001460DB0F0BD032801DA034600E0CB
:1005300003239C46C11A0AAE0AE05F0008ADED5BDA
:100540004F00F75B7D430027AA187C41491C5B1EC6
:100550006145F2DD410004AB5A522104120C0A43FA
:10056000240C401C0828DFDB01980290009970469B
:1005700001910090059B049A0799069800F028F9CC
:10058000D0E700000DFCFFFFF0B50C465C4085B0E5
:10059000E40FE40703944C000026640859009446D5
:1005A000490802460296224321D062460A431ED0E1
:1005B0006200570D4A000E032303550D0124024625
:1005C0002C492405781B1B0B360B4018234326436C
:1005D000614600901C46501AB44103D30098401C59
:1005E000009002E0921800985B41002803DA002096
:1005F000014605B0F0BD00200121090507468646E9
:1006000011E064461D46141BB54106D36546521BD6
:10061000B341744607430C43A646CD07400849083A
:10062000284392185B4105460D43EAD11046184312
:1006300013D06046194650407140084306D06046CA
:10064000101AB34106D20122002306E00022012342
:10065000DB0702E00122D2435310009874460105E3
:10066000381C6141029C039D0019694100F0A3F808
:10067000BFE70000FD0300004A0009030123090B46
:100680001B0519430A4B10B5520D9A4202DA00209D
:10069000014610BD064B34339A4203DC9A1A00F02F
:1006A00066F810BD034BD21800F051F810BD0000E1
:1006B000FF030000CDFBFFFF10B5002904DB012480
:1006C000E40740428C412146002B04DB1C460123F9
:1006D000DB075242A341994200D1904210BD000075
:1006E0001CB5094800900948019005460126009C68
:1006F00005E0E36807CC33430C3C98471034AC4228
:10070000F7D3FFF7E7FC0000404B0008604B000800
:1007100070B50446002903D000202022012310E0F8
:10072000002801D00020C043C046C0460DE0254649
:10073000D5408D4205D30D469540641B1D4695401E
:1007400040191546521E002DF1DC214670BD10B532
:10075000202A04DB0146203A9140002010BD914040
:1007600020239C1A0346E3401943904010BD10B566
:10077000202A04DB0846203AD040002110BD0B4659
:10078000D340D0402024A21A91400843194610BDFE
:1007900010B5202A06DBCB170846203A1041C117B6
:1007A0000B4306E00B461341D0402024A21A91408F
:1007B0000843194610BD10B5002B08DA0024401C70
:1007C000614192185B411A4301D14008400010BDBD
:1007D000F0B51FB482B005460C0003D0084603F004
:1007E00037FB02E003F034FB203002460090214644
:1007F0002846FFF7ACFF049B059A04460F461843B2
:100800001143084314D0184610431BD000984021D0
:100810000A1A18460599FFF7AAFF05460E46009AE0
:1008200005990498FFF793FF084305D0012004E0E1
:100830002046394607B0F0BD0020C11705430E43DE
:100840002C43374300990E986305401A7905E40A52
:1008500000220C43FD0A0A3002D500200146E9E7D8
:100860000105101969410C9C0D9D00196941FFF7A4
:10087000A2FFDFE780B582B00120022101F0E8FC91
:10088000012807D1FFE70120022101F0CFFC03F08E
:1008900029FAFFE70120082101F0DAFC01281BD129
:1008A000FFE701200090082101F0C0FC009801F052
:1008B000BFFB7F480021019102F0F7FF0198074933
:1008C0000988074A11800749088007490870854947
:1008D0000868401C0860FFE702B080BDD21200200B
:1008E000D0120020CA100020C8100020FFE7FEE749
:1008F000704770477047704780B582B020490868DC
:10090000012210430860FFE71D48006880070028A7
:1009100001D4FFE7F8E71B4908681B4A104008604C
:1009200008681A4A1040086015490868184A1040BB
:100930000860184908680F22904308601649086843
:1009400040F20312904308600868012200921304E9
:10095000984308600868D307984308600F490868FF
:10096000904308600E4900200190086002F0D4FE18
:1009700000980199C00601F0BFFE02B080BDC046DC
:1009800000100240041002400C00FF08FFFFC27775
:10099000FFFFF2FE2C1002403010024034100240E3
:1009A0000810024080B586B004A9002008704048B5
:1009B000404902F092FF012808D1FFE73C483E4938
:1009C00003F048F804A901200870FFE738483B49C4
:1009D00002F083FF012808D1FFE73548384903F0CA
:1009E00039F804A901200870FFE73148354902F0C1
:1009F00074FF012808D1FFE72D48334903F02AF896
:100A000004A901200870FFE704A8007838B1FFE7C7
:100A100034490868401C086003F0C6F846E02448E2
:100A20002A4903F037F8012840D1FFE7022002905D
:100A300001F0FEFA029801F0A7FC01468020401A5E
:100A400005A9039108801A48204903F003F8039888
:100A5000008848B1FFE705A800887F2804D8FFE791
:100A60001B48007858B1FFE705A80088802805D307
:100A7000FFE71B490868401C0860FFE713E005A872
:100A800001900288134800901349FFF737FB009943
:100A900001980288002088540598104908800C4964
:100AA00001200870FFE703F07FF8FFE706B080BD84
:100AB000003801400307000000020307020700009E
:100AC00000020207010700000002010704000407FA
:100AD00010100020100000204410002012100020F0
:100AE000C41000204010002081B00146684601700B
:100AF00000214056002811D4FFE7002168464156E6
:100B00001F200A4602400120904049098900044AFA
:100B10008850BFF34F8FBFF36F8FFFE701B070476F
:100B200080E100E081B00146684601700021405636
:100B300000280DD4FFE70021684641561F200A46D1
:100B400002400120904049098900024A8850FFE78D
:100B500001B0704700E100E070B582B0024601A824
:100B60000270009100214056002816D4FFE70024AF
:100B700001A908570322D3431840174A8058095740
:100B80008C07E50EFF24AC40A043009CA401E4B216
:100B9000AC402043194088501AE001A908780F247E
:100BA000204008380322D34318400A4A80580025C1
:100BB00049578D07EE0EFF25B540A843009DAD01B6
:100BC000EDB2B54028432140083919408850FFE76D
:100BD00002B070BD1CED00E000E400E080B502F062
:100BE000B5FDE120400202F097FE01F028FF01462A
:100BF00006480170007820B1FFE7064803F018F9B5
:100C000003E0034803F014F9FFE780BD261300203A
:100C10008F4800088248000880B502F097FDE12067
:100C2000400202F079FE01F073FE01460B480170AC
:100C3000007868B1FFE70B4803F0FAF80A4803F0C0
:100C4000F7F80920C00648F2000101F01EFC03E09D
:100C5000034803F0EDF8FFE780BDC046D412002042
:100C6000F9480008DF4800082E49000880B584B024
:100C7000024602A8027001AA11700178602000F0FB
:100C800075FC694600200870FFE768460078632815
:100C900025DCFFE7642000F093F800F0EFF801A9ED
:100CA0000978884204D1FFE703A9012008701AE0FF
:100CB00002A8007840280CD1FFE76A2000F042FA31
:100CC0000007002804D5FFE703A9012008700AE007
:100CD000FFE7FFE70098401C69460870D5E703A9C5
:100CE00000200870FFE703A8007804B080BD80B53D
:100CF0006A20072100F03AFC6B203F2100F036FC0F
:100D000080BD80B56C20012100F030FC80BD80B535
:100D100084B065202021029100F028FC672001901A
:100D200000F010FA0246019803A90A700A78E0233D
:100D30001A400A70039A0A231A430A70097800F0CD
:100D400015FC0299682000F011FC04B080BD80B54C
:100D500084B003AB1870029101A8027069460020AC
:100D60000870FFE76846007801A9097888420FDA21
:100D7000FFE7039869460A7880180299895CC0B237
:100D800000F0F4FBFFE70098401C69460870E9E7B3
:100D900004B080BD80B50920C006102101F075FBAC
:100DA00080BD80B50920C006102101F066FB80BD22
:100DB00080B582B00190019801F0C0F802B080BD0A
:100DC00080B582B00190019801F0F2F802B080BDC8
:100DD00080B584B003A9019108700D2000F0B2F92C
:100DE0000146019802AA1170007870B1FFE70298DD
:100DF0008021084302A9087002984022104308701D
:100E000002982022104308700DE002A908787F2282
:100E1000104008700878BF22104008700878DF2260
:100E200010400870FFE702A801780D2000F09EFB3B
:100E300004B080BD80B582B06920009000F082F9D6
:100E40000246009801A90A70019A04231A430A7005
:100E5000019A01231A430A70097800F087FB02B057
:100E600080BD000080B5B648012101F00EFB80BDB9
:100E700080B5B348012101F000FB80BD80B5612041
:100E800000F060F90F21084080BD80B510200121DD
:100E9000FFF7ECFE80BD80B502210846FFF7E6FEB5
:100EA00080BD80B540200621FFF7E0FE80BD80B503
:100EB00084B002A90020087003A90870FFE703A806
:100EC000007807281FD8FFE700F04DF901200190B6
:100ED000FFF776FF00F040F90198FFF771FF0298E5
:100EE000400002A9087000F070F930B1FFE70298E5
:100EF0000121084302A90870FFE7FFE70398401C9F
:100F000003A90870DBE700F02EF902A8007804B00E
:100F100080BD80B584B003A9087002A900200870C4
:100F2000FFE702A80078072821D8FFE700F01BF9A7
:100F300003A800780006002803D5FFE700F01AF99F
:100F400002E000F027F9FFE701200190FFF738FFEA
:100F500000F002F90198FFF733FF0398400003A95E
:100F60000870FFE70298401C02A90870D9E704B096
:100F700080BD000080B58AB000F0A6F900F09DF9B0
:100F80001420FFF715FF3249002008900C2201922F
:100F9000FFF7DDFE019A2F491046FFF7D8FE2E49D4
:100FA000182002900822FFF7D2FE029A2B49202037
:100FB0000490FFF7CCFE2A4938201D22FFF7C7FE18
:100FC000284955200B22FFF7C2FE6120039000F054
:100FD000B9F80246039809A906910A70099A1023E4
:100FE0001A430A700A78DF231A400A70097800F061
:100FF000BDFA6220059000F0A5F8049B0699024610
:1010000005980A70099A1A430A70097800F0AEFA36
:101010000920079000F096F80699024607980A7092
:101020000A78F8231A400A70099A02231A430A70B0
:10103000097800F09BFA0898FFF7CAFEFFF767FEF1
:10104000FFF755FEFFF721FF01200AB080BDC04623
:101050006547000891470008894700087147000864
:10106000484700089D47000880B58CB03148029081
:1010700001F06EFE3048019001F06AFE019801F027
:1010800067FE019801F064FE029801F061FE2B48B2
:1010900001F05EFE0920C0060690012104910022A5
:1010A0000A921023039301F00DFA039B06980A9904
:1010B0000322099201F04DFA049B0A9A20480890F5
:1010C000194601F0FFF9049B0898099A0A9901F062
:1010D00040FA06980A992022059201F06EF9059BC4
:1010E00006980A9A02210B9101F0ECF9059B0698EB
:1010F000099A0A9901F02DFA06980A998022079216
:1011000001F05BF90698079B0A9A0B9901F0DAF94E
:101110000698079B099A0A9901F01BFA0898099901
:101120000A9A0B9B01F0CEF9FFF734FEFFF79AFE07
:101130000CB080BD12050000110500000C06000077
:101140000004004880B582B0014601A80170007813
:1011500000F040F902B080BD80B50920C006202112
:1011600001F093F980BD80B50920C006202101F06F
:1011700084F980BD80B50920C006802101F085F981
:1011800080BD80B50920C00600228023114601F0F1
:1011900099F980BD80B50920C006802101F06DF964
:1011A00080BD80B584B00920C006019001210022D5
:1011B00002928023039301F085F901980299039B21
:1011C000032201F0C6F904B080BD80B50920C00635
:1011D000802101F062F9411E884180BD80B586B052
:1011E000049003A801700292049848B1FFE703A895
:1011F000007828B1FFE703A80078412804DBFFE767
:1012000005A9002008703EE0FFF745FEFFF76FFDDF
:10121000FFF710FEFFF775FD049803A9097800F0A9
:1012200091F96E20FFF78EFF014601A8017000784A
:101230008007002806D4FFE7FFF727FE05A9002056
:10124000087020E0FFF72DFEFFE70298411E029193
:1012500098B1FFE76A20FFF775FF0007002808D55F
:10126000FFE7FFF744FDFFF710FE05A90120087016
:1012700009E00120FFF79CFDE7E7FFF706FE05A95F
:1012800000200870FFE705A8007806B080BD80B593
:1012900082B0014601A801700178632000F066F970
:1012A00002B080BD80B582B0014601A8017001780E
:1012B000642000F05BF902B080BD80B57F20FF2183
:1012C00000F054F980BD000080B58AB0FFF7CCFE75
:1012D0007448029002F09EF803A8019002F098F979
:1012E0000199029840F2041203924CF20002049217
:1012F00040F20072059240F200220692002207920C
:1013000008921822099202F0E9F8029802F041F8D6
:10131000FFF740FDFFF7A6FD0AB080BD80B586B09F
:101320000920C00602902021009101F0A6F8029841
:101330008021059101F0A9F8009B029801210191FB
:101340000022039201F0BEF8009B02980399032249
:10135000049201F0FEF801990298039A059B01F0AE
:10136000B1F802980399049A059B01F0F2F806B0CF
:1013700080BD80B586B00920C0060290202105916D
:1013800001F07BF80298002103918022009201F085
:1013900014F8009B0298039A0221019101F092F83F
:1013A000009B029803990322049201F0D2F802985C
:1013B0000399059A01F001F801990298039A059B97
:1013C00001F080F802980399049A059B01F0C1F896
:1013D00006B080BD80B588B005A90870EFF3108015
:1013E00006900698039072B6FFE72E48802102F01F
:1013F00035F808B1FFE7F8E72A48019001F0C0FF8F
:10140000FFF78CFFFFF72EFDFFF7CBFC01200090CC
:10141000FFF7D6FCFFF7C5FEFFF7A5FE05A800788D
:1014200080210843FFF775FDFFF7ABFE0098FFF73B
:10143000C7FCFFF798FEFFF73AFD0146009804AAA3
:1014400002921170FFF7BCFCFFF7A4FCFFF70AFD46
:10145000FFF78FFF019801F09CFF02980399079115
:10146000079981F31088007808B080BD80B582B0FC
:1014700001A90870FFE70B48022101F0EFFF08B94E
:10148000FFE7F8E701A80178064801F09DFFFFE7B4
:101490000448802101F0E2FF08B1FFE7F8E702B05D
:1014A00080BDC0460030014080B584B0039002A8E2
:1014B0000180FFF76FFC01A900200880FFE701A869
:1014C000008802A90988884219DAFFE7FFF7D0FCF3
:1014D0000120FFF775FC039801A90988405CFFF71C
:1014E000C5FF0220FFF76CFCFFF7BCFC0420FFF7F0
:1014F00067FCFFE70198401C01A90880DFE704B002
:1015000080BD80B586B005AA0192107004A8029033
:101510000170FFF7A7FCFFF744FC01200390FFF7E1
:101520004FFC019800787F210840FFF79FFF029849
:101530000078FFF79BFF0398FFF742FCFFF72AFCB8
:1015400006B080BD80B582B0019068460170007819
:10155000412804DBFFE7694640200870FFE7019857
:1015600069460978FFF7A0FF02B080BD80B582B060
:101570000A46014601A8017069460A700078097898
:10158000FFF7BFFF02B080BD80B584B0024602A85D
:10159000027001AA11700178602000F0C0FC694659
:1015A00000200870FFE768460078632814DCFFE736
:1015B000642000F093F800F0F5F801A9097888425A
:1015C00004D1FFE703A90120087009E0FFE70098B4
:1015D000401C69460870E6E703A900200870FFE791
:1015E00003A8007804B080BD80B56A20072100F010
:1015F00096FC6B203F2100F092FC80BD80B56C20F2
:10160000022100F08CFC80BD80B5654842F20001EB
:1016100000F03BFF80BDC04680B5614842F200014A
:1016200000F02BFF80BDC04680B582B06520202130
:1016300000F075FC6720009000F08AFA02460098DE
:1016400001A90A700A78E0231A400A70019A192346
:101650001A430A70097800F062FC68201B2100F030
:101660005EFC02B080BD80B584B003AB18700291FF
:1016700001A80270694600200870FFE768460078FC
:1016800001A9097888420FDAFFE7039869460A78CA
:1016900080180299895CC0B200F041FCFFE7009815
:1016A000401C69460870E9E704B080BD80B53C483D
:1016B00044F2000100F0E9FE80BDC04680B5384824
:1016C00044F2000100F0D9FE80BDC04680B582B072
:1016D0000190019800F032FC02B080BD80B582B06C
:1016E0000190019800F064FC02B080BD80B584B028
:1016F00003A9019108700D2000F02AFA0146019813
:1017000002AA1170007870B1FFE7029880210843A7
:1017100002A9087002984022104308700298202203
:10172000104308700DE002A908787F22104008706D
:101730000878BF22104008700878DF221040087037
:10174000FFE702A801780D2000F0E9FB04B080BD9E
:1017500080B582B06920009000F0FAF90246009846
:1017600001A90A700A78FE231A400A700A78FB233E
:101770001A400A70097800F0D2FB02B080BD000068
:1017800080B5FC4841F2000100F07FFE80BDC046FC
:1017900080B5FE4841F2000100F06FFE80BDC046FA
:1017A0000004004880B5612000F0D2F90F21084004
:1017B00080BD80B508200521FFF7E6FE80BD80B51D
:1017C00010200121FFF7E0FE80BD80B50221084610
:1017D000FFF7DAFE80BD80B582B069460020087050
:1017E00001A90870FFE701A8007807281CD8FFE7C7
:1017F000FFF712FF00F00EFAFFF706FF0098400017
:101800006946087000F0E0F930B1FFE70098012167
:10181000084369460870FFE700F0FCF9FFE701980C
:10182000401C01A90870DEE7FFF7F6FE6846007865
:1018300002B080BD80B582B001A908706946002061
:101840000870FFE76846007807281ED8FFE7FFF713
:10185000E3FE01A800780006002803D5FFE700F0AA
:1018600081F902E000F094F9FFE700F0D3F9FFF707
:10187000CBFE00F0CFF90198400001A90870FFE706
:101880000098401C69460870DCE702B080BD00008B
:1018900080B58CB000F0CAF900F0B6F91420FFF75B
:1018A00015FFFFF792FF012804D0FFE70BA90020E6
:1018B00008706AE06120019000F04AF90246019840
:1018C0000AA907910A700A9A10231A430A700A7823
:1018D000DF231A400A70097800F021FB6220029091
:1018E00000F036F90799024602980A700A9A2023F6
:1018F00005931A430A70097800F011FB0020039049
:10190000FFF7F4FEFFF770FE039822490C220492C1
:10191000FFF7A9FE049A20491046FFF7A4FE1F49CD
:10192000182006900822FFF79EFE0598069A1C498B
:10193000FFF799FE1B4938201D22FFF794FE1A4934
:1019400055200A22FFF78FFE18495F2001220992D5
:10195000FFF789FE0920089000F0FAF8079902467F
:1019600008980A700A78F8231A400A700A9A022323
:101970001A430A70097800F0D2FAFFF755FEFFF714
:101980001EFF09980BA90870FFE70BA800780CB0A0
:1019900080BDC046C5470008F2470008E947000877
:1019A000D1470008A8470008FE470008F147000893
:1019B00080B586B04820019000F0CAF80146019831
:1019C00004AA00921170AA2100F0A9FA019800F06F
:1019D000BFF800990246019803AB02931A70097888
:1019E00000F09DFA02980078AA2804D1FFE705A923
:1019F0000120087003E005A900200870FFE705A892
:101A0000007806B080BD80B582B06D2000F0A0F8EF
:101A1000014668460170007803210840032804D17C
:101A2000FFE701A90120087003E001A90020087068
:101A3000FFE701A8007802B080BD000080B58AB041
:101A40003748009001F084F9009801F081F900987E
:101A500001F07EF9009801F07BF9009801F078F927
:101A6000304801F075F9BA4808900121029100222E
:101A7000069241F20003019300F024FD019B0699B8
:101A800008980322059200F064FD0299069A0898CE
:101A900044F20003039300F015FD039B059A069999
:101AA000089800F056FD0699089842F20002079245
:101AB00000F083FC069A079B08980221049100F02D
:101AC00001FD059A0699079B089800F042FD0699CA
:101AD000089848F20002099200F06FFC0499069AF7
:101AE0000898099B00F0EEFC059A06990898099B56
:101AF00000F02FFD069A089840F20043114600F0CE
:101B0000E1FCFFF7D3FDFFF73BFE0799089800F0D3
:101B1000B4FC0898099900F0B8FC0AB080BDC04632
:101B2000120500000E07000080B582B001906846E3
:101B300001700078412804DBFFE769464020087007
:101B4000FFE701986946097800F004F902B080BD0A
:101B500080B582B0014601A80170007800F058F904
:101B600002B080BD80B57A4848F2000100F08DFCDB
:101B700080BDC0460004004880B5754800210122A0
:101B800048F2000300F09EFC80BDC04600040048FF
:101B900080B56F4848F2000100F06FFC80BDC04680
:101BA00080B584B06A48019001210022029248F277
:101BB0000003039300F086FC01980299039B032223
:101BC00000F0C7FC04B080BD80B5614848F2000158
:101BD00000F063FC411E884180BDC04680B582B0E4
:101BE000014601A801700178632000F098F902B065
:101BF00080BD80B582B0014601A8017001786420E3
:101C000000F08DF902B080BD80B57F20FF2100F08B
:101C100086F980BD81B014200090FFE70098411E36
:101C2000009108B1FFE7F9E701B0704780B58AB0CD
:101C3000FFF704FFA848029001F0ECFB03A8019015
:101C400001F0E6FC0199029840F2041203924CF272
:101C50000002049240F20072059240F200220692C5
:101C60000022079208921822099201F037FC02988C
:101C700041F2000101F096FB029801F08AFBFFF7A8
:101C800015FDFFF77DFD0AB080BDC04680B586B06A
:101C90002F48029042F20001009100F0EEFB029802
:101CA00048F20001059100F0F0FB009B0298012131
:101CB00001910022039200F005FC009B0298039919
:101CC0000322049200F045FC01990298039A059BB7
:101CD00000F0F8FB02980399049A059B00F039FC88
:101CE00006B080BD80B586B01948029042F200016E
:101CF000059100F0C2FB029848F20001009100F04B
:101D0000C4FB009A02980021039100F056FB009B4F
:101D10000298039A0221019100F0D4FB009B0298E3
:101D200003990322049200F014FC02980399059A87
:101D300000F043FB01990298039A059B00F0C2FB57
:101D400002980399049A059B00F003FC06B080BD3D
:101D50000004004880B586B0039002A80180039873
:101D600020B1FFE702A8008808B9FFE74DE0EFF3D4
:101D7000108004900498009072B6FFE756488021C6
:101D800001F06CFB08B1FFE7F8E7534801F0F8FAFF
:101D9000FFF77CFFFFF78AFCFFF7F2FCFFF73CFC44
:101DA000FFF7EAFE01A900200880FFE701A80088EC
:101DB00002A90988884219DAFFE7FFF7E9FC012048
:101DC000FFF78CFCFFF707FD039901AA12888854DE
:101DD0000220FFF783FCFFF7D3FC0420FFF77EFC13
:101DE000FFE70198401C01A90880DFE7FFF7C8FC66
:101DF000FFF75CFCFFF776FF374801F0CAFA00985E
:101E00000590059880F31088FFE706B080BDC046B6
:101E100080B588B005A90870EFF310800690069889
:101E2000039072B6FFE72C48802101F017FB08B140
:101E3000FFE7F8E72848019001F0A2FAFFF726FF34
:101E4000FFF79EFCFFF73AFC01200090FFF746FCED
:101E5000FFF7A6FEFFF7E0FB05A800788021084306
:101E6000FFF7E8FCFFF788FEFFF7B5FC0146009896
:101E700004AA02921170FFF731FCFFF717FCFFF77D
:101E80007FFCFFF72FFF019801F083FA0298039976
:101E90000791079981F31088007808B080BDC0468B
:101EA00080B582B001A90870FFE70B48022101F05C
:101EB000D5FA08B9FFE7F8E701A80178064801F06C
:101EC00083FAFFE70448802101F0C8FA08B1FFE770
:101ED000F8E702B080BDC0460038004080B586B04B
:101EE00005AA0192107004A802900170FFF748FC47
:101EF000FFF7E4FB01200390FFF7F0FB0198007867
:101F00007F210840FFF7CCFF02980078FFF7C8FF59
:101F10000398FFF7E3FBFFF7C9FB06B080BD80B570
:101F200082B00A46014601A8017069460A7000782D
:101F30000978FFF7D3FF02B080BD000080B584B000
:101F400003900398FEF779F918490968FEF7FAF843
:101F5000FEF77AF9334908603349002008603349B5
:101F600001200860FFE7314800680290FFE7002089
:101F700002A90978C907019041B1FFE702A880785A
:101F800001210840414248410190FFE70198C00704
:101F90000028E8D1FFE7254908680122904308603E
:101FA00021490020086004B080BDC0460800002020
:101FB00080B584B003900398FEF73FF9184909688B
:101FC000FEF7C0F8FEF740F91649086016490020F0
:101FD0000860164901200860FFE714480068029075
:101FE000FFE7002002A90978C907019041B1FFE786
:101FF00002A8807801210840414248410190FFE752
:102000000198C0070028E8D1FFE7084908680122C5
:102010009043086004490020086004B080BDC046B9
:102020000C00002014E000E018E000E010E000E008
:1020300081B0014668460170007814214143B44ADA
:10204000885801239843885001B0704781B00146F9
:1020500068460170007814214143AD4A8858012335
:102060001843885001B0704781B00146684601703E
:10207000007814214143A64A885820239843885069
:1020800001B07047B0B581B0014668460170017873
:10209000142213464B439E4C19590125A94319514B
:1020A000017813464B4300211951047813466343CA
:1020B000BB4C1951047813466343534C19510378B0
:1020C0005A439C4BD150007880000F2282405F49D8
:1020D00008681043086001B0B0BDC04682B0024637
:1020E00001A802700091009A007880008240574950
:1020F00008681043086002B07047C046B0B584B0AD
:10210000024603A80090027002910078FFF790FF4A
:10211000009B029800681C7814210A4662433A4CDE
:102120001051029880681C780A466243814C105115
:102130000298008A1C780A466243994C10511A781A
:1021400008465043724A80580190019843F6007443
:10215000A043019002984468C5682C434069044339
:1021600001982043019001981B78594388500298A8
:10217000007E01280AD1FFE703A80078142141431B
:10218000634A885840231843885009E003A8007820
:10219000142141435E4A8858402398438850FFE702
:1021A0000298407E01280AD1FFE703A80078142195
:1021B0004143574A885880231843885009E003A8B0
:1021C000007814214143524A88588023984388500C
:1021D000FFE70298807E50B9FFE703A8007814213A
:1021E00041434B4A885810239843885009E003A87C
:1021F000007814214143464A8858102318438850D8
:10220000FFE704B0B0BDC0461000024082B00246F5
:1022100001A802700091009B0078142141433C4AC0
:1022200088581843885002B07047C04682B00246B2
:1022300001A802700091009A007880008240034952
:1022400008681043086002B07047C04604000240AE
:1022500086B004AA107003910020029001900398A8
:102260000090022808D0FFE70098042816D0FFE766
:102270000098082824D035E024480168039A04A86F
:1022800003789B009A401140019101781420484343
:102290001F49405802210840029024E01B48016871
:1022A000039A04A803789B009A4011400191017899
:1022B000142048431649405804210840029012E077
:1022C00012480168039A04A803789B009A401140C1
:1022D00001910178142048430D49405808210840D5
:1022E000029000E0FFE7019838B1FFE7029820B1C3
:1022F000FFE705A90120087003E005A90020087088
:10230000FFE705A8007806B07047C046000002400D
:102310000800024083B000910246009802A90A70AA
:10232000019001980A7814215143024A885003B061
:102330007047C0461400024081B000900099002010
:1023400008600099486000990876009988600099B3
:10235000C8600099487600990861009988760099CC
:10236000486101B07047000083B0009102460098B8
:1023700002A90A70019001A800880A78142151432B
:10238000074A885003B0704781B001466846017023
:102390000178142048430249405801B07047C046B4
:1023A0000C00024080B582B00190009101A8007835
:1023B00001F06AFC019802B080BD86B005900491DE
:1023C00003920598006A01900598406A009002A95E
:1023D00000200880FFE702A8008807281DD8FFE733
:1023E00002A801880398C840C00780B1FFE702A88F
:1023F000018889000F228A40019991430191049933
:10240000008880008140019808430190FFE7FFE7C2
:102410000298401C02A90880DDE702A90820088074
:10242000FFE702A800880F281FD8FFE702A801884D
:102430000398C840C00790B1FFE702A8018889004F
:1024400020390F228A400099914300910499008815
:10245000800020388140009808430090FFE7FFE7A4
:102460000298401C02A90880DBE7019805990862E0
:1024700000980599486206B0704782B001900091BB
:1024800000980199886202B0704782B00190009173
:1024900000980199886102B0704783B00190009163
:1024A000019800690099084204D0FFE702A90120C1
:1024B000087003E002A900200870FFE702A8007876
:1024C00003B0704787B00690059104920393069875
:1024D000006801900698C068009002A9002008805A
:1024E000FFE702A800880F282BD8FFE702A8018881
:1024F0000398C840C007F0B1FFE702A8018849006F
:10250000032213468B40019999430191059B018851
:1025100049008B40019919430191018849008A4083
:1025200000999143009104990088400081400098EF
:1025300008430090FFE7FFE70298401C02A90880CB
:10254000CFE701980699086000980699C86007B01F
:10255000704710B586B0059004A8017003920293ED
:102560000078012806D1FFE7029A059948681043D0
:10257000486005E0029A0599486890434860FFE783
:1025800005988068009001A900200880FFE701A855
:1025900000880F281DD8FFE701A801880298C840CD
:1025A000C00780B1FFE701A80188490003228A40E3
:1025B0000099914300910399008840008140009860
:1025C00008430090FFE7FFE70198401C01A908803D
:1025D000DDE700980599886006B010BD80B584B02D
:1025E0000E4800F0B5FB0920C006019000210291C1
:1025F000012303931A46FFF765FF01980299039A96
:1026000041F20003FFF75EFF01980299039A40F63A
:102610000003FFF757FF04B080BDC046110500005E
:1026200080B588B00020079000F052F9FEF7D6FA86
:102630000A200690FFF782FCFEF7EEFA0698FFF7F5
:102640007DFCFFF7CBFF00F06DFE40B9FFE700F027
:1026500025FE00F003FE0A20FFF770FCFFE7612073
:10266000FFF776FA0146114801F0E2FB6320019082
:10267000FEF768FD039064200290FEF763FD0146BB
:1026800001980491FFF764FA014602980591FFF75B
:102690005FFA0399049A059B0090054801F0C8FB76
:1026A000FFE700F093F8FFE7FEE7C04608480008A0
:1026B0004448000880B582B0014601A8017000219D
:1026C0004056FEF711FA02B080BD80B584B00A46CC
:1026D000014603A80190017002A90A70002200922D
:1026E00080560978FEF738FA009901984056FEF7AF
:1026F00019FA04B080BD000082B0019000910198E9
:102700000099034A114008430249086002B070472B
:1027100080FFFF1F08ED00E080B582B01748202140
:1027200000F029F940B3FFE714494878000209781E
:10273000401801A90880234800882349884213D003
:10274000FFE701A800881F490988491C88420BDD62
:10275000FFE701A800881B490988401A4B490A680D
:102760008018401E0860FFE701981649088040491C
:102770000868401C0860FFE702B080BDDC12002042
:1027800081B0694600200870FFE7684600781F287E
:102790000ADCFFE7684600784B490854FFE70098D9
:1027A000401C69460870F0E7464900200880474908
:1027B00008602F49086035490860024902480880CE
:1027C00001B07047D6120020FFFF000010B584B0A2
:1027D000FFF7D6FF244801F02BFBFFE73B480068DA
:1027E0002249884208D8FFE700F056F8C820FFF7D2
:1027F000DFFBFFF791FFF1E7FFF78EFF3348029011
:1028000000681B4901910968401A0390194801F0BA
:102810000FFB02980168184801F00AFB0198016853
:10282000164801F005FB0399154801F001FB0299D8
:10283000039C6422104660430B68B0FBF3F111481F
:102840006043B0FBF3F0B0FBF2F35A43821A0E4838
:1028500001F0EEFA0D4801680D4801F0E9FA0D4863
:1028600001F0E6FA04B010BD234A0008DB050000C1
:10287000FC1200203E4A00087B4A00088A4A0008F1
:10288000594A000810270000E9490008D812002022
:10289000684A0008FF49000880B582B009490191E3
:1028A0000A880948027049784170202100F0E4F854
:1028B00001990888401C088004490868401C086089
:1028C00002B080BD2413002000130020201300203C
:1028D00080B584B00C4800F03BFA0C48029001210E
:1028E0000022019240F200230393FFF7EBFD0199D0
:1028F0000298039B0322FFF72CFE02980399FFF72F
:10290000C4FD04B080BDC0461205000000040048AC
:1029100080B582B0FEF7BCFF012804D0FFE701A913
:102920000020087023E0FFF743F8012804D0FFE7F8
:1029300001A9002008701AE0FEF747FF2820FFF7E2
:1029400058F90020FFF74AF9FEF702FFFEF74CFEA8
:10295000FEF754FEFEF72DFF012804D0FFE701A982
:102960000020087003E001A901200870FFE701A81A
:10297000007802B080BD80B584B0029001A80170DB
:10298000029820B9FFE703A90020087029E001A8F8
:10299000007820B9FFE703A90020087021E001A812
:1029A0000078412804DBFFE703A90020087018E045
:1029B000FFF729F820B9FFE703A90020087010E00D
:1029C000FEF703FF029801A90978FFF7ADF8FEF7BB
:1029D00015FEFEF709FEFEF7ECFE03A901200870C4
:1029E000FFE703A8007804B080BD80B582B001A9DC
:1029F00000910870FEF7E9FE00980078FFF7EEF806
:102A0000FEF7A6FEFEF7F0FDFEF7F8FDFEF7D1FE9D
:102A100002B080BD80B582B001A900910870FEF7B8
:102A2000D4FE00980078FFF7E4F8FEF791FEFEF779
:102A3000DBFDFEF7E3FDFEF7BCFE02B080BD80B516
:102A400082B0FEF797FA012804D0FFE701A9002021
:102A500008700DE0FEF71FFA2820FEF723FC002087
:102A6000FEF715FCFEF711FA01A901200870FFE737
:102A700001A8007802B080BD80B584B00191014604
:102A80000198039102A908700398097840F2E8328E
:102A9000FEF7A4FB04B080BD80B582B001A900910F
:102AA0000870FEF7F8F900980078FEF7F0FBFEF7E3
:102AB000ECF902B080BD80B582B001A90091087028
:102AC000FEF7E9F900980078FEF7ECFBFEF7DDF978
:102AD00002B080BD9CB01BA90870002001901A9024
:102AE00019901890179016901590149013901290BA
:102AF000119010900F900E900D900C900B908B49B0
:102B00000A918B49099108900790069105900491CC
:102B10000390884800680C21084080081A901A9891
:102B2000029040B1FFE70298012807D0FFE7029822
:102B3000022806D044E08248169044E0804816906F
:102B400041E07C4801680F2292041140890C1091E9
:102B500000680121C9060840C00E0F900F98012897
:102B600004D1FFE71098113010900BE010980F2857
:102B700003D1FFE71020109003E01098801C109004
:102B8000FFE7FFE76B480068012109040840000CDB
:102B90000E900E9870B1FFE7684800680F2108405A
:102BA000401C0D900D996648B0FBF1F11098484318
:102BB000169004E01099604848431690FFE702E041
:102BC0005F481690FFE75B480168C9B209090C919C
:102BD0000C9A07A9895C0B9116990B9AD140159113
:102BE000016840F200721140090A0C910C9A05A983
:102BF000895C0B9115990B9AD1401491006843F6AA
:102C000000010840C00A0C900C9903A8405C0B908E
:102C100015980B99C84013901BA8007800900528C0
:102C200000D97FE000998A0001A080188746C0463D
:102C300000F00AB800F00BB800F00CB800F00DB8C6
:102C400000F00EB800F040B8169817906BE0159899
:102C5000179068E01498179065E01398179062E059
:102C60003848006840F20011084088420FD0FFE762
:102C700034480068012109040840884203D0FFE776
:102C80003248129002E030481290FFE719E02948DC
:102C9000006880B2800B19902A480068C00F189015
:102CA000189838B1FFE715981999491CB0FBF1F055
:102CB000129005E013981999B0FBF1F01290FFE71C
:102CC000FFE7129817902EE01E480068800718B999
:102CD000FFE71398119022E01A480068032108408A
:102CE000012803D1FFE71698119017E015480068F6
:102CF00003210840022804D1FFE748F200001190A8
:102D00000BE01048006803210840032803D1FFE7C7
:102D10000B48119000E0FFE7FFE7FFE7FFE711989E
:102D2000179000E0FFE717981CB0704706070809E6
:102D3000010203040410024000093D002C1002406F
:102D400000127A0030100240003FAB01809FD50096
:102D500081B001466846018000881F22014611406B
:102D600001238B408109154A88581843885001B0C7
:102D70007047C04681B001466846018000881F2226
:102D80000146114001238B4081090C4A8858984321
:102D9000885001B07047C04681B001466846018046
:102DA00000881F220146114001238B408109034AFC
:102DB00088581843885001B07047C0460010024040
:102DC00080B586B0059005982C210491FDF7AFF9E8
:102DD0000498059A12491160059A01219180059A7B
:102DE000D080059808306422019200922822029235
:102DF0001023039300F016F80199029A039B05989B
:102E000018300091022100F00DF80499059A002075
:102E10001085059800F004F90599088506B080BD75
:102E200043464652B0B586B004460A98059404ACB1
:102E3000217003A90A7002A90B7001A908700599F5
:102E40000020C860886048600860059A7149116078
:102E5000059A01219180059A1121D1800499059A42
:102E600011720399059A51720299059A917201990A
:102E7000059AD172059988810598102100F0D0F843
:102E80000599888106B0B0BD82B00A46014601A806
:102E9000017069460A700078097841430248484346
:102EA0000249401802B07047C40900000018DD193B
:102EB00080B582B00090009800F040F8012807D05B
:102EC000FFE71D4800F0B4FF01A9002008702BE0C7
:102ED0000098007A01280FD1FFE70098407AFFF7A9
:102EE000EAFD0098807AFFF7D7FD124800F0A0FFB6
:102EF00001A90120087017E00098007A02280FD17C
:102F0000FFE70098407AFFF785FD0098807AFFF789
:102F10006CFD074800F08CFF01A90120087003E058
:102F200001A900200870FFE701A8007802B080BD69
:102F3000994A0008D24A0008264B000883B0019045
:102F4000019820B9FFE702A9002008705DE0019810
:102F50000068F049884204D0FFE702A90020087009
:102F600053E001988088012804D0FFE702A90020DF
:102F700008704AE00198007A012809D0FFE701981B
:102F8000007A022804D0FFE702A9002008703CE084
:102F90000198407A20B9FFE702A90020087034E0C8
:102FA0000198C07A20B9FFE702A9002008702CE040
:102FB0000198C07A652804DBFFE702A900200870A9
:102FC00023E00199887AC97A884204DBFFE702A9E5
:102FD0000020087019E00199487AC97A491E4143D6
:102FE000192048430A21B0FBF1F00B49401800902A
:102FF00000980A49884204D3FFE702A9002008701C
:1030000003E002A901200870FFE702A8007803B0DE
:103010007047C04647434652009F0600ADC50600B4
:1030200086B0049003A8018002A92548088004986E
:1030300020B9FFE705A9002008803CE001A9002095
:103040000880FFE701A8008803A9098888422EDAD2
:10305000FFE7049801A90988415C0298484002A949
:103060000880694600200870FFE768460078072856
:1030700017DCFFE702A80088C00738B1FFE702A904
:10308000088840080F4A5040088004E002A90888D8
:1030900040080880FFE7FFE70098401C6946087079
:1030A000E3E7FFE70198401C01A90880CAE70298FE
:1030B00005A90880FFE705A8008806B07047C0464C
:1030C000FFFF000001A00000B0B584B0029002989C
:1030D00020B9FFE703A9002008700FE0094801901C
:1030E000029801991CC91CC03CC93CC03CC93CC0E9
:1030F000029800F009F803A90870FFE703A8007818
:1031000004B0B0BD00FC000870B590B00E900E98F1
:1031100020B9FFE70FA90020087054E00E9800685E
:103120002B49884204D0FFE70FA9002008704AE02D
:103130000E988088012804D0FFE70FA900200870AE
:1031400041E00E98C0882C2804D0FFE70FA900208A
:10315000087038E00E9A03A8014638CA38C178CA08
:1031600078C178CA78C10D9902AA00921180002115
:1031700001852C21FFF754FF0246009801A90A801F
:1031800000880988884204D0FFE70FA90020087052
:1031900019E003A80830FFF7D1FE012804D0FFE7AB
:1031A0000FA9002008700EE003A81830FFF7C6FE34
:1031B000012804D0FFE70FA90020087003E00FA941
:1031C00001200870FFE70FA8007810B070BDC0465E
:1031D0004346465280B58CB00B900B9808B9FFE778
:1031E0003AE063200190FDF7ADFF0AA90391087052
:1031F00064200290FDF7A6FF0146019809AA0492F7
:103200001170FEF7A5FC0146029808AA05921170FC
:10321000FEF79EFC03990246049807AB06931A70CA
:103220000A9A0B9B5A70099A0B9B1A7000780978BE
:10323000FFF72AFE0599024606980B9B5A60089AEA
:103240000B9B5A72079A0B9B1A7200780978FFF74A
:103250001BFE0B99C860FFE70CB080BD80B588B03D
:1032600004A80390FFF7B6FF039802784378059807
:10327000019000930748114600F0DAFD0398027AA6
:10328000437A0798019000930348114600F0D0FD5F
:1032900008B080BD9C4900084F49000880B586B041
:1032A0001C48029002A80190012282801121C18055
:1032B00028214172102181726423C372027200229C
:1032C0008281FFF7ADFE014601988181FFF7F0FD95
:1032D000012804D0FFE7124800F0AAFD18E002A878
:1032E000009002210172002181811021FFF798FED8
:1032F000014600988181FFF7DBFD012804D0FFE73C
:10330000064800F095FD03E0034800F091FDFFE75B
:1033100006B080BD47434652B84A0008054B000836
:10332000F14A000880B582B01448FFF7CDFE38B9E5
:10333000FFE71248FFF744FD01A90020087019E0DB
:103340000E480830FFF7B4FD012804D0FFE701A9BB
:10335000002008700EE009481830FFF7A9FD012889
:1033600004D0FFE701A90020087003E001A90120B3
:103370000870FFE701A8007802B080BD141000209B
:1033800081B000900099086840229043086001B025
:10339000704781B00090009908684022104308608F
:1033A00001B0704782B0019068460180019A51686F
:1033B00041F2000399435160028801994868104323
:1033C000486002B07047000084B0039002A80180FA
:1033D00003988E49884205D1FFE702A80088039927
:1033E000C86015E00398406841F200010840009071
:1033F000009838B1FFE703980C30019002980199CA
:10340000087004E002A800880399C860FFE7FFE79E
:1034100004B0704780B584B00390039802902E49A1
:1034200088420ED0FFE702987849884211D1FFE721
:1034300040F20C300190FFF7AFFC0198FFF79AFCC7
:1034400008E005480090FFF7A7FC0098FFF792FC02
:1034500000E0FFE704B080BD0E04000083B00190DF
:103460000091019880680099084204D0FFE702A902
:10347000012008702BE001981749884223D1FFE70B
:10348000009870B9FFE701988068C004800F20B1F0
:10349000FFE702A90020087019E002A901200870C6
:1034A00015E0009870B9FFE7019880684005800F2B
:1034B00020B1FFE702A90020087008E002A901205E
:1034C000087004E0FFE702A900200870FFE702A8E7
:1034D000007803B07047C0460038004086B00490C2
:1034E000039100200090049800680290029843F233
:1034F000400108400290049800680190019843F64A
:1035000040010840019004984068009000983E49AE
:103510000840009004983D4988423DD1FFE7039858
:103520000168029808430290039841680298084392
:1035300002900398C16802980843029003980169B9
:103540000298084302900398416902980843029048
:10355000039881690298084302900398806840F2BA
:10356000007188420BD0FFE70398806840F6007135
:10357000884204D0FFE705A90020087040E00398C6
:10358000816840F600000140029808430290FFE77E
:1035900002980499086029E003980168019808439B
:1035A0000190039841680198084301900398C1680D
:1035B000019808430190039801690198084301901C
:1035C0000398416901980843019003988169019823
:1035D0000843019001980499086003988168009855
:1035E00008430090009804994860FFE70499C8696F
:1035F00040F600029043C86105A901200870FFE76A
:1036000005A8007806B07047FFF0000000300140C8
:1036100081B0009000990020086000994860009AED
:1036200040F2007191600099C8600099486100996A
:10363000886101B07047000084B0002003900290C0
:10364000314908680122120410430860FFE703981B
:10365000401C03902C480068012149040840029056
:10366000FFE702990020019041B9FFE7039840F677
:103670000001401A411E88410190FFE70198C007F0
:103680000028E4D1FFE7204800688003002802D426
:10369000FFE7FFE7FEE71D49086802221043052205
:1036A000904308601A49009108680860086808603B
:1036B000086808600868174A1040086008681D22FA
:1036C00012041043086010490868012212061043D2
:1036D0000860FFE70C4800688001002801D4FFE77C
:1036E000F8E70B4908680322904308600868022243
:1036F00010430860FFE7064800680007002801D46F
:10370000FFE7F8E704B070470010024000200240D5
:1037100004100240FFFFC27780B5FFF78DFF80BD28
:1037200081B000900098042806D1FFE70649086898
:1037300004221043086005E003490868042290430E
:103740000860FFE701B0704710E000E080B504209A
:10375000C043FFF7E5FF08480068FCF76EFD074926
:10376000FCF72DFD01460648016000680549FCF79D
:10377000E9FC0549086080BD040000200024F44AEB
:103780000C00002000007A440800002080B588B0BA
:1037900007900691002005900490039002900798EE
:1037A0000190374988420AD0FFE70198974988423B
:1037B0000AD1FFE70520FFF78DF9059005E002200B
:1037C000FFF788F9059000E0FFE70798006800041C
:1037D000002818D5FFE70598400006994A08801888
:1037E000B0FBF1F00290029813490840049002984F
:1037F0000007400F039004A8008803A90988084324
:103800000799C86016E0059806994A088018B0FB29
:10381000F1F00290029808490840049002980F21A4
:103820000840039004A8008803A909880843079961
:10383000C860FFE708B080BDF0FF000080B584B02D
:103840000390039802900E4988420DD0FFE702983A
:10385000D449884210D1FFE70B480190FFF79CFA4A
:103860000198FFF787FA08E006480090FFF794FAFE
:103870000098FFF77FFA00E0FFE704B080BDC04684
:1038800000440040110400000E03000082B00190CB
:10389000009101998868402290438860009A0199BC
:1038A00088681043886002B0704782B00190009130
:1038B00001998868802290438860009A01998868FD
:1038C0001043886002B0704781B00090009908688A
:1038D00001221043086001B0704784B00091014696
:1038E0000098029101A9088002980A8892098058DC
:1038F00009881F221140C840C00720B1FFE703A973
:103900000120087003E003A900200870FFE703A866
:10391000007804B07047000080B58CB00B90394837
:103920000190FFF715FA0198FFF712FA3648FFF7F2
:103930000FFA40F20050FFF70BFA0920C006029080
:103940000121099140F200220892FEF736FD02980B
:10395000099940F200420492FEF72FFD0298089B5D
:10396000099A02210A91FEF7ADFD0298049B099A7B
:103970000A99FEF7A7FD0298089B002105910322F2
:103980000392FEF7E6FD0298039A049B0599FEF761
:10399000E0FD84480790FFF751FF07980B99FFF768
:1039A000F5FE0599079800F0A6F80599079800F02C
:1039B00029FA0599079800F071F90798FFF784FF35
:1039C0000798082100F07FF907980421069100F07C
:1039D000A7F80798052100F01BF80699079800F052
:1039E00028F80798089900F024F809990A20FEF7AA
:1039F0006CFE0A991B20FEF768FE00F0A1F80CB0DF
:103A000080BDC046110500000E06000000380140D0
:103A100082B001906846018000881F220146114053
:103A200001238B400199820988589843885002B03D
:103A3000704782B001906846018000881F220146CD
:103A4000114001238B4001998209885818438850FE
:103A500002B0704782B00190009100980C498842F2
:103A600008D1FFE70199D022885848F20003984313
:103A700088500BE000981F2109040840000C012227
:103A800082400199086A10430862FFE702B070475C
:103A900009340F3410B585B00390029100200190D5
:103AA0000090039802A9098889094058029C1F23A5
:103AB0001C4001210A46A240104001900398029A3E
:103AC000920D8058029A1B041A40120C9140084033
:103AD0000090009838B1FFE7019820B1FFE704A9F2
:103AE0000120087003E004A900200870FFE704A883
:103AF000007805B010BD82B001900091019908686E
:103B00000122904308600199086840F200629043E6
:103B10000860009A019908681043086002B0704775
:103B200082B00190009101990868042290430860D6
:103B3000009A019908681043086002B070470000BD
:103B400080B58AB002200290FEF79CFA03A800908C
:103B5000FEF7F2FB00990298114A03921E4A059261
:103B6000002204920692802307930A760123019390
:103B70004B768A7642F200020892FEF7BFFA02986C
:103B8000FEF772FA01990298FEF7A8FA9C484021C4
:103B9000FFF77CFE0298FEF759FA0AB080BDC046D6
:103BA000243801400038014080B582B002200190E5
:103BB000FEF73EFA01980849FEF7ACFB0198802118
:103BC000FEF7D2FB01980121FEF788FA0198FEF773
:103BD0003DFA02B080BDC0464410002010B586B04A
:103BE000049003A8018002A900200880049820B155
:103BF000FFE703A8008820B9FFE705A90020088097
:103C00003BE00A20FEF756FDFFE702A8008803A963
:103C10000988884227DAFFE775480088411C01A817
:103C200001800088400A20B1FFE701A90020088038
:103C3000FFE701A800886D490988884205D1FFE7A0
:103C400010490868401C08600DE0049802A90A8821
:103C5000805C674A1488694B185501981080029857
:103C6000401C0880D1E700F057F80A200121FEF738
:103C70002CFD029805A90880FFE705A8008806B07A
:103C800010BDC046CC10002080B582B0014601A80E
:103C900001700121FFF7A2FF02B080BD82B0019048
:103CA00000910199086801229043086001994868D1
:103CB00043F2000290434860009A0199486810431B
:103CC000486002B0704782B0019000910199086885
:103CD000082290430860009A019908681043086020
:103CE00002B0704780B50120FEF7A2F94148028872
:103CF0003E480188891801800088400A20B1FFE70A
:103D00003A4900200880FFE73A49002008803649F8
:103D1000087000F001F880BD80B58AB032480078A4
:103D200008B1FFE75DE031480088314909888842E1
:103D300005D1FFE732480021FFF7B7FD51E02C48DD
:103D400000882A490988884208DDFFE7284800885A
:103D500026490988401A02A9088007E023480188FB
:103D600040F20020401A02A90880FFE71E49012006
:103D70000190087002991F4A1180FEF759F90198C5
:103D8000FEF780F903A80090FEF7D6FA0099019893
:103D9000194A0392154A1388184AD218059200222C
:103DA0000492069202AB1B8807930A7648768876BF
:103DB00041F200020892FEF7A1F901990846FEF7C8
:103DC0008DF901980221FEF721FA01980821FEF7EA
:103DD0001DFA0B488021FFF768FD0198FEF736F9C0
:103DE000FFE70AB080BDC046C8100020D0120020F6
:103DF000D2120020CA10002028380140D010002024
:103E00000038014082B001900091019908680122B8
:103E1000904308600199086841F2000290430860ED
:103E2000009A019908681043086002B070470000CA
:103E30000FB410B503A9044B044A029800F0E8F847
:103E400010BC08BC04B01847A523000800000020DF
:103E50002021020C01D010211046020A01D0104688
:103E60000839020901D01046091F820801D0104606
:103E7000891E420801D0881E7047081A704702E068
:103E800008C8121F08C1002AFAD1704770470020E5
:103E900001E001C1121F002AFBD17047F0B51FB429
:103EA00086B00998089A030D0021024314D05148A6
:103EB000514A1818504305141198012810981AD027
:103EC000281A401C00264D4F4D4900960191049040
:103ED000002812DA444211E01198012449A3012874
:103EE00001D11098C1430698119A84600360C260A2
:103EF00041600BB0F0BD4042E4E7044621050020DC
:103F00003F4A001C51410391029012E0E00707D0A4
:103F100032463B4601990098FCF7CEFA0191009099
:103F200032463B4610461946FCF7C6FA06460F468F
:103F30006410002CEAD10498039B0028029A099986
:103F4000089806DAFCF7B8FA019B009AFCF7B4FA75
:103F500005E0FCF719FB019B009AFCF715FB0446F2
:103F60000E460022284BFCF7A7FB03D80020C043D5
:103F7000014607E00022254B20463146FCF7EAF9CE
:103F8000FCF77AFB102409E0002C0ADB0A2200234C
:103F9000FCF76EF9079B30321A55641E02460A433D
:103FA000F2D11122641C079B121B1C19119B012BBF
:103FB00003D0012308430ED10AE0084304D01120A6
:103FC00010900020119077E71098151A6D1E0BE0E5
:103FD0001098824202DD00236D1C03E0824201DA68
:103FE00000236D1E002BEED0069811998260C160EF
:103FF00030C07EE701FCFFFF104D000000001440C0
:104000000000F03F300000000000F0430000E03FFF
:10401000FFB597B00646002518E2252877D1002481
:104020002746FD49049400E00443761C32780120C1
:10403000203A90400842F7D130782A280ED0022248
:10404000307801463039092916D804990A23594392
:10405000303940181443761C0490F1E7189802C8D0
:1040600004911890002904DA0120400304434842D7
:10407000049002200443761C30782E2814D10420AA
:1040800004437078761C2A2809D11898761C80C8B9
:10409000189009E00A214F43303FC719761C307849
:1040A000014630390929F5D930786C2810D006DC62
:1040B0004C281AD068280ED06A2817D104E074283A
:1040C00013D07A2812D110E00120400504430CE0FF
:1040D0000121090501E0032109050C4371788142A2
:1040E00003D1012000052418761C761C307811902D
:1040F00066280BD013DC58287DD009DC00287BD043
:104100004528F6D04628F4D047281AD1A5E118E072
:10411000632835D0642870D0652812D19DE17028BD
:104120006CD008DC6728F1D069287BD06E280DD0D0
:104130006F2806D1BAE073282ED0752871D0782860
:1041400059D01A9A199990476D1C7EE16002400F70
:10415000022809D003280DD00428189801680DD032
:104160000D60001D189070E11898EA1701680D6045
:104170004A60F6E7189801680D80F2E70D70F0E7E5
:1041800018986A4601781172001D1890002050722C
:1041900002A80090012005E0189802C8189000209D
:1041A0000091C04361070DD5002101E00199491C30
:1041B0000191B94212DA8142F8DB009A515C002980
:1041C000F4D10BE0002101E00199491C01918142E9
:1041D000FADB019A0099895C0029F5D101990498CC
:1041E0001A9B471A21463846199A00F097FA019906
:1041F000401945180BE04FE02CE113E04EE0009829
:1042000000990078491C00911A9A199990470198D1
:10421000401E0190401CF2D1214638461A9B199A43
:1042200010E137E00A200021009001916002410F67
:10423000022907D0189A01CA1892C2179446032976
:1042400008D00AE01898C01DC108C90005C9189116
:10425000944607E000B2C2179446042902D140B246
:10426000C1178C4600226146944506DA0A460021B1
:10427000404291418C462D2102E0210504D52B219D
:104280006A461173012103E0E10701D02021F7E71D
:10429000029155E00A200AE0102008E0102000906A
:1042A0000021042004430191082703E00820002195
:1042B000019100906002410F022907D0189A01CAAB
:1042C000189200229446032908D008E01898C01DCF
:1042D000C108C90005C91891944603E080B20429B9
:1042E00000D1C0B200210291210729D5119970296E
:1042F00006D0009A1021019B4A401A4305D00EE0D7
:1043000040216A461173012108E06146014306D04D
:1043100030216A4611731199517302210291009A5A
:104320000821019B4A401A430AD16146014301D149
:10433000610705D530216A46117301217F1E029164
:104340001199582904D035A10E910DA90D910DE0B8
:1043500037A1F9E76146019B009AFBF789FF0E9BA5
:104360008C469B5C0D9A521E0D9213706146014360
:10437000F0D10D9805A9081A20300190600703D5E7
:1043800001200004844300E001270198874201DDF9
:10439000381A00E00020019900904118029809188D
:1043A0000498401A0490E00306D421461A9B199AF7
:1043B000049800F0B3F94519002706E003A81A9AFB
:1043C000C05D199990476D1C7F1C02988742F5DBF0
:1043D000E0030CD521461A9B199A049800F09EF927
:1043E000451904E01A9A3020199990476D1C0099DC
:1043F000481E00900029F5DC08E00D980D99007822
:10440000491C0D911A9A199990476D1C0199481EE3
:1044100001900029F1DC63E10928010030313233D9
:1044200034353637383961626364656600000000F0
:1044300030313233343536373839414243444546DA
:104440000000000000F05AF94519761C3078002869
:1044500000D0E2E528461BB0F0BD600700D4062777
:104460001898C01DC108C90048680A680831C30F00
:10447000DB071891190001D09CA108E0210501D5A6
:104480009BA104E0E10701D09AA100E09AA14300BA
:1044900011985B08109165280CD006DC452809D0DE
:1044A00046281DD0472841D141E0662818D067280A
:1044B0003CD13CE00021112F01DB112000E0781CF1
:1044C0000191009008A911A8FFF7E8FC1399059144
:1044D0000021119A15927F1C12980197009150E0CB
:1044E0000120C00703900120019008A9009711A89E
:1044F000FFF7D4FC139A149905920022119B0092A5
:1045000012981593059A0192002901D0104602E0F5
:10451000791C40180190381A01D5019804E04042F6
:10452000401E0090781C0190C01B029043E0012FB8
:1045300000DA01270021112F01DD112000E03846AB
:104540000191009008A911A8FFF7A8FC1399059103
:10455000119A0021129815920091019721070CD40D
:104560000599B94201DB019900E00191012904DDBF
:10457000159A491E515C302906D0B84201DA011D56
:1045800005DA0121029115E00199491EEDE70028A5
:1045900005DC0099411800910199091A03E0019A7C
:1045A000411C914200DD01910099401A401C02908B
:1045B0000120C0070390200706D402990198814288
:1045C00002DB0020C043029000206946C87707AF95
:1045D000012103980337C907884224D00220119093
:1045E0002B201290039800280CDA404203902D20D3
:1045F000129007E00A210398FCF78AF830317F1EF9
:10460000039039701199481E11900029F2DC03982B
:104610000028EFD1791E12980870307820210840C8
:104620004530BF1E387006A8C01BC01D03901098EF
:104630000078002800D00120019941180298C01785
:104640000918039809180498401A401E0490E003C2
:1046500006D421461A9B199A049800F05FF8451970
:1046600010980078002803D01A9A199990476D1C69
:10467000E00324D521461A9B199A049800F04EF8BD
:1046800045191CE00098002807DB0099059888422E
:1046900003DD1598405C199901E0199930201A9AA8
:1046A000904700986D1C401C00900298401E02909C
:1046B000002804D11A9A2E20199990476D1C01994F
:1046C000481E01900029DDDC05E038781A9A7F1C2D
:1046D000199990476D1C0399481E03900029F4DC3A
:1046E00021461A9B199A0498ACE600002D000000A0
:1046F0002B0000002000000000000000F8B5044678
:1047000000251E461746880404D405E039462020BB
:10471000B0476D1C641EF9D52846F8BDFFB50446A8
:10472000002581B01E46C80301D5302700E02027B0
:10473000880404D505E038460399B0476D1C641E13
:10474000F9D5284605B0F0BD120800AA0400000003
:104750000000D42DAA001F0000000000010000602E
:10476000FF00001F104066EC1CF08014089102024C
:10477000D0CA601033E136190A9F382929C0940A3B
:10478000530800B400000100004271CE1C425B1CC3
:104790001CAEE0710000F410E242200081709A0C1F
:1047A000000F90001F063F7F120800AA04000000BF
:1047B0000000D42DAA001F000000000001000060CE
:1047C000FF01001F100266EC1CF080140891020229
:1047D000D0CA601033E136190A9F382929C0940ADB
:1047E000530800B400000100004271CE1C425B1C63
:1047F0001C7FAEE0710000F410E242200081709A4C
:104800000C000F90001F043F3D3D20525820E78AC6
:10481000B6E68081205354413D307825303258200F
:1048200028307830353D525820307830323D53545E
:10483000425920307830313D534C45455029203D78
:104840003D0D0A003D3D2054582063686E6C3D309C
:104850007825303258206F66733D307825303258D5
:10486000207C2052582063686E6C3D3078253032B1
:1048700058206F66733D307825303258203D3D0D0D
:104880000A00545820696E6974204F4B0D0A005479
:104890005820696E6974204552524F520D0A000D1E
:1048A0000A5458204F4B2C20636F756E743D25754C
:1048B0000D0A000D0A5458204552524F522C2063C5
:1048C0006F756E743D25750D0A005458205573653B
:1048D0007220646174613A20002530325820005201
:1048E0005820696E6974204F4B0D0A00676F5F7224
:1048F00078204641494C0D0A00525820696E69746F
:10490000204552524F520D0A005258206E6F2070AF
:104910006B742C20464C41473D3078253032582C62
:10492000205354413D3078253032580D0A00504113
:1049300031352068696768740D0A00525820636831
:104940006970204649464F20646174613A200052E4
:1049500058207265616C2072656720646174613AE9
:10496000202066685F6F66667365743D2575283024
:104970007825303258292C66685F6368616E6E65F1
:104980006C3D257528307825303258292C206672E8
:1049900065713D256C7520487A0D0A0054582072C7
:1049A00065616C2072656720646174613A202066DD
:1049B000685F6F66667365743D25752830782530AD
:1049C0003258292C66685F6368616E6E656C3D25A0
:1049D0007528307825303258292C20667265713D53
:1049E000256C7520487A0D0A00B6AAB0FCC2CA3AF6
:1049F00020202025752E2530327525250D0A00C072
:104A0000EDC2DBB7A2B0FCCBD9B6C83A207E3235B6
:104A100020B0FC2FC3EB2028392E366B627073292F
:104A20000D0A003D3D3D3D20B6AAB0FCC2CAB2E22F
:104A3000CAD4BFAACABC203D3D3D3D0D0A003D3D44
:104A40003D3D20B6AAB0FCC2CAB2E2CAD4BDE1B9AB
:104A5000FB203D3D3D3D0D0A00B6AAB0FCCAFD3A23
:104A600020202025750D0A00D0F2BAC5B7A8B6AA35
:104A7000B0FCCAFD3A2025750D0A00B7A2CBCDB017
:104A8000FCCAFD3A2025750D0A00BDD3CAD5B0FC7D
:104A9000CAFD3A2025750D0A00436865636B2061E5
:104AA0006E6420436F6E66696720525820415050F3
:104AB0004C59204F4B0D0A00555341525420524639
:104AC0002054582F5258204150504C59204F4B0DD4
:104AD0000A00436865636B20616E6420436F6E66F5
:104AE0006967205458204150504C59204F4B0D0AB3
:104AF000005246205458204150504C5920455252A3
:104B00004F520D0A0055534152542052462074789A
:104B100020616E64207278204150504C59204552DB
:104B2000524F520D0A00436865636B20616E64202A
:104B3000436F6E666967204552524F520D0A00005E
:104B4000604B000800000020080000007E3E0008C6
:104B5000684B000808000020201700008E3E000867
:084B60000000000000A24A045D
:04000005080000CD22
:00000001FF
