:020000040800F2
:1000000048140020E10000085508000851080008C5
:1000100000000000000000000000000000000000E0
:100020000000000000000000000000005908000867
:100030000000000000000000570800085B080008EE
:10004000F3000008F3000008F3000008F3000008C4
:10005000F3000008F3000008F3000008F3000008B4
:1000600000000000F3000008F3000008F30000089F
:10007000F3000008F3000008F3000008000000008F
:10008000F3000008F300000800000000F30000087F
:10009000F3000008F3000008F3000008F300000874
:1000A000F3000008F3000008F30000080909000845
:1000B000F300000800000000000000000000000045
:1000C000F300000800000000F30000080348854624
:1000D00000F0F4FA004800479D1B00084814002077
:1000E0000448804704480047FEE7FEE7FEE7FEE7D6
:1000F000FEE7FEE75D080008CD000008D2B201E08F
:100100000270401C491EFBD270470022F6E710B572
:1001100013460A4604461946FFF7F0FF204610BD75
:10012000024670B54A40D30FDB0740002DD04A008D
:100130002AD0010E140E000212020919400A520AB6
:100140008418E50104465443000A120A2E04504361
:10015000A4194219200CC543AA18120C0125AD039D
:10016000521C521912047F39240400D0521C10432F
:1001700001D44000491EC2B20C06C0092018401C20
:100180004008802A02D003E0002070BD40084000F3
:10019000002900DA0020184370BD70B502464A40BD
:1001A000D50F40004A00ED0740085208002814D03F
:1001B000002A12D0C40DD30D41020120C005520205
:1001C000490A520AE41A091812187D34914201D3DF
:1001D000641C00E04900002C01DA002070BD0023FF
:1001E000914201D3891A0343400849000028F7D1FE
:1001F00000290AD0914202D10121C90705E09142AC
:1002000001D2012101E00121C943E005C0184019D4
:1002100000F04CF870BD10B500229623114600F096
:100220004DF810BD410040020122400AD205090EDE
:1002300080187F2901DA00207047962903DC962276
:10024000511AC8407047963988407047F0B51FB4BE
:100250000646002082B005464024019100901BE034
:10026000019922460F46304600F06FFA049A059B2A
:10027000801A994110D310461946224600F055FACB
:10028000361A8F410197224601200021009F00F07D
:100290004CFA38184D4100902046641E0028DFDCDF
:1002A000019B00982946324607B0F0BD002904DAC8
:1002B000401C490001D140084000704770B4002440
:1002C000050C05D11024000402D1002921D01124ED
:1002D000050E01D100020834050F01D10001241DD3
:1002E000850F01D18000A41C002801DB4000641CA4
:1002F000002908D020252E1B0D46F540A14000D036
:1003000001212943084301061B1B000ADB1D02D5FE
:10031000002070BC7047DB05181880180029F8DA37
:10032000401C4900F5D170BC4008400070470000F7
:10033000F0B507460846584087B0C00F0490480003
:100340000E46590040084908BC1A884105D2384673
:1003500031461E4617460B460246580040081043D9
:100360004CD0300D039040055900400D490D0590CB
:10037000401A0290402872DA18030121000B090587
:100380000843019004980092002805D00199524238
:100390000020884100920190029840210A1A019998
:1003A000009800F0C2F905460C466B4607CB00F0FA
:1003B000DDF9C0197141039A0E0D0023D71756407D
:1003C0001A467A40164344D0049A002A2DD0029A45
:1003D000012A039A15DC1205C01A9141012636053F
:1003E000001C7141D20F059ED20700930192029624
:1003F0002A46234600F0DAF907B0F0BD3846314608
:10040000FAE71605224A0F46B218C01AB741012171
:100410000905001C4F4100187F4111461818794109
:10042000E20F10436D19644113E0E2076D081543B4
:100430006408C2071443039A01261205C01A9141A9
:100440003605001C7141CE07400830434908C018EA
:1004500051412A46234600F09CF9CDE7FFE7049876
:1004600001224000C117121A00238B410498314623
:10047000C417381AA141EEE730B40124E407634001
:1004800030BC55E730B40124E407614030BC4FE78D
:100490000000E0FFF0B51FB488B00B990998002464
:1004A00048400999C00F490049080991C0070B99B4
:1004B0000090490049080B9109990898A6460843FD
:1004C0001CD00B990A98084318D0099801244000C1
:1004D000420D4800410D099824050003000B2043FC
:1004E00009900B980003000B20430B9050181C49F7
:1004F0004018002201901446104605E000200146F5
:100500000DB0F0BD032801DA034600E003239C464A
:10051000C11A0AAE0AE05F0008ADED5B4F00F75B61
:100520007D430027AA187C41491C5B1E6145F2DD12
:10053000410004AB5A522104120C0A43240C401C03
:100540000828DFDB01980290009970460191009025
:10055000059B049A0799069800F028F9D0E7000057
:100560000DFCFFFFF0B50C465C4085B0E40FE407DE
:1005700003944C000026640859009446490802463A
:100580000296224321D062460A431ED06200570DD4
:100590004A000E032303550D012402462C4924056D
:1005A000781B1B0B360B40182343264361460090F3
:1005B0001C46501AB44103D30098401C009002E03E
:1005C000921800985B41002803DA0020014605B02C
:1005D000F0BD0020012109050746864611E064466A
:1005E0001D46141BB54106D36546521BB3417446E4
:1005F00007430C43A646CD074008490828439218F4
:100600005B4105460D43EAD11046184313D06046BE
:10061000194650407140084306D06046101AB34155
:1006200006D20122002306E000220123DB0702E0BC
:100630000122D2435310009874460105381C6141D1
:10064000029C039D0019694100F0A3F8BFE7000078
:10065000FD0300004A0009030123090B1B05194390
:100660000A4B10B5520D9A4202DA0020014610BD25
:10067000064B34339A4203DC9A1A00F066F810BD38
:10068000034BD21800F051F810BD0000FF0300002A
:10069000CDFBFFFF10B5002904DB0124E407404235
:1006A0008C412146002B04DB1C460123DB07524210
:1006B000A341994200D1904210BD00001CB50948E9
:1006C00000900948019005460126009C05E0E3687A
:1006D00007CC33430C3C98471034AC42F7D3FFF7B8
:1006E000F9FC0000A4350008C435000870B50446C4
:1006F000002903D000202022012310E0002801D08F
:100700000020C043C046C0460DE02546D5408D427E
:1007100005D30D469540641B1D469540401915466E
:10072000521E002DF1DC214670BD10B5202A04DBDD
:100730000146203A9140002010BD914020239C1A90
:100740000346E3401943904010BD10B5202A04DB56
:100750000846203AD040002110BD0B46D340D0407F
:100760002024A21A91400843194610BD10B5202A32
:1007700006DBCB170846203A1041C1170B4306E0B1
:100780000B461341D0402024A21A91400843194639
:1007900010BD10B5002B08DA0024401C61419218EE
:1007A0005B411A4301D14008400010BDF0B51FB4B1
:1007B00082B005460C0003D0084602F08BF902E037
:1007C00002F088F920300246009021462846FFF7C3
:1007D000ACFF049B059A04460F4618431143084397
:1007E00014D0184610431BD0009840210A1A18460E
:1007F0000599FFF7AAFF05460E46009A0599049849
:10080000FFF793FF084305D0012004E02046394656
:1008100007B0F0BD0020C11705430E432C433743FA
:1008200000990E986305401A7905E40A00220C43EA
:10083000FD0A0A3002D500200146E9E7010510193A
:1008400069410C9C0D9D00196941FFF7A2FFDFE78C
:10085000FFE7FEE7704770477047704780B582B08A
:1008600020490868012210430860FFE71D4800681E
:100870008007002801D4FFE7F8E71B4908681B4AF6
:100880001040086008681A4A104008601549086856
:10089000184A10400860184908680F229043086001
:1008A0001649086840F20312904308600868012264
:1008B00000921304984308600868D30798430860BF
:1008C0000F490868904308600E49002001900860B5
:1008D00001F0B4FE00980199C00601F09FF902B042
:1008E00080BDC04600100240041002400C00FF080A
:1008F000FFFFC277FFFFF2FE2C10024030100240D3
:10090000341002400810024080B582B015481649E4
:1009100002F028F801280AD1FFE7124801F020FF71
:10092000124B1A88511C198011498854FFE70D4851
:10093000104902F017F8012811D1FFE7094801908A
:1009400001F00EFF019809490B88094A0021D15492
:10095000094A01211170074901F0E4FFFFE702B0E5
:1009600080BDC04600380140050005071210002078
:1009700010000020040004071010002081B0014680
:10098000684601700021405600280DD4FFE7002181
:10099000684641561F200A460240012090404909FE
:1009A0008900024A8850FFE701B0704700E100E08B
:1009B00070B582B0024601A8027000910021405635
:1009C000002816D4FFE7002401A908570322D343C7
:1009D0001840174A805809578C07E50EFF24AC4091
:1009E000A043009CA401E4B2AC40204319408850CD
:1009F0001AE001A908780F24204008380322D343C5
:100A000018400A4A8058002549578D07EE0EFF25E9
:100A1000B540A843009DAD01EDB2B540284321404B
:100A2000083919408850FFE702B070BD1CED00E0A6
:100A300000E400E080B501F01BFEE120400201F07F
:100A4000F3FE01F076F9014606480170007820B106
:100A5000FFE7064802F02EF803E0034802F02AF808
:100A6000FFE780BD42100020A6340008993400083A
:100A700080B501F0FDFDE120400201F0D5FE01F05E
:100A8000FBF801460B480170007868B1FFE70B489E
:100A900002F010F80A4802F00DF80920C00648F2EA
:100AA000000100F098FF03E0034802F003F8FFE7BD
:100AB00080BDC04641100020E0340008D334000857
:100AC000F034000880B584B0024602A8027001AA82
:100AD00011700178602000F0FDFA6946002008706E
:100AE000FFE768460078632825DCFFE7642000F014
:100AF0008DF800F0CBF801A90978884204D1FFE70E
:100B000003A9012008701AE002A8007840280CD13F
:100B1000FFE76A2000F0A0F90007002804D5FFE7EE
:100B200003A9012008700AE0FFE7FFE70098401CD6
:100B300069460870D5E703A900200870FFE703A8FD
:100B4000007804B080BD80B56A20072100F0C2FAA9
:100B50006B203F2100F0BEFA80BD80B584B06520D7
:100B60002021029100F0B6FA6720019000F074F99C
:100B70000246019803A90A700A78E0231A400A7015
:100B8000039A0A231A430A70097800F0A3FA02991B
:100B9000682000F09FFA04B080BD80B584B003AB3C
:100BA0001870029101A80270694600200870FFE7E2
:100BB0006846007801A9097888420FDAFFE70398B0
:100BC00069460A7880180299895CC0B200F082FAFE
:100BD000FFE70098401C69460870E9E704B080BD53
:100BE00080B50920C006102100F0F5FE80BD80B55B
:100BF0000920C006102100F0E6FE80BD80B582B05D
:100C00000190019800F0FAFD02B080BD80B582B07D
:100C10000190019800F02CFE02B080BD80B584B038
:100C200003A9019108700D2000F016F90146019802
:100C300002AA1170007870B1FFE702988021084382
:100C400002A90870029840221043087002982022DE
:100C5000104308700DE002A908787F221040087048
:100C60000878BF22104008700878DF221040087012
:100C7000FFE702A801780D2000F02CFA04B080BD37
:100C800080B57448012100F0A6FE80BD80B56120CA
:100C900000F0E2F80F21084080BD80B5102001214E
:100CA000FFF710FF80BD80B502210846FFF70AFF5D
:100CB00080BD000080B58AB000F042F900F02EF946
:100CC0001420FFF79BFF3249002008900C2201926C
:100CD000FFF763FF019A2F491046FFF75EFF2E4989
:100CE000182002900822FFF758FF029A2B49202073
:100CF0000490FFF752FF2A4938201D22FFF74DFFCD
:100D0000284955200B22FFF748FF6120039000F08F
:100D1000A3F80246039809A906910A70099A1023BC
:100D20001A430A700A78DF231A400A70097800F023
:100D3000D1F96220059000F08FF8049B06990246D5
:100D400005980A70099A1A430A70097800F0C2F9E6
:100D50000920079000F080F80699024607980A706B
:100D60000A78F8231A400A70099A02231A430A7073
:100D7000097800F0AFF90898FFF750FFFFF7EDFE94
:100D8000FFF7E1FEFFF789FF01200AB080BDC046F2
:100D9000E9330008153400080D340008F533000865
:100DA000CC3300082134000880B58AB0274802906F
:100DB00001F038F92648019001F034F9019801F06A
:100DC00031F9019801F02EF9029801F02BF9092070
:100DD000C00605900121049100220992102303937B
:100DE00000F016FE039B059809990322069200F075
:100DF00056FE049B099AE6480890194600F008FE42
:100E0000049B069A0898099900F049FE04990598F0
:100E1000099A2023079300F0FBFD0598069A079B8B
:100E2000099900F03CFE00F046F80898099A022360
:100E3000114600F0EDFDFFF7D3FEFFF721FF00F0B4
:100E40001CF800F021F80AB080BDC0461205000071
:100E5000110500000004004880B582B0014601A8D9
:100E60000170007800F07CF802B080BD80B50920E8
:100E7000C006202100F0AFFD80BD80B50920C0066E
:100E8000202100F0A0FD80BD80B50920C006802192
:100E900000F0A1FD80BD80B50920C006002101221F
:100EA000802300F0B5FD80BD80B50920C0068021FB
:100EB00000F089FD80BD80B584B00920C006019096
:100EC0000121002202928023039300F0A1FD0198EA
:100ED0000299039B032200F0E2FD04B080BD80B5BF
:100EE0000920C006802100F07EFD411E884180BDA2
:100EF00080B582B0014601A801700178632000F03E
:100F0000E9F802B080BD80B582B0014601A8017049
:100F10000178642000F0DEF802B080BD80B57F204B
:100F2000FF2100F0D7F880BD81B014200090FFE7CA
:100F30000098411E009108B1FFE7F9E701B0704742
:100F400080B5FFF731FFFFF74BFEFFF799FEFFF784
:100F500094FFFFF7B0FFFFF797FFFFF7E5FF80BDB6
:100F600080B584B003A900910870FFF7A4FFFFF7D4
:100F70008BFFFFF782FFFFF783FEFFF738FEFFF7D7
:100F8000D3FFFFF7D1FF009800788021084300F0DD
:100F900044F8FFF780FF00F013F802A901910870F0
:100FA000FFF76BFFFFF7C0FFFFF7BEFFFFF718FE6D
:100FB000FFF771FFFFF764FE0198007804B080BD71
:100FC00080B582B069460020087001A90870FFE76B
:100FD00001A8007807281CDCFFE7FFF74EFFFFF7AA
:100FE000A3FF0098400069460870FFF73FFFFFF736
:100FF00076FF30B1FFE70098012108436946087089
:10100000FFE7FFF791FFFFE70198401C01A9087077
:10101000DEE76846007802B080BD80B582B001A9E5
:101020000870694600200870FFE7684600780728C6
:101030001EDCFFE7FFF721FF01A80078000600286B
:1010400003D5FFE7FFF720FF02E0FFF72DFFFFE7E3
:10105000FFF76AFF0198400001A90870FFF706FF3B
:10106000FFF762FFFFE70098401C69460870DCE765
:1010700002B080BD80B584B003AA0092107002A8AF
:1010800001900170FFF717FFFFF7FEFEFFF7F5FE77
:10109000FFF7F6FDFFF7ABFDFFF746FFFFF744FF55
:1010A000009800787F210840FFF7B7FF019800788B
:1010B000FFF7B3FFFFF7E1FEFFF736FFFFF734FF5F
:1010C000FFF78EFDFFF7E0FEFFF7E5FEFFF7D8FD27
:1010D00004B080BD80B582B00A46014601A8017007
:1010E00069460A7000780978FFF7C4FF02B080BD36
:1010F00080B584B0024602A8027001AA117001787E
:10110000602000F06DFB694600200870FFE768462C
:101110000078632814DCFFE7642000F097F800F003
:10112000EFF801A90978884204D1FFE703A901205B
:10113000087009E0FFE70098401C69460870E6E780
:1011400003A900200870FFE703A8007804B080BD61
:1011500080B56A20072100F043FB6B203F2100F09F
:101160003FFB80BD80B56C20022100F039FB80BDC3
:1011700080B5F94844F2000100F02DFC80BDC04666
:1011800080B5F54844F2000100F01DFC80BDC0466A
:101190000004004880B584B06520202100F020FBC9
:1011A0006720019000F0DAF90246019803A90A705D
:1011B0000A78E0231A400A70039A192302931A430B
:1011C0000A70097800F00CFB0299682000F008FB17
:1011D00004B080BD80B584B003AB1870029101A843
:1011E0000270694600200870FFE76846007801A990
:1011F000097888420FDAFFE7039869460A78801871
:101200000299895CC0B200F0EBFAFFE70098401C3D
:1012100069460870E9E704B080BD000080B5F64873
:1012200042F2000100F0D7FB80BDC04680B5F24815
:1012300042F2000100F0C7FB80BDC04680B582B01D
:101240000190019800F0DAFA02B080BD80B582B05A
:101250000190019800F00CFB02B080BD80B584B015
:1012600003A9019108700D2000F078F9014601985A
:1012700002AA1170007870B1FFE70298802108433C
:1012800002A9087002984022104308700298202298
:10129000104308700DE002A908787F221040087002
:1012A0000878BF22104008700878DF2210400870CC
:1012B000FFE702A801780D2000F092FA04B080BD8B
:1012C00080B582B06920009000F048F9024600988D
:1012D00001A90A700A78FE231A400A700A78FB23D3
:1012E0001A400A70097800F07BFA02B080BD000055
:1012F00080B5C14841F2000100F06DFB80BDC046E1
:1013000080B5612000F02AF90F21084080BD80B52A
:1013100008200521FFF7ECFE80BD80B510200121DB
:10132000FFF7E6FE80BD80B502210846FFF7E0FE2C
:1013300080BD000080B58CB000F088F900F074F931
:101340001420FFF77BFFFFF7EEFF012804D0FFE733
:101350000BA9002008706AE06120019000F0FEF8FF
:10136000024601980AA907910A700A9A10231A43A3
:101370000A700A78DF231A400A70097800F030FA00
:101380006220029000F0EAF80799024602980A707B
:101390000A9A202305931A430A70097800F020FA6C
:1013A00000200390FFF75AFFFFF7D2FE039822496F
:1013B0000C220492FFF70EFF049A20491046FFF713
:1013C00009FF1F49182006900822FFF703FF059820
:1013D000069A1C49FFF7FEFE1B4938201D22FFF725
:1013E000F9FE1A4955200A22FFF7F4FE18495F203A
:1013F00001220992FFF7EEFE0920089000F0AEF8F6
:101400000799024608980A700A78F8231A400A7069
:101410000A9A02231A430A70097800F0E1F9FFF7EB
:10142000B9FEFFF77AFF09980BA90870FFE70BA830
:1014300000780CB080BDC0464934000876340008FE
:101440006D340008553400082C340008823400083C
:101450007534000880B586B04820019000F07EF811
:101460000146019804AA00921170AA2100F0B8F96F
:10147000019800F073F800990246019803AB0293BB
:101480001A70097800F0ACF902980078AA2804D103
:10149000FFE705A90120087003E005A900200870F6
:1014A000FFE705A8007806B080BD000080B588B0D1
:1014B0002848009000F0B6FD009800F0B3FD0098B9
:1014C00000F0B0FD009800F0ADFD009800F0AAFD1E
:1014D00049480690012103910022079241F200033E
:1014E000019300F095FA019B069807990322049254
:1014F00000F0D5FA03990698079A42F20003029386
:1015000000F086FA029B049A0698079900F0C7FA41
:1015100003990698079A44F20003059300F078FABD
:10152000049A059B0698079900F0B9FA00F03AF87A
:101530000698079A40F20043114600F069FAFFF757
:101540006DFEFFF7D5FEFFF71BFE00F011F808B0A7
:1015500080BDC046120500000004004880B582B07E
:10156000014601A80170007800F080F802B080BD4B
:1015700080B5214848F2000100F02DFA80BDC04638
:1015800080B51D480021012248F2000300F040FA16
:1015900080BDC04680B5184848F2000100F013FA3B
:1015A00080BDC04680B584B013480190012100225F
:1015B000029248F20003039300F02AFA019802997C
:1015C000039B032200F06BFA04B080BD80B582B0AB
:1015D000094848F2000100F006FA20B1FFE701A92E
:1015E0000120087003E001A900200870FFE701A8AE
:1015F000007802B080BDC0460004004880B582B0CB
:10160000014601A801700178632000F0E9F802B0FA
:1016100080BD80B582B0014601A8017001786420C8
:1016200000F0DEF802B080BD80B57F20FF2100F021
:10163000D7F880BD81B014200090FFE70098411ECC
:10164000009108B1FFE7F9E701B0704780B5FFF7F7
:101650002DFFFFF7E3FDFFF74BFEFFF791FDFFF7CF
:10166000A1FFFFF785FFFFF7E5FF80BD80B584B0E0
:1016700003A900910870FFF795FFFFF779FFFFF7C7
:101680007FFDFFF735FEFFF7D1FDFFF7D3FFFFF733
:10169000D1FF009800788021084300F044F8FFF75C
:1016A0006FFF00F013F802A901910870FFF768FDC1
:1016B000FFF7C0FFFFF7BEFFFFF7B0FDFFF760FFCA
:1016C000FFF716FE0198007804B080BD80B582B0A7
:1016D00069460020087001A90870FFE701A800789A
:1016E00007281CDCFFE7FFF74BFDFFF7A3FF00987F
:1016F000400069460870FFF73BFDFFF767FF30B118
:10170000FFE700980121084369460870FFE7FFF7EB
:1017100091FFFFE70198401C01A90870DEE76846C9
:10172000007802B080BD80B582B001A9087069461A
:1017300000200870FFE76846007807281EDCFFE7F6
:10174000FFF71EFD01A800780006002803D5FFE77B
:10175000FFF70EFF02E0FFF71DFFFFE7FFF76AFF4D
:101760000198400001A90870FFF702FDFFF762FF32
:10177000FFE70098401C69460870DCE702B080BDB6
:1017800080B584B003AA0092107002A80190017085
:10179000FFF708FFFFF7ECFEFFF7F2FCFFF7A8FDED
:1017A000FFF744FDFFF746FFFFF744FF009800787E
:1017B0007F210840FFF7B7FF01980078FFF7B3FFDC
:1017C000FFF7DEFCFFF736FFFFF734FFFFF726FDDC
:1017D000FFF7CEFEFFF7D4FEFFF78AFD04B080BD11
:1017E00080B582B00A46014601A8017069460A70B8
:1017F00000780978FFF7C4FF02B080BD80B584B0DF
:1018000003900398FEF707FD18490968FEF788FC66
:10181000FEF708FD3349086033490020086033496A
:1018200001200860FFE7314800680290FFE70020D0
:1018300002A90978C907019041B1FFE702A88078A1
:1018400001210840414248410190FFE70198C0074B
:101850000028E8D1FFE72549086801229043086085
:1018600021490020086004B080BDC0460800002067
:1018700080B584B003900398FEF7CDFC1849096841
:10188000FEF74EFCFEF7CEFC164908601649002014
:101890000860164901200860FFE7144800680290BC
:1018A000FFE7002002A90978C907019041B1FFE7CD
:1018B00002A8807801210840414248410190FFE799
:1018C0000198C0070028E8D1FFE70849086801220D
:1018D0009043086004490020086004B080BDC04601
:1018E0000C00002014E000E018E000E010E000E050
:1018F00080B582B00190009101A8007801F088F8CD
:10190000019802B080BD86B00590049103920598BD
:10191000006A01900598406A009002A900200880A2
:10192000FFE702A8008807281DD8FFE702A8018862
:101930000398C840C00780B1FFE702A8018889006A
:101940000F228A40019991430191049900888000F7
:101950008140019808430190FFE7FFE70298401C8F
:1019600002A90880DDE702A908200880FFE702A895
:1019700000880F281FD8FFE702A801880398C840F5
:10198000C00790B1FFE702A80188890020390F2223
:101990008A40009991430091049900888000203882
:1019A0008140009808430090FFE7FFE70298401C41
:1019B00002A90880DBE7019805990862009805995B
:1019C000486206B0704782B001900091009801997A
:1019D000886202B0704782B001900091009801992E
:1019E000886102B0704783B001900091019800694E
:1019F0000099084204D0FFE702A90120087003E023
:101A000002A900200870FFE702A8007803B0704721
:101A100087B00690059104920393069800680190A0
:101A20000698C068009002A900200880FFE702A87D
:101A300000880F282BD8FFE702A801880398C84028
:101A4000C007F0B1FFE702A801884900032213464E
:101A50008B40019999430191059B018849008B4076
:101A6000019919430191018849008A4000999143E5
:101A7000009104990088400081400098084300903C
:101A8000FFE7FFE70298401C02A90880CFE7019812
:101A90000699086000980699C86007B0704710B5AD
:101AA00086B0059004A80170039202930078012883
:101AB00006D1FFE7029A059948681043486005E09F
:101AC000029A0599486890434860FFE70598806846
:101AD000009001A900200880FFE701A800880F28D6
:101AE0001DD8FFE701A801880298C840C00780B14F
:101AF000FFE701A80188490003228A400099914329
:101B000000910399008840008140009808430090AC
:101B1000FFE7FFE70198401C01A90880DDE7009876
:101B20000599886006B010BD80B5524800F07AFA79
:101B30000920C006002101231A46FFF769FF80BD76
:101B400080B582B00920C0060121FFF74CFFB0B973
:101B5000FFE70F20FFF752FE0920C0060121FFF723
:101B600042FF58B9FFE70C48007830B9FFE70A494F
:101B70000120087001A9087009E0FFE703E00649A9
:101B800000200870FFE701A900200870FFE701A806
:101B9000007802B080BDC0464010002080B582B001
:101BA0000020019000F04AF8FEF744FF6420009006
:101BB000FFF724FEFEF75CFF0098FFF71FFEFFF71C
:101BC000B3FF00F09DFC30B9FFE700F055FC642046
:101BD000FFF714FEFFE7FFE7FFF7B2FF012804D18C
:101BE000FFE7024800F066FFFFE7F5E78C340008E6
:101BF00080B584B00A46014603A80190017002A98D
:101C00000A700022009280560978FEF7D1FE0099F2
:101C100001984056FEF7B2FE04B080BD82B001903C
:101C2000009101980099034A114008430249086055
:101C300002B0704780FFFF1F08ED00E080B584B060
:101C40000C4800F0EFF90920C006029001210022A3
:101C5000019248F200030393FFF7DAFE019902981C
:101C6000039B0322FFF71BFF02980399FFF7B3FEC4
:101C700004B080BD1105000080B582B0FFF75AFBAB
:101C8000012804D0FFE701A90020087023E0FFF736
:101C9000E1FB012804D0FFE701A9002008701AE049
:101CA000FFF741FB2820FFF7B4FC0020FFF7A6FC5C
:101CB000FFF706FBFFF74CFAFFF754FAFFF727FB95
:101CC000012804D0FFE701A90020087003E001A962
:101CD00001200870FFE701A8007802B080BD80B540
:101CE00082B001A900910870FFF71DFB00980078F1
:101CF000FFF784FCFFF7E4FAFFF72AFAFFF732FA5E
:101D0000FFF705FB02B080BD80B582B001A900914C
:101D10000870FFF708FB00980078FFF77AFCFFF7E0
:101D2000CFFAFFF715FAFFF71DFAFFF7F0FA02B046
:101D300080BD80B582B0FEF7BDFF012804D0FFE76B
:101D400001A9002008700DE0FEF7ADFF2820FFF785
:101D5000DAF80020FFF7CCF8FEF79FFF01A9012079
:101D60000870FFE701A8007802B080BD80B582B09E
:101D700001A900910870FEF796FF00980078FFF720
:101D8000B7F8FEF78AFF02B080BD80B582B001A926
:101D900000910870FEF787FF00980078FFF7B3F80E
:101DA000FEF77BFF02B080BD9CB01BA9087000202D
:101DB00001901A9019901890179016901590149001
:101DC00013901290119010900F900E900D900C9017
:101DD0000B908B490A918B490991089007900691C5
:101DE000059004910390884800680C210840800801
:101DF0001A901A98029040B1FFE70298012807D084
:101E0000FFE70298022806D044E08248169044E09A
:101E10008048169041E07C4801680F2292041140EE
:101E2000890C109100680121C9060840C00E0F906E
:101E30000F98012804D1FFE71098113010900BE0A3
:101E400010980F2803D1FFE71020109003E010989E
:101E5000801C1090FFE7FFE76B4800680121090430
:101E60000840000C0E900E9870B1FFE768480068BB
:101E70000F210840401C0D900D996648B0FBF1F110
:101E800010984843169004E0109960484843169013
:101E9000FFE702E05F481690FFE75B480168C9B2C0
:101EA00009090C910C9A07A9895C0B9116990B9A58
:101EB000D1401591016840F200721140090A0C915D
:101EC0000C9A05A9895C0B9115990B9AD140149134
:101ED000006843F600010840C00A0C900C9903A862
:101EE000405C0B9015980B99C84013901BA8007884
:101EF0000090052800D97FE000998A0001A0801891
:101F00008746C04600F00AB800F00BB800F00CB8E5
:101F100000F00DB800F00EB800F040B81698179019
:101F20006BE01598179068E01498179065E0139887
:101F3000179062E03848006840F20011084088427B
:101F40000FD0FFE7344800680121090408408842A7
:101F500003D0FFE73248129002E030481290FFE7CA
:101F600019E02948006880B2800B19902A4800685F
:101F7000C00F1890189838B1FFE715981999491CA7
:101F8000B0FBF1F0129005E013981999B0FBF1F055
:101F90001290FFE7FFE7129817902EE01E480068A6
:101FA000800718B9FFE71398119022E01A480068DB
:101FB00003210840012803D1FFE71698119017E08C
:101FC0001548006803210840022804D1FFE748F2C1
:101FD000000011900BE0104800680321084003281E
:101FE00003D1FFE70B48119000E0FFE7FFE7FFE7B1
:101FF000FFE71198179000E0FFE717981CB07047B3
:1020000006070809010203040410024000093D000C
:102010002C10024000127A0030100240003FAB0149
:10202000809FD50081B001466846018000881F224C
:102030000146114001238B408109154A88581843F5
:10204000885001B07047C04681B0014668460180A3
:1020500000881F220146114001238B4081090C4A50
:1020600088589843885001B07047C04681B00146F7
:102070006846018000881F220146114001238B40E1
:102080008109034A88581843885001B07047C046F8
:102090000010024080B586B0059005982C2104916F
:1020A000FEF733F80498059AF2491160059A012168
:1020B0009180059AD08005980830642201920092A0
:1020C000282202921023039300F014F80199029A37
:1020D000039B059818300091022100F00BF8049939
:1020E000059A00201085059800F0ECF80599088500
:1020F00006B080BDB0B586B004460A98059404AC1D
:10210000217003A90A7002A90B7001A90870059932
:102110000020C860886048600860059AF449116032
:10212000059A01219180059A1121D1800499059A7F
:1021300011720399059A51720299059A9172019947
:10214000059AD172059988810598102100F0BAF896
:102150000599888106B0B0BD80B582B00090009826
:1021600000F040F8012807D0FFE71D4800F0A2FC6E
:1021700001A9002008702BE00098007A01280FD1F7
:10218000FFE70098407AFFF700FE0098807AFFF79B
:10219000EDFD124800F08EFC01A90120087017E047
:1021A0000098007A02280FD1FFE70098407AFFF7E5
:1021B000ABFD0098807AFFF792FD074800F07AFCAB
:1021C00001A90120087003E001A900200870FFE7C1
:1021D00001A8007802B080BDFD3400083635000843
:1021E0008A35000883B00190019820B9FFE702A961
:1021F000002008705DE001980068BD49884204D065
:10220000FFE702A90020087053E0019880880128A8
:1022100004D0FFE702A9002008704AE00198007A84
:10222000012809D0FFE70198007A022804D0FFE7CF
:1022300002A9002008703CE00198407A20B9FFE72D
:1022400002A90020087034E00198C07A20B9FFE7A5
:1022500002A9002008702CE00198C07A652804DBF0
:10226000FFE702A90020087023E00199887AC97A63
:10227000884204DBFFE702A90020087019E00199F9
:10228000487AC97A491E4143192048430A21B0FBC4
:10229000F1F00A494018009000980949884204D397
:1022A000FFE702A90020087003E002A901200870DE
:1022B000FFE702A8007803B07047C046009F060001
:1022C000ADC5060086B0049003A8018002A9254888
:1022D0000880049820B9FFE705A9002008803CE0A9
:1022E00001A900200880FFE701A8008803A9098848
:1022F00088422EDAFFE7049801A90988415C029818
:10230000484002A90880694600200870FFE7684637
:102310000078072817DCFFE702A80088C00738B15B
:10232000FFE702A9088840080F4A5040088004E0EF
:1023300002A9088840080880FFE7FFE70098401CD2
:1023400069460870E3E7FFE70198401C01A908808F
:10235000CAE7029805A90880FFE705A8008806B02B
:102360007047C046FFFF000001A00000B0B584B078
:102370000290029820B9FFE703A9002008700FE03F
:1023800009480190029801991CC91CC03CC93CC075
:102390003CC93CC0029800F009F803A90870FFE7A7
:1023A00003A8007804B0B0BD00FC000870B590B080
:1023B0000E900E9820B9FFE70FA90020087054E096
:1023C0000E9800682B49884204D0FFE70FA900202F
:1023D00008704AE00E988088012804D0FFE70FA912
:1023E0000020087041E00E98C0882C2804D0FFE738
:1023F0000FA90020087038E00E9A03A8014638CAD9
:1024000038C178CA78C178CA78C10D9902AA0092F9
:102410001180002101852C21FFF754FF024600980E
:1024200001A90A8000880988884204D0FFE70FA923
:102430000020087019E003A80830FFF7D3FE012838
:1024400004D0FFE70FA9002008700EE003A81830A1
:10245000FFF7C8FE012804D0FFE70FA9002008708D
:1024600003E00FA901200870FFE70FA8007810B063
:1024700070BDC0464346465280B586B01C480290A7
:1024800002A80190012282801121C180282141727D
:10249000102181726423C372027200228281FFF7CD
:1024A00011FF014601988181FFF756FE012804D0F3
:1024B000FFE7124800F0FEFA18E002A8009002219F
:1024C0000172002181811021FFF7FCFE0146009876
:1024D0008181FFF741FE012804D0FFE7064800F0A4
:1024E000E9FA03E0034800F0E5FAFFE706B080BD33
:1024F000474346521C350008693500085535000829
:1025000080B582B01448FFF731FF38B9FFE71248B1
:10251000FFF7C0FD01A90020087019E00E4808303F
:10252000FFF71AFE012804D0FFE701A90020087078
:102530000EE009481830FFF70FFE012804D0FFE72E
:1025400001A90020087003E001A901200870FFE73D
:1025500001A8007802B080BD1410002084B00020D3
:102560000390029031490868012212041043086068
:10257000FFE70398401C03902C48006801214904A0
:1025800008400290FFE702990020019041B9FFE75F
:10259000039840F60001401A411E88410190FFE770
:1025A0000198C0070028E4D1FFE7204800688003B5
:1025B000002802D4FFE7FFE7FEE71D490868022272
:1025C00010430522904308601A490091086808608A
:1025D00008680860086808600868174A10400860C2
:1025E00008681D221204104308601049086801227F
:1025F000120610430860FFE70C48006880010028BD
:1026000001D4FFE7F8E70B4908680322904308600C
:102610000868022210430860FFE7064800680007C8
:10262000002801D4FFE7F8E704B07047001002402B
:102630000020024004100240FFFFC27780B5FFF780
:102640008DFF80BD81B000900098042806D1FFE77F
:102650000649086804221043086005E00349086839
:10266000042290430860FFE701B0704710E000E0EB
:1026700080B50420C043FFF7E5FF08480068FDF778
:10268000CAFD0749FDF789FD01460648016000685B
:102690000549FDF745FD0549086080BD040000209F
:1026A0000024F44A0C00002000007A4408000020B6
:1026B00080B588B0079006910020059004900390A3
:1026C000029007980190414988420AD0FFE701989B
:1026D000D94988420AD1FFE70520FFF765FB05903D
:1026E00005E00220FFF760FB059000E0FFE7079898
:1026F00000680004002818D5FFE7059840000699F7
:102700004A088018B0FBF1F0029002981349084083
:10271000049002980007400F039004A8008803A9C2
:10272000098808430799C86016E0059806994A0881
:102730008018B0FBF1F0029002980849084004901C
:1027400002980F210840039004A8008803A9098873
:1027500008430799C860FFE708B080BDF0FF00009C
:1027600081B000900098406A0649084001B0704767
:1027700082B0019000910098024908400199886256
:1027800002B07047FF01000080B584B00390039849
:1027900002900E4988420DD0FFE70298A649884270
:1027A00010D1FFE70B480190FFF760FC0198FFF79D
:1027B0004BFC08E006480090FFF758FC0098FFF734
:1027C00043FC00E0FFE704B080BDC0460044004089
:1027D000110400000E03000081B000900099086809
:1027E00001221043086001B0704784B00091014697
:1027F0000098029101A9088002980A8892098058DD
:1028000009881F221140C840C00720B1FFE703A973
:102810000120087003E003A900200870FFE703A867
:10282000007804B07047000080B58CB00B9032483F
:102830000190FFF7F7FB0198FFF7F4FB2F48FFF734
:10284000F1FB0920C00604900121029140F2002210
:102850000392FFF758F80299049840F2004206925A
:10286000FFF751F8029A039B049802210891FFF7A1
:10287000CFF8029A0498069B0899FFF7C9F8039BC2
:1028800004980021079103220592FFF708F90498A4
:10289000059A069B0799FFF702F967480990FFF729
:1028A00073FF09980B99FFF703FF0799099800F048
:1028B0008AF80799099800F0E7F80799099800F055
:1028C000BFF80998FFF788FF0998082100F0CDF8B4
:1028D000099804210A9100F08BF808991B20FFF752
:1028E00087F90998052100F00BF809980A9900F07A
:1028F00007F80CB080BDC046110500000E060000B0
:1029000082B001906846018000881F220146114074
:1029100001238B400199820988581843885002B0DE
:102920007047000082B00190009100980C498842E5
:1029300008D1FFE70199D022885848F20003984354
:1029400088500BE000981F2109040840000C012268
:1029500082400199086A10430862FFE702B070479D
:1029600009340F3410B585B0039002910020019016
:102970000090039802A9098889094058029C1F23E6
:102980001C4001210A46A240104001900398029A7F
:10299000920D8058029A1B041A40120C9140084074
:1029A0000090009838B1FFE7019820B1FFE704A933
:1029B0000120087003E004A900200870FFE704A8C4
:1029C000007805B010BD82B00190009101990868AF
:1029D0000122904308600199086840F20062904328
:1029E0000860009A019908681043086002B07047B7
:1029F00082B0019000910199086804229043086018
:102A0000009A019908681043086002B070470000FE
:102A100080B582B0014601A8017001780648FFF731
:102A2000A7FEFFE704480549FFF7DFFE08B9FFE707
:102A3000F8E702B080BDC04600380140070700003B
:102A400082B00190009101990868012290430860CA
:102A50000199486843F2000290434860009A019946
:102A600048681043486002B0704782B001900091FE
:102A700001990868082290430860009A0199086843
:102A80001043086002B0704782B001900091019934
:102A900008680122904308600199086841F2000229
:102AA00090430860009A019908681043086002B0DA
:102AB000704700000FB410B503A9044B044A0298F4
:102AC00000F0E8F810BC08BC04B01847F118000882
:102AD000000000202021020C01D010211046020A23
:102AE00001D010460839020901D01046091F82089A
:102AF00001D01046891E420801D0881E7047081A6E
:102B0000704702E008C8121F08C1002AFAD17047B6
:102B10007047002001E001C1121F002AFBD170475D
:102B2000F0B51FB486B00998089A030D002102433E
:102B300014D05148514A18185043051411980128CF
:102B400010981AD0281A401C00264D4F4D49009667
:102B500001910490002812DA444211E011980124F6
:102B600049A3012801D11098C1430698119A8460A5
:102B70000360C26041600BB0F0BD4042E4E7044630
:102B8000210500203F4A001C51410391029012E0B0
:102B9000E00707D032463B4601990098FDF77AFCE2
:102BA0000191009032463B4610461946FDF772FCF3
:102BB00006460F466410002CEAD10498039B0028B7
:102BC000029A0999089806DAFDF764FC019B009ABD
:102BD000FDF760FC05E0FDF7C5FC019B009AFDF7E1
:102BE000C1FC04460E460022284BFDF753FD03D8D6
:102BF0000020C043014607E00022254B2046314615
:102C0000FDF796FBFDF726FD102409E0002C0ADBFA
:102C10000A220023FDF71AFB079B30321A55641E67
:102C200002460A43F2D11122641C079B121B1C1995
:102C3000119B012B03D0012308430ED10AE0084366
:102C400004D0112010900020119077E71098151AE9
:102C50006D1E0BE01098824202DD00236D1C03E024
:102C6000824201DA00236D1E002BEED006981199E6
:102C70008260C16030C07EE701FCFFFF104D0000A4
:102C8000000014400000F03F300000000000F0435E
:102C90000000E03FFFB597B00646002518E2252862
:102CA00077D100242746FD49049400E00443761CB4
:102CB00032780120203A90400842F7D130782A2813
:102CC0000ED00222307801463039092916D80499ED
:102CD0000A235943303940181443761C0490F1E715
:102CE000189802C804911890002904DA01204003C2
:102CF00004434842049002200443761C30782E2876
:102D000014D1042004437078761C2A2809D118981D
:102D1000761C80C8189009E00A214F43303FC7193C
:102D2000761C3078014630390929F5D930786C287D
:102D300010D006DC4C281AD068280ED06A2817D18B
:102D400004E0742813D07A2812D110E00120400545
:102D500004430CE00121090501E0032109050C43AE
:102D60007178814203D1012000052418761C761C5D
:102D70003078119066280BD013DC58287DD009DC00
:102D800000287BD04528F6D04628F4D047281AD111
:102D9000A5E118E0632835D0642870D0652812D1E9
:102DA0009DE170286CD008DC6728F1D069287BD0C1
:102DB0006E280DD06F2806D1BAE073282ED0752862
:102DC00071D0782859D01A9A199990476D1C7EE1D4
:102DD0006002400F022809D003280DD0042818985B
:102DE00001680DD00D60001D189070E11898EA1769
:102DF00001680D604A60F6E7189801680D80F2E7F7
:102E00000D70F0E718986A4601781172001D18904D
:102E10000020507202A80090012005E0189802C816
:102E2000189000200091C04361070DD5002101E0FA
:102E30000199491C0191B94212DA8142F8DB009AEA
:102E4000515C0029F4D10BE0002101E00199491CFB
:102E500001918142FADB019A0099895C0029F5D140
:102E6000019904981A9B471A21463846199A00F08E
:102E700097FA0199401945180BE04FE02CE113E057
:102E80004EE0009800990078491C00911A9A19990F
:102E900090470198401E0190401CF2D121463846CF
:102EA0001A9B199A10E137E00A2000210090019145
:102EB0006002410F022907D0189A01CA1892C2175E
:102EC0009446032908D00AE01898C01DC108C9001B
:102ED00005C91891944607E000B2C2179446042928
:102EE00002D140B2C1178C4600226146944506DAF1
:102EF0000A460021404291418C462D2102E02105E5
:102F000004D52B216A461173012103E0E10701D0AA
:102F10002021F7E7029155E00A200AE0102008E09E
:102F2000102000900021042004430191082703E0B1
:102F300008200021019100906002410F022907D072
:102F4000189A01CA189200229446032908D008E072
:102F50001898C01DC108C90005C91891944603E01E
:102F600080B2042900D1C0B200210291210729D5E5
:102F70001199702906D0009A1021019B4A401A43EA
:102F800005D00EE040216A461173012108E0614638
:102F9000014306D030216A46117311995173022101
:102FA0000291009A0821019B4A401A430AD16146C6
:102FB000014301D1610705D530216A461173012112
:102FC0007F1E02911199582904D035A10E910DA9A7
:102FD0000D910DE037A1F9E76146019B009AFDF7DD
:102FE00035F90E9B8C469B5C0D9A521E0D92137008
:102FF00061460143F0D10D9805A9081A20300190CF
:10300000600703D501200004844300E001270198F4
:10301000874201DD381A00E0002001990090411834
:10302000029809180498401A0490E00306D4214637
:103030001A9B199A049800F0B3F94519002706E085
:1030400003A81A9AC05D199990476D1C7F1C0298BD
:103050008742F5DBE0030CD521461A9B199A0498A8
:1030600000F09EF9451904E01A9A3020199990470A
:103070006D1C0099481E00900029F5DC08E00D98B1
:103080000D990078491C0D911A9A199990476D1C59
:103090000199481E01900029F1DC63E10928010033
:1030A00030313233343536373839616263646566BE
:1030B0000000000030313233343536373839414280
:1030C000434445460000000000F05AF94519761CBB
:1030D0003078002800D0E2E528461BB0F0BD60073C
:1030E00000D406271898C01DC108C90048680A689E
:1030F0000831C30FDB071891190001D09CA108E02B
:10310000210501D59BA104E0E10701D09AA100E0CF
:103110009AA1430011985B08109165280CD006DC39
:10312000452809D046281DD0472841D141E06628CE
:1031300018D067283CD13CE00021112F01DB112081
:1031400000E0781C0191009008A911A8FFF7E8FCA5
:10315000139905910021119A15927F1C12980197DD
:10316000009150E00120C00703900120019008A9C0
:10317000009711A8FFF7D4FC139A14990592002226
:10318000119B009212981593059A0192002901D083
:10319000104602E0791C40180190381A01D50198B8
:1031A00004E04042401E0090781C0190C01B029039
:1031B00043E0012F00DA01270021112F01DD11204A
:1031C00000E038460191009008A911A8FFF7A8FC7B
:1031D00013990591119A0021129815920091019767
:1031E00021070CD40599B94201DB019900E0019156
:1031F000012904DD159A491E515C302906D0B842D8
:1032000001DA011D05DA0121029115E00199491E3B
:10321000EDE7002805DC0099411800910199091A91
:1032200003E0019A411C914200DD01910099401A8E
:10323000401C02900120C0070390200706D4029989
:103240000198814202DB0020C043029000206946C1
:10325000C87707AF012103980337C907884224D0F4
:10326000022011902B201290039800280CDA404283
:1032700003902D20129007E00A210398FDF736FAFB
:1032800030317F1E039039701199481E119000292A
:10329000F2DC03980028EFD1791E1298087030787C
:1032A000202108404530BF1E387006A8C01BC01D35
:1032B000039010980078002800D00120019941184F
:1032C0000298C0170918039809180498401A401E5C
:1032D0000490E00306D421461A9B199A049800F042
:1032E0005FF8451910980078002803D01A9A1999A8
:1032F00090476D1CE00324D521461A9B199A049827
:1033000000F04EF845191CE00098002807DB0099F2
:103310000598884203DD1598405C199901E01999D8
:1033200030201A9A904700986D1C401C009002981B
:10333000401E0290002804D11A9A2E201999904715
:103340006D1C0199481E01900029DDDC05E03878EC
:103350001A9A7F1C199990476D1C0399481E039077
:103360000029F4DC21461A9B199A0498ACE6000067
:103370002D0000002B0000002000000000000000D5
:10338000F8B5044600251E461746880404D405E017
:1033900039462020B0476D1C641EF9D52846F8BD7B
:1033A000FFB50446002581B01E46C80301D530276D
:1033B00000E02027880404D505E038460399B0478B
:1033C0006D1C641EF9D5284605B0F0BD120800AA90
:1033D000040000000000D42DAA001F00000000001F
:1033E00000000060FF00001F104066EC1CF080141D
:1033F00008910202D0CA601033E136190A9F3829B9
:1034000029C0940A530800B400000100004271CEA4
:103410001C425B1C1CAEE0710000F410E242200074
:1034200081709A0C000F90001F063F7F120800AABF
:10343000040000000000D42DAA001F0000000000BE
:1034400000000060FF01001F100266EC1CF08014F9
:1034500008910202D0CA601033E136190A9F382958
:1034600029C0940A530800B400000100004271CE44
:103470001C425B1C1C7FAEE0710000F410E2422095
:103480000081709A0C000F90001F043F4B6579314A
:103490002070726573730D0A00545820696E697448
:1034A000204F4B0D0A00545820696E697420455214
:1034B000524F520D0A000D0A5458204552524F5295
:1034C0002C20636F756E743D25750D0A0025303212
:1034D000582000525820696E6974204F4B0D0A0025
:1034E000525820696E6974204552524F520D0A009D
:1034F000504131352068696768740D0A004368657A
:10350000636B20616E6420436F6E6669672052585A
:10351000204150504C59204F4B0D0A0055534152F9
:10352000542052462054582F5258204150504C5944
:10353000204F4B0D0A00436865636B20616E642069
:10354000436F6E666967205458204150504C592093
:103550004F4B0D0A005246205458204150504C59B0
:10356000204552524F520D0A005553415254205299
:103570004620747820616E64207278204150504C4F
:1035800059204552524F520D0A00436865636B2023
:10359000616E6420436F6E666967204552524F52D8
:1035A0000D0A0000C83500080000002008000000D7
:1035B000022B0008D035000808000020401400004D
:1035C000122B0008000000000000000000A24A04C6
:04000005080000CD22
:00000001FF
