:020000040800F2
:1000000098160020E1000008CD010008C901000891
:1000100000000000000000000000000000000000E0
:10002000000000000000000000000000D1010008F6
:100030000000000000000000CF010008D30100080C
:10004000F3000008F3000008F3000008F3000008C4
:10005000F3000008F3000008F3000008F3000008B4
:1000600000000000F300000851010008F300000840
:10007000F3000008F3000008F3000008000000008F
:10008000F3000008F300000800000000F30000087F
:10009000F3000008F3000008F3000008F300000874
:1000A000F3000008F3000008F300000881020008D4
:1000B000F300000800000000000000000000000045
:1000C000F300000800000000F30000080348854624
:1000D00000F026F800480047450800089816002060
:1000E0000448804704480047FEE7FEE7FEE7FEE7D6
:1000F000FEE7FEE7D5010008CD00000803460B43EC
:100100009B0703D009E008C9121F08C0042AFAD2CD
:1001100003E00B780370401C491C521EF9D2704753
:100120001CB5094800900948019005460126009C2D
:1001300005E0E36807CC33430C3C98471034AC42ED
:10014000F7D3FFF7C7FF0000400C0008500C000871
:1001500080B582B00120022100F036FA012807D1D3
:10016000FFE70120022100F01DFA00F0C9FCFFE7C3
:100170000120082100F028FA01281BD1FFE7012007
:100180000090082100F00EFA009800F01BF97F485B
:100190000021019100F01AFC019807490988074ADB
:1001A0001180074908800749087085490868401C84
:1001B0000860FFE702B080BD92120020901200207C
:1001C0008E1000208C100020FFE7FEE7704770477C
:1001D0007047704780B582B02049086801221043FB
:1001E0000860FFE71D4800688007002801D4FFE78A
:1001F000F8E71B4908681B4A1040086008681A4A5B
:100200001040086015490868184A104008601849ED
:1002100008680F22904308601649086840F20312EC
:100220009043086008680122009213049843086014
:100230000868D307984308600F490868904308602E
:100240000E4900200190086000F0BCFB0098019965
:10025000C00600F005FB02B080BDC04600100240A1
:10026000041002400C00FF08FFFFC277FFFFF2FE00
:100270002C1002403010024034100240081002409E
:1002800080B586B004A9002008704048404900F0BD
:10029000ACFB012808D1FFE73C483E4900F0C4FB15
:1002A00004A901200870FFE738483B4900F09DFB96
:1002B000012808D1FFE73548384900F0B5FB04A90B
:1002C00001200870FFE73148354900F08EFB012816
:1002D00008D1FFE72D48334900F0A6FB04A901200F
:1002E0000870FFE704A8007838B1FFE734490868D0
:1002F000401C086000F0EAFB46E024482A4900F070
:10030000B3FB012840D1FFE70220029000F05AF829
:10031000029800F0F5F901468020401A05A90391E2
:1003200008801A48204900F07FFB0398008848B1F4
:10033000FFE705A800887F2804D8FFE71B4800785E
:1003400058B1FFE705A80088802805D3FFE71B49BF
:100350000868401C0860FFE713E005A801900288C8
:10036000134800901349FFF7C9FE009901980288CD
:10037000002088540598104908800C490120087015
:10038000FFE700F0A3FBFFE706B080BD00380140A7
:100390000307000000020307020700000002020733
:1003A00001070000000201070400040700100020FC
:1003B00000000020081000200210002088100020FB
:1003C0000410002081B001466846017000781421B5
:1003D0004143AD4A885801239843885001B0704783
:1003E00081B0014668460170007814214143A64A55
:1003F000885801231843885001B07047B0B581B0C8
:100400000146684601700178142213464B439E4C06
:1004100019590125A9431951017813464B4300216D
:100420001951047813466343BB4C195104781346A1
:100430006343534C195103785A439C4BD150007875
:1004400080000F2282405F4908681043086001B0B5
:10045000B0BDC04682B0024601A802700091009A69
:10046000007880008240574908681043086002B055
:100470007047C046B0B584B0024603A80090027031
:1004800002910078FFF79EFF009B029800681C789D
:1004900014210A4662433A4C1051029880681C7835
:1004A0000A466243814C10510298008A1C780A4621
:1004B0006243994C10511A7808465043724A80584A
:1004C0000190019843F60074A0430190029844689B
:1004D000C5682C434069044301982043019001986A
:1004E0001B78594388500298007E01280AD1FFE703
:1004F00003A8007814214143634A885840231843D5
:10050000885009E003A80078142141435E4A8858C6
:10051000402398438850FFE70298407E01280AD183
:10052000FFE703A8007814214143574A88588023E5
:100530001843885009E003A8007814214143524A27
:100540008858802398438850FFE70298807E50B9EE
:10055000FFE703A80078142141434B4A8858102331
:100560009843885009E003A8007814214143464A83
:100570008858102318438850FFE704B0B0BDC04628
:100580001000024082B0024601A802700091009B58
:100590000078142141433C4A88581843885002B0DF
:1005A0007047C04682B0024601A802700091009ACE
:1005B000007880008240034908681043086002B058
:1005C0007047C0460400024086B004AA1070039130
:1005D00000200290019003980090022808D0FFE7C5
:1005E0000098042816D0FFE70098082824D035E0AA
:1005F00024480168039A04A803789B009A4011409C
:1006000001910178142048431F49405802210840B5
:10061000029024E01B480168039A04A803789B0019
:100620009A401140019101781420484316494058DE
:1006300004210840029012E012480168039A04A8BD
:1006400003789B009A40114001910178142048439F
:100650000D49405808210840029000E0FFE701984A
:1006600038B1FFE7029820B1FFE705A90120087023
:1006700003E005A900200870FFE705A8007806B090
:100680007047C046000002400800024083B000915D
:100690000246009802A90A70019001980A78142174
:1006A0005143024A885003B07047C04614000240CC
:1006B00081B000900099002008600099486000997E
:1006C0000876009988600099C8600099487600997A
:1006D0000861009988760099486101B07047000070
:1006E00083B000910246009802A90A70019001A807
:1006F00000880A7814215143074A885003B0704794
:1007000081B00146684601700178142048430249CF
:10071000405801B07047C0460C00024082B00190C2
:10072000009100980199886202B0704787B00690E6
:100730000591049203930698006801900698C0689A
:10074000009002A900200880FFE702A800880F2877
:100750002BD8FFE702A801880398C840C007F0B172
:10076000FFE702A801884900032213468B40019944
:1007700099430191059B018849008B4001991943D8
:100780000191018849008A400099914300910499A0
:10079000008840008140009808430090FFE7FFE791
:1007A0000298401C02A90880CFE7019806990860CA
:1007B00000980699C86007B0704710B586B00590DC
:1007C00004A80170039202930078012806D1FFE784
:1007D000029A059948681043486005E0029A059915
:1007E000486890434860FFE705988068009001A939
:1007F00000200880FFE701A800880F281DD8FFE728
:1008000001A801880298C840C00780B1FFE701A88D
:100810000188490003228A4000999143009103997D
:10082000008840008140009808430090FFE7FFE700
:100830000198401C01A90880DDE7009805998860AF
:1008400006B010BD80B582B00020019000F018F80D
:10085000FFE71A4840F20021FFF760FFF9E7C046C2
:1008600082B00190009101980099034A1140084319
:100870000249086002B0704780FFFF1F08ED00E0EA
:1008800080B584B00C4800F01BF80C4802900121A0
:100890000022019240F200230393FFF747FF0199E2
:1008A0000298039B0322FFF788FF02980399FFF742
:1008B00035FF04B080BDC0461205000000040048AA
:1008C00081B001466846018000881F220146114020
:1008D00001238B408109374A88581843885001B05A
:1008E0007047C04684B000200390029031490868E8
:1008F0000122120410430860FFE70398401C039094
:100900002C4800680121490408400290FFE7029941
:100910000020019041B9FFE7039840F60001401A1A
:10092000411E88410190FFE70198C0070028E4D1EB
:10093000FFE7204800688003002802D4FFE7FFE7B4
:10094000FEE71D4908680222104305229043086013
:100950001A4900910868086008680860086808601B
:100960000868174A1040086008681D2212041043E6
:100970000860104908680122120610430860FFE76A
:100980000C4800688001002801D4FFE7F8E70B4914
:100990000868032290430860086802221043086038
:1009A000FFE7064800680007002801D4FFE7F8E7E2
:1009B00004B07047001002400020024004100240C2
:1009C000FFFFC27780B5FFF78DFF80BD82B0019039
:1009D000009101998868802290438860009A01996B
:1009E00088681043886002B0704784B00091014667
:1009F0000098029101A9088002980A8892098058FB
:100A000009881F221140C840C00720B1FFE703A991
:100A10000120087003E003A900200870FFE703A885
:100A2000007804B07047000082B0019000910098F7
:100A30000C49884208D1FFE70199D022885848F232
:100A40000003984388500BE000981F2109040840D8
:100A5000000C012282400199086A10430862FFE7F6
:100A600002B0704709340F3410B585B0039002917D
:100A7000002001900090039802A909888909405834
:100A8000029C1F231C4001210A46A24010400190F5
:100A90000398029A920D8058029A1B041A40120C75
:100AA000914008400090009838B1FFE7019820B1CC
:100AB000FFE704A90120087003E004A900200870E2
:100AC000FFE704A8007805B010BD000080B582B033
:100AD00002200190FFF776FC01980849FFF7D6FD48
:100AE00001988021FFF7FCFD01980121FFF7B2FC7E
:100AF0000198FFF775FC02B080BDC04608100020C9
:100B000080B50120FFF75EFC414802883E4801881D
:100B1000891801800088400A20B1FFE73A49002087
:100B20000880FFE73A49002008803649087000F045
:100B300001F880BD80B58AB03248007808B1FFE77F
:100B40005DE03148008831490988884205D1FFE7D6
:100B500032480021FFF73AFF51E02C4800882A492B
:100B60000988884208DDFFE7284800882649098867
:100B7000401A02A9088007E02348018840F20020BB
:100B8000401A02A90880FFE71E4901200190087061
:100B900002991F4A1180FFF715FC0198FFF72EFC00
:100BA00003A80090FFF784FD00990198194A039269
:100BB000154A1388184AD218059200220492069208
:100BC00002AB1B8807930A764876887641F20002CA
:100BD0000892FFF74FFC01990846FFF73BFC01988C
:100BE0000221FFF7CFFC01980821FFF7CBFC0B484F
:100BF0008021FFF7EBFE0198FFF7F2FBFFE70AB059
:100C000080BDC0468C10002090120020921200205F
:100C10008E1000202838014090100020003801403C
:100C200002E008C8121F08C1002AFAD170477047B5
:100C3000002001E001C1121F002AFBD17047000013
:100C4000500C00080000002098160000300C00082E
:04000005080000CD22
:00000001FF
