:020000040000FA
:1000000038020020D9000000F30000006106000063
:1000100000000000000000000000000000000000E0
:10002000000000000000000000000000F7000000D9
:100030000000000000000000F90000006708000058
:10004000C5060000CD060000D5060000DD06000054
:100050005F050000650A0000850A00008D0A0000A7
:100060009106000099060000D3070000DB0700009E
:1000700071060000790600004D0A0000550A0000D4
:100080005D0A0000890600006D0A0000750A000084
:100090007D0A0000B5060000A50A000085070000E3
:1000A00097010000BD060000950A00009D0A0000AF
:1000B000A10600008106000067050000C9010000DC
:1000C0000448854600F04EF80048004789010000CA
:1000D000C046C0463802002009480A4A002100A153
:1000E000814200D902440848026008488047084815
:1000F0000047FEE7FEE7FEE7FEE7FEE7FEE700005B
:10010000000000200000000008ED00E00D0A0000E3
:10011000C100000030B50B4601460020202201241A
:1001200009E00D46D5409D4205D31D469540491B2B
:100130002546954040191546521E002DF1DC30BD74
:1001400003460B439B0703D009E008C9121F08C0F0
:10015000042AFAD203E00B780370401C491C521E9B
:10016000F9D27047064C0125064E05E0E36807CC3E
:100170002B430C3C98471034B442F7D3FFF7A4FF4D
:10018000641000008410000010B500F03FFC00F087
:10019000C3FE002010BD10B5C046C04610BD1CB542
:1001A00001211C2000F01EFC0021684601708170B6
:1001B0000121C1700521C02000F0E2F96A46052145
:1001C000C02000F0F7F91CBD10B5C046C04610BDF8
:1001D00070B5054627480668102D0CD006DC022DA8
:1001E0000BD0042D0FD0082D11D10EE0202D06D0FC
:1001F000402D0CD105E0012409E0022407E004248D
:1002000005E0062403E0032401E0052400BF00BF4D
:100210002946602000F09BF924E0642000F044FEB1
:1002200000F01FF9A04201D1012070BD402D0BD17B
:10023000642000F039FE6A2000F078F908210840B7
:10024000002801D00120F0E7082D0BD1642000F038
:100250002BFE6D2000F06AF9C007C00F002801D006
:100260000120E2E703480068801B0A28D5D300205C
:10027000DBE7000004000020FEB50020019000260E
:100280000024662000F052F90090202100980840D8
:10029000400900906D2000F049F905466A2000F001
:1002A00045F907460098002803D0E843C5B2F84353
:1002B000C7B280202840002801D0202006434020DB
:1002C0002840002801D00120064320202840002893
:1002D00001D00120064310202840002802D0102021
:1002E0000643044308202840002802D00820064383
:1002F000044304202840002802D00420064304437D
:1003000002202840002802D0022006430443E807C8
:10031000C00F002802D001200643044320203840AB
:10032000002805D002210198084301908020044351
:1003300010203840002805D0012101980843019081
:100340004020044308203840002805D004210198AB
:1003500008430190202004436A20019900F0F7F837
:1003600031466B2000F0F3F80098002801D0E043FC
:10037000C4B22046FEBD10B56E2000F0D7F804468A
:1003800002216C2000F0E3F8204610BD10B50446B1
:100390002146652000F0DBF810BD70B504460D461F
:1003A000E406E40E662000F0C1F840094001044371
:1003B0002146662000F0CBF8ED06ED0E672000F038
:1003C000B5F84009400105432946672000F0BFF811
:1003D00070BDF8B505460E461746002406E0315DAF
:1003E0006219D0B200F0B3F8601CC4B2BC42F6DBB4
:1003F0000120F8BD10B504462146682000F0A7F89A
:1004000010BD70B505460D2000F090F80446002D93
:1004100006D08020044340200443202004430BE006
:1004200080212046884304464021204688430446D4
:10043000202120468843044621460D2000F087F8FD
:1004400070BD10B5692000F071F8044664086400BE
:1004500004212046884304462146692000F077F8AD
:1004600010BD10B5612000F061F80007000F10BD4D
:1004700010B50820FFF7ACFE10BD10B51020FFF737
:10048000A7FE10BD10B50220FFF7A2FE10BD10B5EB
:1004900000F057F8142000F0DBFCFFF7F3FF6120B9
:1004A00000F044F8044610200443202120468843ED
:1004B00004462146612000F04AF8622000F036F838
:1004C0000446202004432146622000F040F800202A
:1004D000FFF797FFFFF7D0FE10BD10B500F068FDE5
:1004E00000F070FD00F078FD00F01AFB10BD70B553
:1004F000482000F01BF80546AA21482000F027F804
:10050000482000F013F804462946482000F01FF860
:10051000AA2C01D1012070BD0020FCE770B5044673
:100520000D462946204600F07FFB70BD38B50446D5
:10053000FF2100916946204600F026FB68460078BE
:1005400038BD10B5FF217F2000F001F810BD70B557
:1005500004460D462946204600F012FC70BD10B539
:10056000C046C04610BD10B5C046C046C046C046D5
:1005700010BD02461068C840C007C00F7047000099
:1005800070B504460D46044960180122294600F062
:100590005BF9002070BD0000140D024070B50446E8
:1005A0000D46034960182946FFF7E3FF70BD0000C0
:1005B000040D024070B504460E4615461E496018EB
:1005C0000022314600F040F900201C496118B200B9
:1005D00088502A7818490C396018314600F034F9EF
:1005E0006A78154910316018314600F02DF9AA7863
:1005F000114914316018314600F026F9EA780E49A5
:1006000018316018314600F01FF92A790A49203163
:100610006018314600F018F9094880680121C903C3
:1006200088436979C9030122D20311400843044970
:100630008860002070BD00000C0D0240000C0240DC
:10064000000F024070B504460D4616460349601877
:100650003246294600F0F8F8002070BD080D02402F
:1006600008B50020009000BF00980028FCD008BD0D
:1006700010B5C046C04610BD10B5C046C04610BD3E
:1006800010B5C046C04610BD10B5C046C04610BD2E
:1006900010B5C046C04610BD10B5C046C04610BD1E
:1006A00010B5C046C04610BD10B500F09AF8FFF76F
:1006B00076FD10BD10B5C046C04610BD10B5C04691
:1006C000C04610BD10B5C046C04610BD10B5C046EE
:1006D000C04610BD10B5C046C04610BD10B5C046DE
:1006E000C04610BD10B52520FFF750FE07210A2097
:1006F000FFF753FE2120FFF77DFE0020FFF781FE6C
:10070000FFF7BBFE10BD000010B5FFF7E6FEFFF7D8
:10071000BEFE0C2215490020FFF75BFE0C22144997
:100720001046FFF756FE082212491820FFF751FE27
:10073000182211492020FFF74CFE1D220F493820B6
:10074000FFF747FE0B220E495520FFF742FE092016
:10075000FFF7ECFEC408E400022020430146092014
:10076000FFF7F5FEFFF7BEFF10BD0000041000000C
:10077000101000001C100000241000003C100000AD
:100780005910000010B5C046C04610BD70B50446F3
:100790000D4607214020FFF701FF002817D0FFF783
:1007A00071FE01212046FFF7B9FE2178601CFFF79A
:1007B000B5FEFFF762FEFFF765FEFFF742FEFFF7AB
:1007C0005BFDFFF7D8FDFFF753FE012070BD002051
:1007D000FCE710B5C046C04610BD10B5C046C046C7
:1007E00010BD1CB501211C2000F0FCF80621684654
:1007F00000F01DFB0021684601706A46032140207D
:10080000FFF7D8FE6A460221C020FFF7D3FE6A46F2
:1008100004210020FFF7CEFE6A4604214020FFF7A6
:10082000C9FE0121684601706A4605214020FFF794
:10083000C1FE6A4606214020FFF7BCFE6A4607213A
:100840004020FFF7B7FE1CBD10B5012A05D1036893
:1008500001248C402343036004E0036801248C409E
:10086000A343036010BD10B5C046C04610BD0000D4
:1008700030B589B000241422564904A8FFF760FC63
:1008800054481430006803900020009001900290BA
:1008900051480188684601814F4841886846C180B7
:1008A0004D488188684681804B48C18868464180B0
:1008B00049482030018868460180484800680006A1
:1008C000450F2B0000F000F905042E303E41780062
:1008D0004248C0684005400D69460989884201D1F7
:1008E000089C1EE03D48C0684005400D6946C98827
:1008F000884201D1079C14E03848C0684005400D8B
:1009000069468988884201D1069C0AE03348C0685C
:100910004005400D69464988884201D1059C00E0A8
:10092000049C4BE02E4C49E0684600882B494969FD
:100930008905890D884202D16846C48901E068466C
:1009400084893BE00124E40338E02448C06B80073D
:10095000800F032829D1684600892049C9684905C4
:10096000490D884201D1089C20E06846C0881B4997
:10097000C9684905490D884201D1079C16E06846BF
:1009800080881649C9684905490D884201D1069CED
:100990000CE0684640881149C9684905490D8842FC
:1009A00001D1059C02E0049C00E00D4C0B48C06B9B
:1009B000C005000F444301E0002400BF00BF07480A
:1009C00000684005410F2046C8400446204609B053
:1009D00030BD0000EC0F0000000C100000200040B3
:1009E0000048E80170B504460D462A4621460248F3
:1009F000FFF72AFF002070BD2020004010B5FFF750
:100A000037FF0149086010BD0000002010B50D49F6
:100A100049888805800D0C494969890A8902014382
:100A2000094A51610749203909894805400D114695
:100A3000C968C90AC9020143D160FFF7DFFF00F0AE
:100A400035F810BD200C10000020004010B5C04645
:100A5000C04610BD10B5C046C04610BD10B5C0465A
:100A6000C04610BD10B5C046C04610BD10B5C0464A
:100A7000C04610BD10B5C046C04610BD10B5C0463A
:100A8000C04610BD10B5C046C04610BD10B5C0462A
:100A9000C04610BD10B5C046C04610BD10B5C0461A
:100AA000C04610BD10B5C046C04610BD0549086A15
:100AB000096A0122120791438918024A11621146FC
:100AC000086270470020004030B47446641E2578E8
:100AD000641CAB4204D3635D5B00E31830BC184771
:100AE0001D46F8E702E008C8121F08C1002AFAD123
:100AF00070477047002001E001C1121F002AFBD19E
:100B00007047072000BF0146401E0029FBD17047F7
:100B1000082000BF0146421E90B20029FAD170475A
:100B200010B501220221C020FFF78CFD00F075F9FD
:100B300001220221C020FFF785FD00220321402071
:100B4000FFF780FD00F016FA002203214020FFF796
:100B500079FD012204214020FFF774FD00F01EFA08
:100B6000012204214020FFF76DFD01220421002015
:100B7000FFF768FD00F0C6F9012204210020FFF70D
:100B800061FDFFF7BEFF10BD70B504460D460122A2
:100B900004214020FFF756FD00F000FA0022032157
:100BA0004020FFF74FFD00F0E5F90022032140202F
:100BB000FFF748FD012204210020FFF743FD00F06C
:100BC000A1F9012204210020FFF73CFD00220221AF
:100BD000C020FFF737FDFFF794FFFFF792FF80215A
:100BE0002143084600F0A4F800F0CEF900F07BF8AD
:100BF0002870002203214020FFF724FDFFF781FF2A
:100C0000FFF77FFF01220221C020FFF71BFD012219
:100C100004214020FFF716FD00F0B6F9012204215F
:100C20000020FFF70FFD70BD70B505460E4601228E
:100C300004210020FFF706FD00F064F901220421E1
:100C40000020FFF7FFFC01220221C020FFF7FAFC81
:100C500000F0E3F801220221C020FFF7F3FC00229C
:100C600003214020FFF7EEFC00F084F9002203216D
:100C70004020FFF7E7FC00F087F9002429E000227C
:100C800004211046FFF7DEFCFFF73BFFFFF739FFBB
:100C900000F029F82855002203214020FFF7D2FC5C
:100CA000FFF736FFFFF734FFFFF732FF0122042181
:100CB0000020FFF7C7FCFFF72BFFFFF729FFFFF727
:100CC00027FFFFF725FFFFF723FFFFF721FF601C3A
:100CD00084B2B442D3DB00F057F901220421002092
:100CE000FFF7B0FC70BD70B5FF2400251CE00022AA
:100CF00003214020FFF7A6FCFFF703FF6006040E68
:100D0000012203214020FFF79DFC04214020FFF732
:100D100045FC002802D00120044301E0640864007F
:100D2000FFF7EFFE681CC5B2082DE0DB204670BD62
:100D300070B50446002520E0002203214020FFF783
:100D400081FC80202040002805D001220421402081
:100D5000FFF778FC04E0002204214020FFF772FC3A
:100D6000FFF7CFFE6006040E012203214020FFF7AB
:100D700069FCFFF7C6FE681CC5B2082DDCDB70BD40
:100D800070B504460D46012204214020FFF75AFCAD
:100D900000F004F9002203214020FFF753FC00F08B
:100DA000E9F8002203214020FFF74CFC0122042136
:100DB0000020FFF747FC00F0A5F8012204210020E5
:100DC000FFF740FC00220221C020FFF73BFCFFF7A9
:100DD00098FEFFF796FE6006400EFFF7A9FF284633
:100DE000FFF7A6FF002203214020FFF72BFCFFF7AF
:100DF00088FEFFF786FE01220221C020FFF722FCB9
:100E0000012204214020FFF71DFC00F0BDF8012263
:100E100004210020FFF716FC70BD1CB500206946B8
:100E200008706A460221C020FFF7C4FB1CBD10B544
:100E30000A460146002900D110BD02E000230B70D4
:100E4000491C1346521E002BF8D100BFF4E70000E6
:100E500070B5054611481249486100208861052097
:100E6000086110E000200E4988617D21C9000D480D
:100E70000068FFF74FF9012109060C1A00BF084866
:100E80008069A042FBD828466D1E0028EAD104489C
:100E90000069400840000249086170BDFFFFFF0083
:100EA00000E000E00000002070B50546114812493E
:100EB000486100208861052008610FE000200E498C
:100EC00088610E490E480068FFF724F901210906E0
:100ED0000C1A00BF08488069A042FBD828466D1E46
:100EE0000028EBD10448006940084000024908612D
:100EF00070BD0000FFFFFF0000E000E040420F0077
:100F0000000000201CB50020694608706A460421D4
:100F1000FFF750FB1CBD00000024FFF7C5FBFFF7E7
:100F2000F3FBFFF7E4FA002801D100BFFEE7072139
:100F30000A20FFF732FAFFF7A5FAFFF782FAFFF768
:100F40009BF9FFF718FAFFF793FA10E00B21084816
:100F5000FFF71CFC00280AD0002C01D1012000E082
:100F600000200446E2B20521C020FFF76BFBEDE74D
:100F7000080000201CB50020694608706A4603215D
:100F80004020FFF717FB1CBD1CB501206946087007
:100F90006A4604214020FFF70DFB1CBD1CB5002054
:100FA000694608706A4604214020FFF703FB1CBD18
:100FB0001CB50120694608706A4605214020FFF7EC
:100FC000F9FA1CBD1CB50120694608706A46062165
:100FD0004020FFF7EFFA1CBD1CB5012069460870E0
:100FE0006A4607214020FFF7E5FA1CBD00093D00D5
:100FF00000127A000024F4004086510100366E0190
:10100000008000960266EC1CF0801408910202D069
:10101000AEE0700000F410E24220008142B38A1A70
:10102000429DD81932181099E19B190A9F39292934
:10103000C0512A530000B40000010000120800AAA9
:1010400002000000000000D42D011F00000000007D
:1010500000000060FF01001F10509A0C0042B00019
:1010600001013F7F84100000000000200800000004
:10107000E40A00008C10000008000020300200008C
:0C108000F40A000000093D000000000020
:04000005000000C136
:00000001FF
