:020000040800F2
:1000000000170020E1000008650900080509000844
:1000100000000000000000000000000000000000E0
:100020000000000000000000000000006909000856
:100030000000000000000000670900086B090008CC
:10004000F3000008F3000008F3000008F3000008C4
:10005000F3000008F3000008F3000008F3000008B4
:1000600000000000F3000008F30000088D080008FD
:10007000F3000008F3000008F3000008000000008F
:10008000F3000008F300000800000000F30000087F
:10009000F3000008F3000008F3000008F300000874
:1000A000F3000008F3000008F3000008F300000864
:1000B000190A000800000000000000000000000015
:1000C000F300000800000000F30000080348854624
:1000D00000F012FB004800476D25000800170020C3
:1000E0000448804704480047FEE7FEE7FEE7FEE7D6
:1000F000FEE7FEE76D090008CD00000803460B434C
:100100009B0703D009E008C9121F08C0042AFAD2CD
:1001100003E00B780370401C491C521EF9D2704753
:10012000D2B201E00270401C491EFBD2704700228F
:10013000F6E710B513460A4604461946FFF7F0FFE6
:10014000204610BD30B504460020034600E05B1C8D
:10015000934203D2E05CCD5C401BF8D030BD024638
:1001600070B54A40D30FDB0740002DD04A002AD09B
:10017000010E140E000212020919400A520A8418D4
:10018000E50104465443000A120A2E045043A41900
:100190004219200CC543AA18120C0125AD03521CAC
:1001A000521912047F39240400D0521C104301D488
:1001B0004000491EC2B20C06C0092018401C40086D
:1001C000802A02D003E0002070BD400840000029D2
:1001D00000DA0020184370BD70B502464A40D50FC2
:1001E00040004A00ED0740085208002814D0002AB9
:1001F00012D0C40DD30D41020120C0055202490A9C
:10020000520AE41A091812187D34914201D3641C71
:1002100000E04900002C01DA002070BD002391426B
:1002200001D3891A0343400849000028F7D1002967
:100230000AD0914202D10121C90705E0914201D2C1
:10024000012101E00121C943E005C018401900F077
:100250004CF870BD10B500229623114600F04DF801
:1002600010BD410040020122400AD205090E80184B
:100270007F2901DA00207047962903DC9622511A63
:10028000C8407047963988407047F0B51FB406469D
:10029000002082B005464024019100901BE00199A6
:1002A00022460F46304600F06EFA049A059B801AEB
:1002B000994110D310461946224600F054FA361AD6
:1002C0008F410197224601200021009F00F04BFA48
:1002D00038184D4100902046641E0028DFDC019B49
:1002E00000982946324607B0F0BD002904DA401CC8
:1002F000490001D140084000704770B40024050C4B
:1003000005D11024000402D1002921D01124050EAA
:1003100001D100020834050F01D10001241D850F11
:1003200001D18000A41C002801DB4000641C0029CE
:1003300008D020252E1B0D46F540A14000D00121FC
:100340002943084301061B1B000ADB1D02D50020C0
:1003500070BC7047DB05181880180029F8DA401CBB
:100360004900F5D170BC400840007047F0B5074621
:100370000846584087B0C00F049048000E46590008
:1003800040084908BC1A884105D2384631461E4605
:1003900017460B4602465800400810434CD0300D1B
:1003A000039040055900400D490D0590401A0290F8
:1003B000402872DA18030121000B09050843019057
:1003C00004980092002805D00199524200208841EB
:1003D00000920190029840210A1A0199009800F0B9
:1003E000C2F905460C466B4607CB00F0DDF9C01993
:1003F0007141039A0E0D0023D71756401A467A40D2
:10040000164344D0049A002A2DD0029A012A039A56
:1004100015DC1205C01A914101263605001C7141F8
:10042000D20F059ED2070093019202962A462346D8
:1004300000F0DAF907B0F0BD38463146FAE71605A4
:10044000224A0F46B218C01AB74101210905001C03
:100450004F4100187F41114618187941E20F1043AF
:100460006D19644113E0E2076D0815436408C20783
:100470001443039A01261205C01A91413605001C47
:100480007141CE07400830434908C01851412A46FF
:10049000234600F09CF9CDE7FFE7049801224000D5
:1004A000C117121A00238B4104983146C417381A19
:1004B000A141EEE730B40124E407634030BC55E7C6
:1004C00030B40124E407614030BC4FE70000E0FF96
:1004D000F0B51FB488B00B990998002448400999D9
:1004E000C00F490049080991C0070B9900904900C5
:1004F00049080B9109990898A64608431CD00B9906
:100500000A98084318D0099801244000420D480079
:10051000410D099824050003000B204309900B9816
:100520000003000B20430B9050181C494018002278
:1005300001901446104605E0002001460DB0F0BDC4
:10054000032801DA034600E003239C46C11A0AAEE1
:100550000AE05F0008ADED5B4F00F75B7D430027CD
:10056000AA187C41491C5B1E6145F2DD410004ABC9
:100570005A522104120C0A43240C401C0828DFDBC9
:10058000019802900099704601910090059B049A91
:100590000799069800F028F9D0E700000DFCFFFF4E
:1005A000F0B50C465C4085B0E40FE40703944C00C2
:1005B00000266408590094464908024602962243E0
:1005C00021D062460A431ED06200570D4A000E0336
:1005D0002303550D012402462C492405781B1B0BCF
:1005E000360B401823432643614600901C46501AA0
:1005F000B44103D30098401C009002E09218009888
:100600005B41002803DA0020014605B0F0BD002060
:10061000012109050746864611E064461D46141B64
:10062000B54106D36546521BB341744607430C439C
:10063000A646CD0740084908284392185B41054665
:100640000D43EAD11046184313D060461946504076
:100650007140084306D06046101AB34106D2012209
:10066000002306E000220123DB0702E00122D2433F
:100670005310009874460105381C6141029C039D8B
:100680000019694100F0A3F8BFE70000FD03000076
:100690004A0009030123090B1B0519430A4B10B536
:1006A000520D9A4202DA0020014610BD064B343347
:1006B0009A4203DC9A1A00F066F810BD034BD21878
:1006C00000F051F810BD0000FF030000CDFBFFFF5C
:1006D00010B5002904DB0124E40740428C41214687
:1006E000002B04DB1C460123DB075242A341994245
:1006F00000D1904210BD00001CB509480090094887
:10070000019005460126009C05E0E36807CC3343D1
:100710000C3C98471034AC42F7D3FFF7DBFC0000E9
:100720006C4D00088C4D000870B50446002903D0BC
:1007300000202022012310E0002801D00020C04327
:10074000C046C0460DE02546D5408D4205D30D4636
:100750009540641B1D46954040191546521E002DBC
:10076000F1DC214670BD10B5202A04DB0146203A99
:100770009140002010BD914020239C1A0346E34085
:100780001943904010BD10B5202A04DB0846203ADA
:10079000D040002110BD0B46D340D0402024A21AE7
:1007A00091400843194610BD10B5202A06DBCB172F
:1007B0000846203A1041C1170B4306E00B4613418F
:1007C000D0402024A21A91400843194610BD10B50C
:1007D000002B08DA0024401C614192185B411A4347
:1007E00001D14008400010BDF0B51FB482B00546ED
:1007F0000C0003D0084603F0D1FC02E003F0CEFC6D
:1008000020300246009021462846FFF7ACFF049BAB
:10081000059A04460F4618431143084314D018465E
:1008200010431BD0009840210A1A18460599FFF77B
:10083000AAFF05460E46009A05990498FFF793FF14
:10084000084305D0012004E02046394607B0F0BD3A
:100850000020C11705430E432C43374300990E98DF
:100860006305401A7905E40A00220C43FD0A0A30A8
:1008700002D500200146E9E70105101969410C9CE9
:100880000D9D00196941FFF7A2FFDFE780B582B037
:100890000320022101F0AEFA012807D1FFE703206F
:1008A000022101F095FA03F0C1FBFFE703200821C4
:1008B00001F0A0FA01281BD1FFE7032000900821D6
:1008C00001F086FA009801F085F99648002101911F
:1008D00003F073F9019807490988074A118007490D
:1008E0000880074908709C490868401C0860FFE7B9
:1008F00002B080BDF2120020F0120020EA100020A9
:10090000E810002080B584B0134802F0B5F8134811
:10091000009001210022019240F20023029301F095
:100920004CFD00980199029B032201F08DFDFFE729
:100930000A4840F2002101F023FD00200390FFE768
:1009400003980749884205D8FFE7FFE70398401C52
:100950000390F5E7ECE7C0461205000000040048EC
:100960001FA10700704770477047704780B582B07D
:1009700020490868012210430860FFE71D4800680D
:100980008007002801D4FFE7F8E71B4908681B4AE5
:100990001040086008681A4A104008601549086845
:1009A000184A10400860184908680F2290430860F0
:1009B0001649086840F20312904308600868012253
:1009C00000921304984308600868D30798430860AE
:1009D0000F490868904308600E49002001900860A4
:1009E00003F022F800980199C00601F01DFE02B044
:1009F00080BDC04600100240041002400C00FF08F9
:100A0000FFFFC277FFFFF2FE2C10024030100240C1
:100A1000341002400810024080B586B004A90020BE
:100A200008704048404903F0E0F8012808D1FFE78A
:100A30003C483E4903F094F904A901200870FFE7FF
:100A400038483B4903F0D1F8012808D1FFE7354881
:100A5000384903F085F904A901200870FFE73148FF
:100A6000354903F0C2F8012808D1FFE72D48334982
:100A700003F076F904A901200870FFE704A80078C4
:100A800038B1FFE734490868401C086003F012FAE7
:100A900046E024482A4903F083F9012840D1FFE7C2
:100AA0000420029001F096F8029801F03FFA014606
:100AB0008020401A05A9039108801A48204903F0B4
:100AC0004FF90398008848B1FFE705A800887F2800
:100AD00004D8FFE71B48007858B1FFE705A8008855
:100AE000802805D3FFE71B490868401C0860FFE722
:100AF00013E005A801900288134800901349FFF7FE
:100B0000FDFA009901980288002088540598104940
:100B100008800C4901200870FFE703F0CBF9FFE7DC
:100B200006B080BD00440040030700000002030738
:100B3000020700000002020701070000000201078F
:100B40000400040730100020300000206410002052
:100B500032100020E41000206010002081B0014617
:100B60006846017000214056002811D4FFE700219B
:100B7000684641561F200A4602400120904049091C
:100B80008900044A8850BFF34F8FBFF36F8FFFE790
:100B900001B0704780E100E081B001466846017015
:100BA0000021405600280DD4FFE700216846415639
:100BB0001F200A4602400120904049098900024A4C
:100BC0008850FFE701B0704700E100E070B582B0E7
:100BD000024601A80270009100214056002816D458
:100BE000FFE7002401A908570322D3431840174AFE
:100BF000805809578C07E50EFF24AC40A043009CA9
:100C0000A401E4B2AC402043194088501AE001A985
:100C100008780F24204008380322D34318400A4A9A
:100C20008058002549578D07EE0EFF25B540A84393
:100C3000009DAD01EDB2B54028432140083919406F
:100C40008850FFE702B070BD1CED00E000E400E05A
:100C500080B502F003FFE120400202F0E5FF01F061
:100C600081FD014622480170007820B1FFE7054868
:100C700003F084FA03E0024803F080FAFFE780BD46
:100C8000B54B0008A84B000880B51648007840B165
:100C9000FFE7154803F072FA1448202101F012FD15
:100CA000FFE713480078D8B1FFE71048202101F092
:100CB00076FD01460F4801700F4A1168491C11600A
:100CC000007830B1FFE70C4801680D4803F056FA90
:100CD00005E009480168094803F050FAFFE7FFE71B
:100CE00080BDC046F4120020F04B00080800002030
:100CF000FC120020F5120020F8120020D94B000849
:100D0000C54B000880B584B0024602A8027001AA53
:100D100011700178602000F07FFC694600200870A7
:100D2000FFE768460078632825DCFFE7642000F0D1
:100D300093F800F0EFF801A90978884204D1FFE7A1
:100D400003A9012008701AE002A8007840280CD1FD
:100D5000FFE76A2000F042FA0007002804D5FFE709
:100D600003A9012008700AE0FFE7FFE70098401C94
:100D700069460870D5E703A900200870FFE703A8BB
:100D8000007804B080BD80B56A20072100F044FCE3
:100D90006B203F2100F040FC80BD80B56C2001211C
:100DA00000F03AFC80BD80B584B06520202102911E
:100DB00000F032FC6720019000F010FA0246019822
:100DC00003A90A700A78E0231A400A70039A0A23DA
:100DD0001A430A70097800F01FFC0299682000F09D
:100DE0001BFC04B080BD80B584B003AB18700291C9
:100DF00001A80270694600200870FFE76846007885
:100E000001A9097888420FDAFFE7039869460A7852
:100E100080180299895CC0B200F0FEFBFFE70098E1
:100E2000401C69460870E9E704B080BD80B5092020
:100E3000C006102101F09CFA80BD80B50920C006D3
:100E4000102101F08DFA80BD80B582B0019001982B
:100E500000F046FE02B080BD80B582B001900198DE
:100E600000F078FE02B080BD80B584B003A9019186
:100E700008700D2000F0B2F90146019802AA117025
:100E8000007870B1FFE702988021084302A908703A
:100E900002984022104308700298202210430870E4
:100EA0000DE002A908787F22104008700878BF2260
:100EB000104008700878DF2210400870FFE702A891
:100EC00001780D2000F0A8FB04B080BD80B582B091
:100ED0006920009000F082F90246009801A90A708A
:100EE000019A04231A430A70019A01231A430A70D3
:100EF000097800F091FB02B080BD000080B5B648D3
:100F0000012101F035FA80BD80B5B348012101F01F
:100F100027FA80BD80B5612000F060F90F210840FC
:100F200080BD80B510200121FFF7ECFE80BD80B5AB
:100F300002210846FFF7E6FE80BD80B5402006216D
:100F4000FFF7E0FE80BD80B584B002A900200870E4
:100F500003A90870FFE703A8007807281FD8FFE758
:100F600000F04DF901200190FFF776FF00F040F905
:100F70000198FFF771FF0298400002A9087000F085
:100F800070F930B1FFE702980121084302A9087007
:100F9000FFE7FFE70398401C03A90870DBE700F0B8
:100FA0002EF902A8007804B080BD80B584B003A9F2
:100FB000087002A900200870FFE702A8007807283F
:100FC00021D8FFE700F01BF903A8007800060028ED
:100FD00003D5FFE700F01AF902E000F027F9FFE778
:100FE00001200190FFF738FF00F002F90198FFF7A8
:100FF00033FF0398400003A90870FFE70298401CE4
:1010000002A90870D9E704B080BD000080B58AB09D
:1010100000F0B0F900F0A8F91420FFF715FF3249ED
:10102000002008900C220192FFF7DDFE019A2F4963
:101030001046FFF7D8FE2E49182002900822FFF72D
:10104000D2FE029A2B4920200490FFF7CCFE2A49B9
:1010500038201D22FFF7C7FE284955200B22FFF735
:10106000C2FE6120039000F0B9F80246039809A976
:1010700006910A70099A10231A430A700A78DF232E
:101080001A400A70097800F0C7FA6220059000F053
:10109000A5F8049B0699024605980A70099A1A4316
:1010A0000A70097800F0B8FA0920079000F096F865
:1010B0000699024607980A700A78F8231A400A70BF
:1010C000099A02231A430A70097800F0A5FA0898D1
:1010D000FFF7CAFEFFF767FEFFF755FEFFF721FF98
:1010E00001200AB080BDC046B14A0008DD4A0008B0
:1010F000D54A0008BD4A0008944A0008E94A000899
:1011000080B58CB03148029001F0B6FC30480190B7
:1011100001F0B2FC019801F0AFFC019801F0ACFCC9
:10112000029801F0A9FC2B4801F0A6FC0920C0069A
:1011300006900121049100220A921023039301F0EA
:101140003CF9039B06980A990322099201F07CF965
:10115000049B0A9A20480890194601F02EF9049B36
:101160000898099A0A9901F06FF906980A992022BD
:10117000059201F095F8059B06980A9A02210B91B9
:1011800001F01BF9059B0698099A0A9901F05CF990
:1011900006980A998022079201F082F80698079B28
:1011A0000A9A0B9901F009F90698079B099A0A997E
:1011B00001F04AF9089809990A9A0B9B01F0FDF889
:1011C000FFF734FEFFF79AFE0CB080BD1205000059
:1011D000110500000C0600000004004880B582B034
:1011E000014601A80170007800F04AF902B080BD04
:1011F00080B50920C006202101F0BAF880BD80B575
:101200000920C006202101F0ABF880BD80B509207F
:10121000C006802101F0ACF880BD80B50920C00671
:1012200000228023114601F0C8F880BD80B5092056
:10123000C006802101F094F880BD80B584B00920FB
:10124000C00601900121002202928023039301F045
:10125000B4F801980299039B032201F0F5F804B059
:1012600080BD80B50920C006802101F091F8411EA3
:10127000884180BD80B586B0049003A801700292B9
:10128000049848B1FFE703A8007828B1FFE703A856
:101290000078412804DBFFE705A90020087044E03E
:1012A000FFF745FEFFF76FFDFFF710FEFFF775FD37
:1012B000049803A9097800F09BF96E20FFF78EFFD0
:1012C000014601A8017000788007002809D4FFE7D3
:1012D000FFF727FE184802F051FF05A9002008700B
:1012E00023E0FFF72AFEFFE70298411E029198B122
:1012F000FFE76A20FFF772FF0007002808D5FFE725
:10130000FFF741FDFFF70DFE05A9012008700CE075
:101310000120FFF799FDE7E7FFF703FE054802F01C
:101320002DFF05A900200870FFE705A8007806B08A
:1013300080BDC046794B0008934B000880B582B051
:10134000014601A801700178632000F065F902B040
:1013500080BD80B582B0014601A80170017864208B
:1013600000F05AF902B080BD80B57F20FF2100F067
:1013700053F980BD80B58AB0FFF7C2FE7448029071
:1013800002F0D0F903A8019002F0CAFA019902987C
:1013900040F2041203924CF20002049240F20072F6
:1013A000059240F20022069200220792089218222B
:1013B000099202F01BFA029802F085F9FFF736FD58
:1013C000FFF79CFD0AB080BD80B586B00920C0063D
:1013D00002902021009100F0C3FF02988021059126
:1013E00000F0C6FF009B02980121019100220392A8
:1013F00000F0E3FF009B029803990322049201F09E
:1014000023F801990298039A059B00F0D6FF0298F1
:101410000399049A059B01F017F806B080BD80B5CA
:1014200086B00920C00602902021059100F098FFA7
:101430000298002103918022009200F031FF009B6E
:101440000298039A0221019100F0B7FF009B0298D5
:1014500003990322049200F0F7FF02980399059A7A
:1014600000F01EFF01990298039A059B00F0A5FF6A
:1014700002980399049A059B00F0E6FF06B080BD30
:1014800080B588B005A90870EFF310800690069823
:10149000039072B6FFE72E48802102F067F908B189
:1014A000FFE7F8E72A48019002F004F9FFF78CFF04
:1014B000FFF724FDFFF7C1FC01200090FFF7CCFCF3
:1014C000FFF7BBFEFFF79BFE05A8007880210843CD
:1014D000FFF76BFDFFF7A1FE0098FFF7BDFCFFF7DC
:1014E0008EFEFFF730FD0146009804AA02921170AB
:1014F000FFF7B2FCFFF79AFCFFF700FDFFF78FFF45
:10150000019802F0E0F8029803990791079981F396
:101510001088007808B080BD80B582B001A908703D
:10152000FFE70B48022102F021F908B9FFE7F8E7CD
:1015300001A80178064802F0CFF8FFE704488021AF
:1015400002F014F908B1FFE7F8E702B080BDC04629
:101550000030014080B584B0039002A80180FFF7FD
:1015600065FC01A900200880FFE701A8008802A906
:101570000988884219DAFFE7FFF7C6FC0120FFF768
:101580006BFC039801A90988405CFFF7C5FF0220A6
:10159000FFF762FCFFF7B2FC0420FFF75DFCFFE7FA
:1015A0000198401C01A90880DFE704B080BD80B528
:1015B00086B005AA0192107004A802900170FFF78E
:1015C0009DFCFFF73AFC01200390FFF745FC0198D2
:1015D00000787F210840FFF79FFF02980078FFF70F
:1015E0009BFF0398FFF738FCFFF720FC06B080BD97
:1015F00080B582B00190684601700078412804DB14
:10160000FFE7694640200870FFE7019869460978BE
:10161000FFF7A0FF02B080BD80B582B00A46014648
:1016200001A8017069460A7000780978FFF7BFFFCA
:1016300002B080BD80B584B0024602A8027001AA43
:1016400011700178602000F03CFA694600200870B3
:10165000FFE768460078632814DCFFE7642000F0A9
:1016600049F800F06FF801A90978884204D1FFE732
:1016700003A90120087009E0FFE70098401C6946B3
:101680000870E6E703A900200870FFE703A80078C8
:1016900004B080BD80B56A20072100F012FA6B20EB
:1016A0003F2100F00EFA80BD80B56C20022100F0D1
:1016B00008FA80BD80B5BE4842F2000100F058FE35
:1016C00080BDC04680B5BA4842F2000100F048FE35
:1016D00080BDC04680B5B64844F2000100F048FE27
:1016E00080BDC04680B5B24844F2000100F038FE2B
:1016F00080BDC04680B582B00190019800F02AFA02
:1017000002B080BD80B582B06920009000F089F8F9
:101710000246009801A90A700A78FE231A400A704E
:101720000A78FB231A400A70097800F0CAF902B05F
:1017300080BD000080B59E4841F2000100F018FE17
:1017400080BDC04680B5612000F06BF80F210840D5
:1017500080BD80B508200521FFF76CFF80BD80B5F6
:1017600002210846FFF766FF80BD80B582B069465A
:101770000020087001A90870FFE701A80078072879
:101780001CD8FFE7FFF79EFF00F0A4F8FFF792FFD9
:10179000009840006946087000F07CF830B1FFE71F
:1017A00000980121084369460870FFE700F092F8AD
:1017B000FFE70198401C01A90870DEE7FFF782FFF0
:1017C0006846007802B080BD80B582B001A908707B
:1017D000694600200870FFE76846007807281ED891
:1017E000FFE7FFF76FFF01A800780006002803D588
:1017F000FFE700F021F802E000F030F8FFE700F02A
:1018000069F8FFF757FF00F065F80198400001A95B
:101810000870FFE70098401C69460870DCE702B0DA
:1018200080BD80B582B0014601A80170007800F04B
:10183000C1F802B080BD000080B55D4848F20001EB
:1018400000F096FD80BDC04680B5594800210122B8
:1018500048F2000300F0B1FD80BDC04680B5544899
:1018600048F2000100F07CFD80BDC04680B584B028
:101870004F48019001210022029248F20003039395
:1018800000F09BFD01980299039B032200F0DCFD10
:1018900004B080BD80B5464848F2000100F078FDF4
:1018A000411E884180BDC04680B582B0014601A876
:1018B00001700178632000F004F902B080BD80B5AA
:1018C00082B0014601A801700178642000F0F9F8A7
:1018D00002B080BD81B014200090FFE70098411E47
:1018E000009108B1FFE7F9E701B0704780B586B015
:1018F0002F48029042F20001009100F031FD029861
:1019000048F20001059100F033FD009B029801218F
:1019100001910022039200F050FD009B0298039970
:101920000322049200F090FD01990298039A059B0E
:1019300000F043FD02980399049A059B00F084FD92
:1019400006B080BD80B586B01948029042F2000111
:10195000059100F005FD029848F20001009100F0A9
:1019600007FD009A02980021039100F099FC009B6A
:101970000298039A0221019100F01FFD009B02983A
:1019800003990322049200F05FFD02980399059ADF
:1019900000F086FC01990298039A059B00F00DFD6A
:1019A00002980399049A059B00F04EFD06B080BD95
:1019B0000004004880B588B005A90870EFF31080D6
:1019C00006900698039072B6FFE72C48802101F03C
:1019D000CDFE08B1FFE7F8E72848019001F06AFE64
:1019E000FFF784FFFFF7A6FEFFF77CFE01200090C3
:1019F000FFF780FEFFF73AFFFFF764FE05A80078C7
:101A000080210843FFF7E0FEFFF71EFFFFF7ADFE62
:101A10000146009804AA02921170FFF76BFEFFF7CF
:101A200059FEFFF787FEFFF78DFF019801F04BFE8F
:101A3000029803990791079981F31088007808B0FC
:101A400080BDC04680B582B001A90870FFE70B4891
:101A5000022101F08BFE08B9FFE7F8E701A8017841
:101A6000064801F039FEFFE70448802101F07EFEC0
:101A700008B1FFE7F8E702B080BDC046003800407B
:101A800080B586B005AA0192107004A8029001707A
:101A9000FFF750FEFFF726FE01200390FFF72AFE16
:101AA000019800787F210840FFF7CCFF029800786A
:101AB000FFF7C8FF0398FFF71DFEFFF70BFE06B008
:101AC00080BD80B582B00A46014601A80170694612
:101AD0000A7000780978FFF7D3FF02B080BD0000DC
:101AE00080B584B003900398FEF7B4FB18490968E9
:101AF000FEF735FBFEF7B5FB33490860334900209C
:101B00000860334901200860FFE73148006802900F
:101B1000FFE7002002A90978C907019041B1FFE75A
:101B200002A8807801210840414248410190FFE726
:101B30000198C0070028E8D1FFE72549086801227D
:101B40009043086021490020086004B080BDC04671
:101B50002800002080B584B003900398FEF77AFB3C
:101B600018490968FEF7FBFAFEF77BFB1649086087
:101B7000164900200860164901200860FFE7144854
:101B800000680290FFE7002002A90978C9070190C8
:101B900041B1FFE702A88078012108404142484155
:101BA0000190FFE70198C0070028E8D1FFE7084946
:101BB000086801229043086004490020086004B0CE
:101BC00080BDC0462C00002014E000E018E000E0DA
:101BD00010E000E081B001466846017000781421F1
:101BE0004143B44A885801239843885001B0704754
:101BF00081B0014668460170007814214143AD4A26
:101C0000885801231843885001B0704781B00146BD
:101C100068460170007814214143A64A8858202361
:101C20009843885001B07047B0B581B0014668460E
:101C300001700178142213464B439E4C195901251B
:101C4000A9431951017813464B43002119510478D7
:101C500013466343BB4C1951047813466343534CFA
:101C6000195103785A439C4BD150007880000F22C1
:101C700082405F4908681043086001B0B0BDC046AB
:101C800082B0024601A802700091009A007880009C
:101C90008240574908681043086002B07047C04648
:101CA000B0B584B0024603A800900270029100789B
:101CB000FFF790FF009B029800681C7814210A46E9
:101CC00062433A4C1051029880681C780A4662437D
:101CD000814C10510298008A1C780A466243994C44
:101CE00010511A7808465043724A80580190019862
:101CF00043F60074A043019002984468C5682C43E1
:101D00004069044301982043019001981B7859438E
:101D100088500298007E01280AD1FFE703A80078C6
:101D200014214143634A885840231843885009E0EE
:101D300003A80078142141435E4A88584023984301
:101D40008850FFE70298407E01280AD1FFE703A8E8
:101D5000007814214143574A8858802318438850FB
:101D600009E003A8007814214143524A885880238F
:101D700098438850FFE70298807E50B9FFE703A898
:101D80000078142141434B4A8858102398438850C7
:101D900009E003A8007814214143464A88581023DB
:101DA00018438850FFE704B0B0BDC04610000240A1
:101DB00082B0024601A802700091009B00781421B5
:101DC00041433C4A88581843885002B07047C04687
:101DD00082B0024601A802700091009A007880004B
:101DE0008240034908681043086002B07047C0464B
:101DF0000400024086B004AA1070039100200290F3
:101E0000019003980090022808D0FFE7009804286A
:101E100016D0FFE70098082824D035E02448016850
:101E2000039A04A803789B009A401140019101781D
:101E3000142048431F49405802210840029024E0E2
:101E40001B480168039A04A803789B009A4011403C
:101E50000191017814204843164940580421084054
:101E6000029012E012480168039A04A803789B00CC
:101E70009A40114001910178142048430D4940587F
:101E800008210840029000E0FFE7019838B1FFE721
:101E9000029820B1FFE705A90120087003E005A919
:101EA00000200870FFE705A8007806B07047C0461C
:101EB000000002400800024083B0009102460098F2
:101EC00002A90A70019001980A7814215143024A2C
:101ED000885003B07047C0461400024081B00090A3
:101EE00000990020086000994860009908760099E0
:101EF00088600099C8600099487600990861009947
:101F000088760099486101B07047000083B0009165
:101F10000246009802A90A70019001A800880A7878
:101F200014215143074A885003B0704781B00146DD
:101F3000684601700178142048430249405801B0B6
:101F40007047C0460C00024081B00090009847499D
:101F5000086001B07047C04663490868802210439A
:101F60000860704780B584B003900F20000400F033
:101F700027F8014602A801700078D0B9FFE75A4956
:101F800001910868022200921043086003980B4AEE
:101F9000106008684022104308600F20000400F021
:101FA0000FF8009A019902AB187008689043086016
:101FB000FFE702A8007804B080BDC04614200240AC
:101FC00080B584B0039002A901200870FFE700F0FB
:101FD00025F802A908700398401E0390FFE702A8A5
:101FE000017800200129019005D1FFE70398411EE7
:101FF00088410190FFE70198C0070028E7D1FFE77B
:1020000002A80078012804D1FFE702A90520087082
:10201000FFE702A8007804B080BD000081B06946E7
:102020000020087011480068C00720B1FFE769462A
:102030000120087015E00D480068C006002804D58E
:10204000FFE76946042008700AE008480068400776
:10205000002804D5FFE7694602200870FFE7FFE784
:10206000FFE76846007801B07047C0460C20024088
:102070001D4800680006002806D5FFE7034904480C
:10208000086004480860FFE77047C046042002402B
:1020900023016745AB89EFCD80B586B005900491EB
:1020A0000F200004FFF78CFF014603A801700078A1
:1020B000B0B9FFE70C490291086801220192104370
:1020C00008600498059908600F200004FFF778FF66
:1020D000019A029903AB1870086890430860FFE703
:1020E00003A8007806B080BD1020024080B582B001
:1020F0000190009101A8007801F04CFF019802B016
:1021000080BD000080B582B00920C00640F6000105
:1021100000F03EF928BBFFE70F20FFF7E1FC0920A4
:10212000C00640F6000100F033F9C8B9FFE75B488C
:1021300002F024F80920C00641F2000100F028F95D
:1021400038B9FFE750491120087201A90B20087027
:1021500094E04D491020087201A90A2008708DE012
:1021600083E00920C00640F2002100F011F928BBED
:10217000FFE70F20FFF7B4FC0920C00640F2002162
:1021800000F006F9C8B9FFE7434801F0F7FF09205E
:10219000C00640F2004100F0FBF838B9FFE73A49C9
:1021A0002120487201A91520087067E036492020D7
:1021B000487201A91420087060E055E0EA48202127
:1021C00000F0E6F838BBFFE70F20FFF789FCE64890
:1021D000202100F0DDF8E8B9FFE72C4801F0CEFF40
:1021E0002B4801F0CBFFE048402100F0D1F850B976
:1021F000FFE7284801F0C2FF23493120887201A976
:102200001F2008703AE020493020887201A91E2062
:10221000087033E027E0D448082100F0B9F808BB83
:10222000FFE70F20FFF75CFCCF48082100F0B0F873
:10223000B8B9FFE7134801F0A1FFCB48102100F027
:10224000A7F838B9FFE710494120C87201A9292031
:10225000087013E00C494020C87201A928200870BA
:102260000CE0FFE7FFE7FFE7FFE707490020C87240
:1022700088724872087201A90870FFE701A8007807
:1022800002B080BDB24C000808000020B74C000826
:102290009F4C0008A54C0008AB4C0008BE4C000841
:1022A00086B00590049103920598006A0190059804
:1022B000406A009002A900200880FFE702A8008879
:1022C00007281DD8FFE702A801880398C840C00767
:1022D00080B1FFE702A8018889000F228A40019996
:1022E000914301910499008880008140019808433E
:1022F0000190FFE7FFE70298401C02A90880DDE794
:1023000002A908200880FFE702A800880F281FD82C
:10231000FFE702A801880398C840C00790B1FFE713
:1023200002A80188890020390F228A400099914330
:10233000009104990088800020388140009808436B
:102340000090FFE7FFE70298401C02A90880DBE746
:1023500001980599086200980599486206B070478F
:1023600082B00190009100980199886202B0704794
:1023700082B00190009100980199886102B0704785
:1023800082B00190009100980199C86202B0704734
:1023900083B001900091019800690099084204D02F
:1023A000FFE702A90120087003E002A900200870DD
:1023B000FFE702A8007803B0704787B00690059148
:1023C000049203930698006801900698C0680090F4
:1023D00002A900200880FFE702A800880F282BD858
:1023E000FFE702A801880398C840C007F0B1FFE7E3
:1023F00002A801884900032213468B4001999943A2
:102400000191059B018849008B4001991943019175
:10241000018849008A4000999143009104990088FD
:1024200040008140009808430090FFE7FFE70298D2
:10243000401C02A90880CFE701980699086000981F
:102440000699C86007B0704710B586B0059004A81B
:102450000170039202930078012806D1FFE7029AE7
:10246000059948681043486005E0029A0599486854
:1024700090434860FFE705988068009001A900201C
:102480000880FFE701A800880F281DD8FFE701A8F2
:1024900001880298C840C00780B1FFE701A8018801
:1024A000490003228A4000999143009103990088D2
:1024B00040008140009808430090FFE7FFE7019843
:1024C000401C01A90880DDE700980599886006B0E6
:1024D00010BD000080B584B0694800F0CDFA77489F
:1024E00000F0CAFA0920C0060090002102910123E1
:1024F00003931A46FFF761FF00980299039A41F28D
:102500000003FFF75AFF00980299039A40F6000370
:10251000FFF753FF00980299039A40F20023FFF758
:102520004CFF00980299039A40F20043FFF745FFE1
:102530000299039A624801902023FFF73EFF019819
:102540000299039A4023FFF738FF01980299039AF2
:102550000823FFF732FF01980299039A1023FFF72F
:102560002CFF04B080BDC0460004004880B582B096
:102570000020019000F068F800F084F8FEF768FB96
:102580000A20FFF7ADFAFFF7A5FF01F065F888B95B
:10259000FFE7104801F0F2FD00F07EFF0E4801F069
:1025A000EDFD00F059FF0D4801F0E8FD0A20FFF7AE
:1025B00097FAFFE7FFE700F0B3FFFFF7A3FD01463F
:1025C00007480170007818B1FFE7FEF75DFBFFE7F1
:1025D000F1E7C0464C4B0008F44A00081E4B0008C7
:1025E000F412002080B582B0014601A801700021DC
:1025F0004056FEF7B3FA02B080BD80B584B00A46FB
:10260000014603A80190017002A90A7000220092FD
:1026100080560978FEF7DAFA009901984056FEF7DD
:10262000BBFA04B080BD000082B001900091019817
:102630000099034A114008430249086002B07047FC
:1026400080FFFF1F08ED00E080B584B00C4800F06B
:1026500013FA0920C006029001210022019248F2DB
:1026600000030393FFF7A9FE01990298039B03223D
:10267000FFF7EAFE02980399FFF77AFE04B080BDE7
:102680001105000080B584B00C4800F0F5F90C4845
:10269000029001210022019240F200230393FFF7F0
:1026A0008CFE01990298039B0322FFF7CDFE02984E
:1026B0000399FFF755FE04B080BDC0461205000027
:1026C0000004004880B584B0039002A8017001A9FD
:1026D00000200870FFE701A8007802A90978884265
:1026E0000DDAFFE7039801A90978415C074801F07A
:1026F00045FDFFE70198401C01A90870EBE702487F
:1027000001F03CFD04B080BD9C4C0008FF4B00086C
:1027100080B582B001A900910870FFF720F80098F9
:102720000078FFF7C1F8FEF7EDFFFEF7B3FFFEF705
:10273000BBFFFFF70EF802B080BD80B582B001A9E3
:1027400000910870FFF70BF800980078FFF7B7F8D2
:10275000FEF7D8FFFEF79EFFFEF7A6FFFEF7F9FF94
:1027600002B080BD80B582B0FEF750FC012804D0D5
:10277000FFE701A9002008700DE0FEF7D8FB282034
:10278000FEF7E7FD0020FEF7D9FDFEF7CAFB01A921
:1027900001200870FFE701A8007802B080BD80B575
:1027A00084B0019101460198039102A90870039831
:1027B000097840F2E832FEF75DFD04B080BD80B5D7
:1027C00082B001A900910870FEF7B1FB0098007873
:1027D000FEF7B4FDFEF7A5FB02B080BD80B582B068
:1027E00001A900910870FEF7A2FB00980078FEF79F
:1027F000B0FDFEF796FB02B080BD00009CB01BA9A7
:102800000870002001901A90199018901790169057
:102810001590149013901290119010900F900E90AC
:102820000D900C900B908B490A918B49099108905F
:1028300007900691059004910390884800680C2148
:10284000084080081A901A98029040B1FFE7029859
:10285000012807D0FFE70298022806D044E082480A
:10286000169044E08048169041E07C4801680F22B1
:1028700092041140890C109100680121C90608409A
:10288000C00E0F900F98012804D1FFE71098113067
:1028900010900BE010980F2803D1FFE71020109044
:1028A00003E01098801C1090FFE7FFE76B4800687A
:1028B000012109040840000C0E900E9870B1FFE74A
:1028C000684800680F210840401C0D900D9966482B
:1028D000B0FBF1F110984843169004E0109960485D
:1028E00048431690FFE702E05F481690FFE75B4819
:1028F0000168C9B209090C910C9A07A9895C0B916E
:1029000016990B9AD1401591016840F2007211405E
:10291000090A0C910C9A05A9895C0B9115990B9ADF
:10292000D1401491006843F600010840C00A0C90A1
:102930000C9903A8405C0B9015980B99C840139014
:102940001BA800780090052800D97FE000998A0034
:1029500001A080188746C04600F00AB800F00BB806
:1029600000F00CB800F00DB800F00EB800F040B860
:10297000169817906BE01598179068E014981790C8
:1029800065E01398179062E03848006840F2001143
:10299000084088420FD0FFE734480068012109044D
:1029A0000840884203D0FFE73248129002E03048E6
:1029B0001290FFE719E02948006880B2800B199057
:1029C0002A480068C00F1890189838B1FFE715988A
:1029D0001999491CB0FBF1F0129005E01398199970
:1029E000B0FBF1F01290FFE7FFE7129817902EE08E
:1029F0001E480068800718B9FFE71398119022E07D
:102A00001A48006803210840012803D1FFE71698FF
:102A1000119017E01548006803210840022804D1EE
:102A2000FFE748F2000011900BE010480068032116
:102A30000840032803D1FFE70B48119000E0FFE7AF
:102A4000FFE7FFE7FFE71198179000E0FFE717980F
:102A50001CB0704706070809010203040410024075
:102A600000093D002C10024000127A003010024094
:102A7000003FAB01809FD50081B0014668460180D0
:102A800000881F220146114001238B408109154A0D
:102A900088581843885001B07047C04681B001463D
:102AA0006846018000881F220146114001238B40A7
:102AB00081090C4A88589843885001B07047C04635
:102AC00081B001466846018000881F2201461140FE
:102AD00001238B408109034A88581843885001B06C
:102AE0007047C0460010024080B586B0059005983A
:102AF0002C210491FDF71BFB0498059A12491160E3
:102B0000059A01219180059AD080059808306422A9
:102B100001920092282202921023039300F016F8EB
:102B20000199029A039B059818300091022100F048
:102B30000DF80499059A00201085059800F004F915
:102B40000599088506B080BD43464652B0B586B0AB
:102B500004460A98059404AC217003A90A7002A9DE
:102B60000B7001A9087005990020C8608860486052
:102B70000860059A71491160059A01219180059AB2
:102B80001121D1800499059A11720399059A517205
:102B90000299059A91720199059AD17205998881D5
:102BA0000598102100F0D0F80599888106B0B0BDD5
:102BB00082B00A46014601A8017069460A70007891
:102BC00009784143024848430249401802B070471F
:102BD000C40900000018DD1980B582B0009000988B
:102BE00000F040F8012807D0FFE71D4801F0C6FAC1
:102BF00001A9002008702BE00098007A01280FD16D
:102C0000FFE70098407AFFF7E9FD0098807AFFF728
:102C1000D6FD124801F0B2FA01A90120087017E0B0
:102C20000098007A02280FD1FFE70098407AFFF75A
:102C300084FD0098807AFFF76BFD074801F09EFA4B
:102C400001A90120087003E001A900200870FFE736
:102C500001A8007802B080BDC64C0008FF4C0008F7
:102C6000534D000883B00190019820B9FFE702A9F5
:102C7000002008705DE0019800683049884204D067
:102C8000FFE702A90020087053E00198808801281E
:102C900004D0FFE702A9002008704AE00198007AFA
:102CA000012809D0FFE70198007A022804D0FFE745
:102CB00002A9002008703CE00198407A20B9FFE7A3
:102CC00002A90020087034E00198C07A20B9FFE71B
:102CD00002A9002008702CE00198C07A652804DB66
:102CE000FFE702A90020087023E00199887AC97AD9
:102CF000884204DBFFE702A90020087019E001996F
:102D0000487AC97A491E4143192048430A21B0FB39
:102D1000F1F00B494018009000980A49884204D30A
:102D2000FFE702A90020087003E002A90120087053
:102D3000FFE702A8007803B07047C04647434652F9
:102D4000009F0600ADC5060086B0049003A8018070
:102D500002A925480880049820B9FFE705A90020AA
:102D600008803CE001A900200880FFE701A8008856
:102D700003A9098888422EDAFFE7049801A9098887
:102D8000415C0298484002A908806946002008700A
:102D9000FFE768460078072817DCFFE702A80088ED
:102DA000C00738B1FFE702A9088840080F4A504021
:102DB000088004E002A9088840080880FFE7FFE7D0
:102DC0000098401C69460870E3E7FFE70198401C43
:102DD00001A90880CAE7029805A90880FFE705A8AD
:102DE000008806B07047C046FFFF000001A0000049
:102DF00070B594B0044612A8047011AC217010A9EB
:102E00000A700FA90B70484A04A938CA38C178CA99
:102E100078C178CA78C10078012805D0FFE712A8E8
:102E20000078032818D1FFE704A80830039011A9FF
:102E30000A7810A90B780FA9097800910121FFF7F2
:102E400085FE0398FFF70EFF012804D0FFE713A9C2
:102E50000020087063E0FFE712A80078022805D080
:102E6000FFE712A80078032818D1FFE704A818305C
:102E7000029011A90A7810A90B780FA9097800917E
:102E80000221FFF763FE0298FFF7ECFE012804D051
:102E9000FFE713A90020087041E0FFE704A800F055
:102EA0008BF820B9FFE713A90020087037E012A8BB
:102EB0000078012805D0FFE712A8007803280CD17C
:102EC000FFE704A80830FFF787FE012804D0FFE7DA
:102ED00013A90020087022E0FFE712A8007802285A
:102EE00005D0FFE712A8007803280CD1FFE704A85B
:102EF0001830FFF771FE012804D0FFE713A9002066
:102F000008700CE0FFE7084804A91CC91CC03CC9B4
:102F10003CC03CC93CC013A901200870FFE713A8BE
:102F2000007814B070BDC0463410002083B001900A
:102F300068460170019820B1FFE70198006820B948
:102F4000FFE702A90020087013E0019800680078EC
:102F500069460978884204D0FFE702A9002008707A
:102F600007E001990868401C086002A90120087068
:102F7000FFE702A8007803B070470000B0B584B046
:102F80000290029820B9FFE703A9002008700FE023
:102F900048480190029801991CC91CC03CC93CC01A
:102FA0003CC93CC0029800F087F803A90870FFE70D
:102FB00003A8007804B0B0BD80B594B01290129808
:102FC00020B9FFE713A9002008706EE012996C4841
:102FD000086012990120888012982C21C180129AD1
:102FE00000205085129A10851298FFF7ADFE1299B5
:102FF0000885FFF73DF83C20FEF7A6FF2D48FEF7B9
:10300000B1FF01460EA80170007830B1FFE7FEF76E
:10301000A3FF13A90020087047E026481190002064
:103020001090FFE710982B2825D8FFE71299109AE7
:1030300088188A5C41780902891882781204C0785D
:103040000006801840180F901198109940180F9999
:10305000FFF722F801460EA80170007830B1FFE7B3
:10306000FEF77AFF13A9002008701EE0FFE7109812
:10307000001D1090D6E7FEF76FFF03A802900D49E0
:103080002C220192FDF73AF8019A02981299FDF765
:1030900059F820B1FFE713A90020087005E003A844
:1030A00000F00AF813A90870FFE713A8007814B01D
:1030B00080BDC04600FC000870B590B00E900E9820
:1030C00020B9FFE70FA90020087054E00E980068AF
:1030D0002B49884204D0FFE70FA9002008704AE07E
:1030E0000E988088012804D0FFE70FA900200870FF
:1030F00041E00E98C0882C2804D0FFE70FA90020DB
:10310000087038E00E9A03A8014638CA38C178CA58
:1031100078C178CA78C10D9902AA00921180002165
:1031200001852C21FFF710FE0246009801A90A80B4
:1031300000880988884204D0FFE70FA900200870A2
:1031400019E003A80830FFF78DFD012804D0FFE740
:103150000FA9002008700EE003A81830FFF782FDC9
:10316000012804D0FFE70FA90020087003E00FA991
:1031700001200870FFE70FA8007810B070BDC046AE
:103180004346465280B58CB00B900B9808B9FFE7C8
:103190003AE063200190FEF721F80AA90391087034
:1031A00064200290FEF71AF80146019809AA0492D9
:1031B0001170FEF736FB0146029808AA05921170BD
:1031C000FEF72FFB03990246049807AB06931A708B
:1031D0000A9A0B9B5A70099A0B9B1A70007809780F
:1031E000FFF7E6FC0599024606980B9B5A60089A81
:1031F0000B9B5A72079A0B9B1A7200780978FFF79B
:10320000D7FC0B99C860FFE70CB080BD10B586B045
:10321000089C0490039102920193049860B1FFE727
:10322000039848B1FFE7029830B1FFE7019818B161
:10323000FFE7089820B9FFE705A900200870A7E07C
:10324000049800900098007853280FD1FFE7009869
:10325000407845280AD1FFE700988078542805D1A6
:10326000FFE70098C0782C2804D0FFE705A90020CC
:1032700008708DE00098001D009000980078542898
:1032800011D1FFE70098407858280CD1FFE700984B
:1032900080782C2807D1FFE7039901200870009857
:1032A000C01C00903BE000980078522811D1FFE745
:1032B0000098407858280CD1FFE7009880782C2897
:1032C00007D1FFE70399022008700098C01C009006
:1032D00024E00098007842281BD1FFE7009840784E
:1032E0004F2816D1FFE700988078542811D1FFE7C6
:1032F0000098C07848280CD1FFE7009800792C2866
:1033000007D1FFE70399032008700098401D009043
:1033100003E005A9002008703AE0FFE7FFE7029903
:10332000684600F039F820B9FFE705A900200870C9
:103330002EE068462C21FFF7F9FD20B9FFE705A92B
:103340000020087024E00199684600F025F820B9B3
:10335000FFE705A9002008701AE068462C21FFF756
:10336000E5FD20B9FFE705A90020087010E00899E5
:10337000684600F011F820B9FFE705A900200870A1
:1033800006E0009800784142484105A90870FFE72F
:1033900005A8007806B010BD89B00790069104A971
:1033A0000020088003A90870079838B1FFE7079844
:1033B000006818B1FFE7069820B9FFE708A90020C8
:1033C000087045E0079800680590FFE705980178C8
:1033D0000020302902900DDBFFE7059801780120DD
:1033E000002200923A29019001DB00980190019897
:1033F0000290FFE70298C007C0B1FFE704980A21D6
:103400004143059800784118303904A80180039998
:10341000491C03AA1170407820B1FFE708A90020D9
:10342000087015E00598401C0590CFE703A80078C8
:1034300020B9FFE708A90020087009E00498069960
:10344000087005980799086008A901200870FFE72F
:1034500008A8007809B0704780B588B004A8039028
:10346000FFF790FE03980278437805980190009347
:103470000748114600F082FE0398027A437A0798C3
:10348000019000930348114600F078FE08B080BD1B
:10349000524C0008054C000880B586B01C480290CC
:1034A00002A80190012282801121C180282141724D
:1034B000102181726423C372027200228281FFF79D
:1034C00043FC014601988181FFF786FB012804D067
:1034D000FFE7124800F052FE18E002A80090022117
:1034E0000172002181811021FFF72EFC0146009816
:1034F0008181FFF771FB012804D0FFE7064800F047
:103500003DFE03E0034800F039FEFFE706B080BD52
:1035100047434652E54C0008324D00081E4D000856
:1035200080B59AB04748007808B9FFE787E01C20CB
:10353000FFF758F84448018809A8018000883F280F
:1035400007D8FFE709A8028840490AA8FCF7D6FD7A
:10355000FFE73D49002008803A4908703B49087060
:103560001C200221FFF749F809A8008828B1FFE7CD
:1035700009A80088402804D3FFE7354800F014FD6F
:103580005DE009A802880AA900208854099808A9C2
:103590000880FFE708A8018800200290C9B1FFE772
:1035A00008A800880AA94018401E017801200D29AA
:1035B00001900BD0FFE708A800880AA94018401E18
:1035C00000780A38414248410190FFE70198029093
:1035D000FFE70298C00728B1FFE70898401E08A936
:1035E0000880D7E708A802880AA80021815404A906
:1035F000009107A906AA05ABFFF708FE014603A83C
:103600000170007868B1FFE707A8007806A909787B
:1036100005AA127804AB1B78FFF7EAFB03A9087030
:10362000FFE703A8007830B1FFE70A4800F0BCFCD0
:10363000FFF712FF03E0064800F0B6FCFFE71AB000
:1036400080BDC04630100020321000203000002025
:10365000BD4B0008B04B000880B582B01448FFF79E
:103660008DFC38B9FFE71248FFF73EFA01A90020A8
:10367000087019E00E480830FFF7AEFA012804D0B0
:10368000FFE701A9002008700EE009481830FFF795
:10369000A3FA012804D0FFE701A90020087003E085
:1036A00001A901200870FFE701A8007802B080BDE1
:1036B0003410002081B000900099086840229043A7
:1036C000086001B0704781B00090009908684022FE
:1036D0001043086001B0704784B0039002A80180D5
:1036E00003988E49884205D1FFE702A80088039914
:1036F000C86015E00398406841F20001084000905E
:10370000009838B1FFE703980C30019002980199B6
:10371000087004E002A800880399C860FFE7FFE78B
:1037200004B0704780B584B00390039802902E498E
:1037300088420ED0FFE702987849884211D1FFE70E
:1037400040F20C300190FFF7BBF90198FFF7A6F9A2
:1037500008E005480090FFF7B3F90098FFF79EF9DD
:1037600000E0FFE704B080BD0E04000083B00190CC
:103770000091019880680099084204D0FFE702A9EF
:10378000012008702BE001981749884223D1FFE7F8
:10379000009870B9FFE701988068C004800F20B1DD
:1037A000FFE702A90020087019E002A901200870B3
:1037B00015E0009870B9FFE7019880684005800F18
:1037C00020B1FFE702A90020087008E002A901204B
:1037D000087004E0FFE702A900200870FFE702A8D4
:1037E000007803B07047C0460038004086B00490AF
:1037F000039100200090049800680290029843F220
:10380000400108400290049800680190019843F636
:1038100040010840019004984068009000983E499B
:103820000840009004983D4988423DD1FFE7039845
:10383000016802980843029003984168029808437F
:1038400002900398C16802980843029003980169A6
:103850000298084302900398416902980843029035
:10386000039881690298084302900398806840F2A7
:10387000007188420BD0FFE70398806840F6007122
:10388000884204D0FFE705A90020087040E00398B3
:10389000816840F600000140029808430290FFE76B
:1038A00002980499086029E0039801680198084388
:1038B0000190039841680198084301900398C168FA
:1038C0000198084301900398016901980843019009
:1038D0000398416901980843019003988169019810
:1038E0000843019001980499086003988168009842
:1038F00008430090009804994860FFE70499C8695C
:1039000040F600029043C86105A901200870FFE756
:1039100005A8007806B07047FFF0000000300140B5
:1039200081B0009000990020086000994860009ADA
:1039300040F2007191600099C86000994861009957
:10394000886101B07047000084B0002003900290AD
:1039500030490868012210430860FFE70398401CC3
:1039600003902C480068022108400290FFE702996A
:103970000020019041B9FFE7039840F20051401A3E
:10398000411E88410190FFE70198C0070028E5D15A
:10399000FFE7204800688007002802D4FFE7FFE720
:1039A000FEE71D4908680222104305229043086083
:1039B0001A4900910868086008680860086808608B
:1039C0000868174A104008600868164A10430860E3
:1039D000104908680122120610430860FFE70D48ED
:1039E00000688001002801D4FFE7F8E70B49086868
:1039F0000322904308600868022210430860FFE732
:103A0000064800680007002801D4FFE7F8E704B083
:103A10007047C046001002400020024004100240DF
:103A2000FFFFC2F70000040880B5FFF78DFF80BDDF
:103A300081B000900098042806D1FFE70649086885
:103A400004221043086005E00349086804229043FB
:103A50000860FFE701B0704710E000E080B5042087
:103A6000C043FFF7E5FF08480068FCF7F3FB074990
:103A7000FCF7B2FB01460648016000680549FCF707
:103A80006EFB0549086080BD040000200024F44A54
:103A90002C00002000007A442800002080B588B067
:103AA00007900691002005900490039002900798DB
:103AB0000190994988420AD0FFE701983449884229
:103AC0000AD1FFE70520FEF799FE059005E00220E8
:103AD000FEF794FE059000E0FFE7079800680004F9
:103AE000002818D5FFE70598400006994A08801875
:103AF000B0FBF1F00290029813490840049002983C
:103B00000007400F039004A8008803A90988084310
:103B10000799C86016E0059806994A088018B0FB16
:103B2000F1F00290029808490840049002980F2191
:103B30000840039004A8008803A90988084307994E
:103B4000C860FFE708B080BDF0FF000080B584B01A
:103B5000039003980290D64988420DD0FFE702985F
:103B60000B49884210D1FFE70B480190FEF7A8FFF0
:103B70000198FEF793FF08E006480090FEF7A0FFCB
:103B80000098FEF78BFF00E0FFE704B080BDC04661
:103B900000380140110400000E03000082B00190C3
:103BA000009101998868402290438860009A0199A9
:103BB00088681043886002B0704782B0019000911D
:103BC00001998868802290438860009A01998868EA
:103BD0001043886002B0704781B000900099086877
:103BE00001221043086001B0704784B00091014683
:103BF0000098029101A9088002980A8892098058C9
:103C000009881F221140C840C00720B1FFE703A95F
:103C10000120087003E003A900200870FFE703A853
:103C2000007804B07047000080B58AB00990384829
:103C30000090FEF721FF0098FEF71EFF3548FEF7C3
:103C40001BFF40F20050FEF717FF0920C00601904D
:103C50000121079104220592FEF722FB01980799A2
:103C600008220492FEF71CFB0198059B079A02218B
:103C70000891FEF7A2FB0198049B079A0899FEF7AA
:103C80009CFB0198059B0021039103220292FEF701
:103C9000DBFB0198029A0399049BFEF7D5FB84484D
:103CA0000690FFF753FF06980999FFF7F7FE03996F
:103CB000069800F0A6F80399069800F049FA0399CF
:103CC000069800F08FF90698FFF786FF049906988A
:103CD00000F09DF90599069800F0A8F806980521CE
:103CE00000F01CF80599069800F029F8069840F2B3
:103CF000002100F024F807990B20FEF77EFC0899BC
:103D00001C20FEF77AFC00F0A1F80AB080BDC04686
:103D100011050000110700000044004082B001902E
:103D20006846018000881F220146114001238B4014
:103D30000199820988589843885002B0704782B030
:103D400001906846018000881F220146114001232E
:103D50008B400199820988581843885002B07047F7
:103D600082B00190009100980C49884208D1FFE789
:103D70000199D022885848F20003984388500BE0FC
:103D800000981F2109040840000C0122824001997B
:103D9000086A10430862FFE702B0704709340F3425
:103DA00010B585B003900291002001900090039817
:103DB00002A9098889094058029C1F231C4001213F
:103DC0000A46A240104001900398029A920D805832
:103DD000029A1B041A40120C91400840009000986F
:103DE00038B1FFE7019820B1FFE704A9012008706E
:103DF00003E004A900200870FFE704A8007805B0DC
:103E000010BD82B001900091019908680122904391
:103E100008600199086840F2006290430860009AC7
:103E2000019908681043086002B0704782B00190A1
:103E3000009101990868042290430860009A019952
:103E400008681043086002B07047000080B58AB06F
:103E500004200290FDF7E8FE03A80090FEF73EF86C
:103E600000990298114A03921E4A05920022049278
:103E70000692802307930A76012301934B768A7674
:103E800042F200020892FDF70BFF0298FDF7BEFE1A
:103E900001990298FDF7F4FEAC484021FFF77EFE41
:103EA0000298FDF7A5FE0AB080BDC046244400403C
:103EB0000044004080B582B004200190FDF78AFEE6
:103EC00001980849FDF7F8FF01988021FEF71EF8D8
:103ED00001980121FDF7D4FE0198FDF789FE02B09B
:103EE00080BDC0466410002010B586B0049003A8C1
:103EF000018002A900200880049820B1FFE703A8F0
:103F0000008820B9FFE705A9002008803BE00B20CE
:103F1000FEF768FBFFE702A8008803A9098888422A
:103F200027DAFFE785480088411C01A80180008846
:103F3000400A20B1FFE701A900200880FFE701A89F
:103F400000887D490988884205D1FFE71049086843
:103F5000401C08600DE0049802A90A88805C774A3A
:103F60001488794B1855019810800298401C0880DD
:103F7000D1E700F075F80B200121FEF73EFB029817
:103F800005A90880FFE705A8008806B010BDC04657
:103F9000EC10002080B582B0014601A8017001211B
:103FA000FFF7A2FF02B080BD80B582B001906946E4
:103FB00000200880019808B9FFE711E0FFE70198A9
:103FC00069460988405C28B1FFE70098401C6946B3
:103FD0000880F4E7019869460988FFF785FFFFE745
:103FE00002B080BD82B00190009101990868012261
:103FF000904308600199486843F20002904348608A
:10400000009A019948681043486002B0704782B036
:104010000190009101990868082290430860009A75
:10402000019908681043086002B0704780B503200A
:10403000FDF7D0FD424802883F4801888918018079
:104040000088400A20B1FFE73B4900200880FFE7D5
:104050003B49002008803749087000F001F880BD16
:1040600010B58CB03348007808B1FFE760E0324803
:10407000008832490988884205D1FFE7334800218A
:10408000FFF79BFD54E02D4800882B4909888842A2
:1040900008DDFFE72948008827490988401A04A954
:1040A000088007E02448018840F20020401A04A953
:1040B0000880FFE71F4901200290087004982049FA
:1040C000088003200390FDF785FD0398FDF7ACFD04
:1040D00005A80190FDF702FF0199029A0398194B78
:1040E0000593154B1C88184B1B1907930023069347
:1040F000089304AC248809940B764A768A7641F2B8
:1041000000020A92FDF7CCFD02990398FDF7B8FD75
:1041100003980221FDF74CFE03980821FDF748FEA5
:104120000A488021FFF749FD0398FDF761FDFFE78D
:104130000CB010BDE8100020F0120020F212002098
:10414000EA10002028440040F01000200044004005
:1041500082B00190009101990868012290430860A3
:104160000199086841F2000290430860009A0199A1
:1041700008681043086002B0704700000FB410B523
:1041800003A9044B044A029800F0E8F810BC08BCEC
:1041900004B01847ED200008000000202021020C88
:1041A00001D010211046020A01D010460839020938
:1041B00001D01046091F820801D01046891E42080E
:1041C00001D0881E7047081A704702E008C8121F05
:1041D00008C1002AFAD170477047002001E001C1F0
:1041E000121F002AFBD17047F0B51FB486B00998A2
:1041F000089A030D0021024314D05148514A18185F
:10420000504305141198012810981AD0281A401C00
:1042100000264D4F4D49009601910490002812DA76
:10422000444211E01198012449A3012801D11098BA
:10423000C1430698119A84600360C26041600BB06C
:10424000F0BD4042E4E70446210500203F4A001C3F
:1042500051410391029012E0E00707D032463B46FD
:1042600001990098FCF734F90191009032463B46E1
:1042700010461946FCF72CF906460F466410002C30
:10428000EAD10498039B0028029A0999089806DA53
:10429000FCF71EF9019B009AFCF71AF905E0FCF700
:1042A0007FF9019B009AFCF77BF904460E46002239
:1042B000284BFCF70DFA03D80020C043014607E065
:1042C0000022254B20463146FCF750F8FCF7E0F978
:1042D000102409E0002C0ADB0A220023FBF7D5FF9B
:1042E000079B30321A55641E02460A43F2D111224E
:1042F000641C079B121B1C19119B012B03D001236B
:1043000008430ED10AE0084304D011201090002089
:10431000119077E71098151A6D1E0BE010988242E5
:1043200002DD00236D1C03E0824201DA00236D1ED2
:10433000002BEED0069811998260C16030C07EE7F4
:1043400001FCFFFF104D0000000014400000F03F92
:10435000300000000000F0430000E03FFFB597B0E0
:104360000646002518E2252877D100242746FD4976
:10437000049400E00443761C32780120203A9040F7
:104380000842F7D130782A280ED002223078014630
:104390003039092916D804990A235943303940186D
:1043A0001443761C0490F1E7189802C80491189001
:1043B000002904DA0120400304434842049002200B
:1043C0000443761C30782E2814D1042004437078DE
:1043D000761C2A2809D11898761C80C8189009E004
:1043E0000A214F43303FC719761C307801463039D7
:1043F0000929F5D930786C2810D006DC4C281AD061
:1044000068280ED06A2817D104E0742813D07A28BF
:1044100012D110E00120400504430CE00121090500
:1044200001E0032109050C437178814203D1012089
:1044300000052418761C761C3078119066280BD065
:1044400013DC58287DD009DC00287BD04528F6D025
:104450004628F4D047281AD1A5E118E0632835D0C2
:10446000642870D0652812D19DE170286CD008DCDA
:104470006728F1D069287BD06E280DD06F2806D12F
:10448000BAE073282ED0752871D0782859D01A9A9E
:10449000199990476D1C7EE16002400F022809D0F7
:1044A00003280DD00428189801680DD00D60001D58
:1044B000189070E11898EA1701680D604A60F6E7F5
:1044C000189801680D80F2E70D70F0E718986A46B9
:1044D00001781172001D18900020507202A80090FF
:1044E000012005E0189802C8189000200091C043F0
:1044F00061070DD5002101E00199491C0191B942E4
:1045000012DA8142F8DB009A515C0029F4D10BE009
:10451000002101E00199491C01918142FADB019AD5
:104520000099895C0029F5D1019904981A9B471AD2
:1045300021463846199A00F097FA01994019451812
:104540000BE04FE02CE113E04EE00098009900787A
:10455000491C00911A9A199990470198401E0190A0
:10456000401CF2D1214638461A9B199A10E137E0D7
:104570000A200021009001916002410F022907D01A
:10458000189A01CA1892C2179446032908D00AE063
:104590001898C01DC108C90005C91891944607E0C4
:1045A00000B2C2179446042902D140B2C1178C460A
:1045B00000226146944506DA0A46002140429141B4
:1045C0008C462D2102E0210504D52B216A4611736A
:1045D000012103E0E10701D02021F7E7029155E036
:1045E0000A200AE0102008E010200090002104209A
:1045F00004430191082703E0082000210191009065
:104600006002410F022907D0189A01CA18920022AD
:104610009446032908D008E01898C01DC108C900B5
:1046200005C91891944603E080B2042900D1C0B2B4
:1046300000210291210729D51199702906D0009AED
:104640001021019B4A401A4305D00EE040216A46E2
:104650001173012108E06146014306D030216A460A
:1046600011731199517302210291009A0821019B43
:104670004A401A430AD16146014301D1610705D579
:1046800030216A46117301217F1E02911199582928
:1046900004D035A10E910DA90D910DE037A1F9E7D8
:1046A0006146019B009AFBF7F0FD0E9B8C469B5CDC
:1046B0000D9A521E0D92137061460143F0D10D9870
:1046C00005A9081A20300190600703D501200004D5
:1046D000844300E001270198874201DD381A00E099
:1046E0000020019900904118029809180498401A76
:1046F0000490E00306D421461A9B199A049800F00E
:10470000B3F94519002706E003A81A9AC05D199964
:1047100090476D1C7F1C02988742F5DBE0030CD5A7
:1047200021461A9B199A049800F09EF9451904E055
:104730001A9A3020199990476D1C0099481E0090D4
:104740000029F5DC08E00D980D990078491C0D91C1
:104750001A9A199990476D1C0199481E01900029D9
:10476000F1DC63E10928010030313233343536376A
:1047700038396162636465660000000030313233AD
:10478000343536373839414243444546000000004D
:1047900000F05AF94519761C3078002800D0E2E57F
:1047A00028461BB0F0BD600700D406271898C01D2E
:1047B000C108C90048680A680831C30FDB071891AF
:1047C000190001D09CA108E0210501D59BA104E0BE
:1047D000E10701D09AA100E09AA1430011985B087B
:1047E000109165280CD006DC452809D046281DD03C
:1047F000472841D141E0662818D067283CD13CE0E9
:104800000021112F01DB112000E0781C01910090A4
:1048100008A911A8FFF7E8FC139905910021119A46
:1048200015927F1C12980197009150E00120C0075B
:1048300003900120019008A9009711A8FFF7D4FC6C
:10484000139A149905920022119B009212981593C5
:10485000059A0192002901D0104602E0791C401807
:104860000190381A01D5019804E04042401E0090A2
:10487000781C0190C01B029043E0012F00DA012751
:104880000021112F01DD112000E038460191009038
:1048900008A911A8FFF7A8FC13990591119A002106
:1048A000129815920091019721070CD40599B942ED
:1048B00001DB019900E00191012904DD159A491EEF
:1048C000515C302906D0B84201DA011D05DA012118
:1048D000029115E00199491EEDE7002805DC0099D9
:1048E000411800910199091A03E0019A411C914273
:1048F00000DD01910099401A401C02900120C00780
:104900000390200706D402990198814202DB00201F
:10491000C043029000206946C87707AF0121039881
:104920000337C907884224D0022011902B2012900F
:10493000039800280CDA404203902D20129007E0E3
:104940000A210398FBF7F0FE30317F1E0390397087
:104950001199481E11900029F2DC03980028EFD12C
:10496000791E129808703078202108404530BF1E0B
:10497000387006A8C01BC01D03901098007800284E
:1049800000D00120019941180298C0170918039816
:1049900009180498401A401E0490E00306D42146EA
:1049A0001A9B199A049800F05FF84519109800783E
:1049B000002803D01A9A199990476D1CE00324D55A
:1049C00021461A9B199A049800F04EF845191CE0EC
:1049D0000098002807DB00990598884203DD1598A8
:1049E000405C199901E0199930201A9A9047009873
:1049F0006D1C401C00900298401E0290002804D1BB
:104A00001A9A2E20199990476D1C0199481E019001
:104A10000029DDDC05E038781A9A7F1C1999904747
:104A20006D1C0399481E03900029F4DC21461A9B53
:104A3000199A0498ACE600002D0000002B0000003D
:104A40002000000000000000F8B5044600251E46C6
:104A50001746880404D405E039462020B0476D1C71
:104A6000641EF9D52846F8BDFFB50446002581B07F
:104A70001E46C80301D5302700E02027880404D54E
:104A800005E038460399B0476D1C641EF9D52846E9
:104A900005B0F0BD120800AA040000000000D42DEB
:104AA000AA001F000000000001000060FF00001FBE
:104AB000104066EC1CF0801408910202D0CA60100D
:104AC00033E136190A9F382929C0940A530800B4E3
:104AD00000000100004271CE1C425B1C1CAEE07164
:104AE0000000F410E242200081709A0C000F900048
:104AF0001F063F7F3D3D3D205B4442475D2072667F
:104B00005F746573745F6170706C795F636F6E66FC
:104B1000696720646F6E65203D3D3D0D0A003D3D97
:104B20003D205B4442475D2072665F7072696E741F
:104B30005F74785F72785F7265616C5F66726571D1
:104B400020646F6E65203D3D3D0D0A003D3D3D20DA
:104B50005B4442475D20666C61736820696E7661D4
:104B60006C69642C206170706C7920646566617575
:104B70006C74203D3D3D0D0A000D0A5B3231315D04
:104B80002054585F444F4E452074696D656F7574AD
:104B90000D0A000D0A5B3231315D204649464F2037
:104BA000656D7074790D0A00545820696E6974201F
:104BB0004F4B0D0A00545820696E697420455252BB
:104BC0004F520D0A000D0A5458204F4B2C20636F92
:104BD000756E743D25750D0A000D0A545820455216
:104BE000524F522C20636F756E743D25750D0A006F
:104BF0005458205573657220646174613A20002511
:104C000030325820005258207265616C20726567FE
:104C100020646174613A202066685F6F6666736520
:104C2000743D257528307825303258292C66685F08
:104C30006368616E6E656C3D25752830782530326D
:104C400058292C20667265713D256C7520487A0DB7
:104C50000A005458207265616C2072656720646197
:104C600074613A202066685F6F66667365743D25DF
:104C70007528307825303258292C66685F63686162
:104C80006E6E656C3D257528307825303258292C9C
:104C900020667265713D256C7520487A0D0A0050BA
:104CA00041350D0A005041360D0A00646F776D0DD5
:104CB0000A0075700D0A006C6566740D0A00726951
:104CC0006768740D0A00436865636B20616E642039
:104CD000436F6E666967205258204150504C5920EE
:104CE0004F4B0D0A00555341525420524620545800
:104CF0002F5258204150504C59204F4B0D0A004321
:104D00006865636B20616E6420436F6E666967201F
:104D10005458204150504C59204F4B0D0A005246D8
:104D2000205458204150504C59204552524F520D5A
:104D30000A00555341525420524620747820616E27
:104D400064207278204150504C59204552524F52A5
:104D50000D0A00436865636B20616E6420436F6ECB
:104D6000666967204552524F520D0A00904D000867
:104D70000000002028000000CA410008B84D0008CB
:104D800028000020D8160000DA41000800000000CA
:104D90000000000000A24A041122334455667788BF
:104DA00099AABBCCDDEEFF0001020304050607084B
:084DB000090A0B0C0D0E0F1097
:04000005080000CD22
:00000001FF
